:100000000C9434000C9451000C9451000C94510049
:100010000C9451000C9451000C9451000C9451001C
:100020000C9451000C9451000C9451000C9451000C
:100030000C9451000C9451000C9451000C945100FC
:100040000C9451000C9451000C9451000C945100EC
:100050000C9451000C9451000C9451000C945100DC
:100060000C9451000C94510011241FBEC0E0D8E044
:10007000DEBFCDBF11E0A0E0B1E0E8E9F0E102C0F1
:1000800005900D92A631B107D9F722E0A6E1B1E0C3
:1000900001C01D92A13AB207E1F70E9453000C94EF
:1000A0004A080C9400000F931F93CF93DF93CDB7B2
:1000B000DEB7C454D1090FB6F894DEBF0FBECDBF72
:1000C00084E590E0FC0180818C878EE390E02C85B4
:1000D000FC01208384E590E0FC011082A89588E172
:1000E0000FB6F89480936000109260000FBE84E217
:1000F00090E024E230E0F90120812062FC012083BD
:100100008C85882F90E081709927009731F080913D
:10011000160190911701FC01099519821C821D821C
:100120001E821F8210929B0210929A0285EC90E030
:10013000FC01108284EC90E02CE0FC01208380EC38
:1001400090E0FC01108281EC90E028E1FC0120832A
:1001500082EC90E026E0FC01208383E00E944E05C3
:1001600094C08C819D81AE81BF810196A11DB11D7E
:100170008C839D83AE83BF838C819D81AE81BF8143
:100180008133F5E79F07A105B10538F0809116018D
:1001900090911701FC01099578C08DEC9CECACECBA
:1001A000BDE38D879E87AF87B88B20E030E04AEFB4
:1001B00054E46D857E858F8598890E94BF07DC0198
:1001C000CB01898B9A8BAB8BBC8B20E030E040E875
:1001D0005FE369897A898B899C890E943E0788231D
:1001E0002CF481E090E09E8B8D8B42C020E03FEFAD
:1001F0004FE757E469897A898B899C890E94BB07FC
:10020000181664F520E030E040E251E46D857E850B
:100210008F8598890E94BF07DC01CB01BC01CD010D
:100220000E944207DC01CB019E8B8D8B12C088ECB3
:1002300090E0988F8F8B8F89988D8C01C8010197E2
:10024000F1F78C01188F0F8B8D899E8901979E8BFA
:100250008D8B8D899E89009751F717C069897A899E
:100260008B899C890E944207DC01CB019E8B8D8B80
:100270008D899E899A8F898F898D9A8D8C01F8013D
:100280003197F1F78F011A8F098F80EC90E0FC0114
:10029000808188230CF065CF10929C0210929D0201
:1002A00010929E0210929F021092A0020FC00000B6
:1002B0000DC000000BC0000009C0000007C0000016
:1002C00005C0000003C0000001C000000E94170527
:1002D0008E3769F700000E9417058091000188237E
:1002E00041F30E941705882F90E0909319018093A5
:1002F0001801809100018823F1F2809118019091FA
:1003000019018D37910559F40E941705982F80E245
:100310008927882F90E0909319018093180180918C
:100320000001882351F210929C021B821A8236C06F
:1003300080919C02882379F00E941705982F80E213
:10034000292F28278A819B8186569E4FFC01208376
:1003500010929C0219C00E941705282F8A819B8148
:1003600086569E4FFC0120838A819B8186569E4F34
:10037000FC0180818D3741F48A819B8101979B83A9
:100380008A8381E080939C0280910001882309F494
:1003900096CF8A819B8101969B838A8380911801E5
:1003A000909119012A813B812817390708F2809121
:1003B0009A01803909F085CF0E94170589838091C1
:1003C0000001882309F47FCF89818D3731F40E94A1
:1003D0001705982F80E2892789838091000188235F
:1003E00009F473CF1B821A8214C08A819B810596FF
:1003F0002A813B812F5F3F4F26563E4FF9012081D6
:100400008F5F9E4FFC0120838A819B8101969B8395
:100410008A838A819B818830910538F380919B0182
:10042000809314011986188683E090E09B838A8369
:1004300013C08A819B818F5F9E4FFC018081882F32
:1004400090E028853985820F931F998788878A8154
:100450009B8101969B838A838A819B81843191054C
:1004600040F32FEF30E088859985A901481B590B8F
:10047000CA01998788878885809315011B821A8213
:100480000EC08A819B8186569E4FFC018081998196
:10049000890F89838A819B8101969B838A838091BE
:1004A0001801909119012A813B812817390748F3D7
:1004B00089818F3F09F0B8C18091A601803509F08C
:1004C00076C08091A701823509F071C080919A02AF
:1004D00090919B02009781F488EA91E0FC01808171
:1004E0009181CC01A0E0B0E080939D0290939E02A8
:1004F000A0939F02B093A00280E190E09B878A873F
:1005000049C080919A0290919B022A853B8526568C
:100510003E4FF90140819C01265E3E4FF901408328
:10052000019690939B0280939A0280919A029091F7
:100530009B028038910549F581E00E944E0580912B
:100540009D0290919E02A0919F02B091A0024AE16B
:1005500051E0BC01CD010E94720610929B021092E4
:100560009A0280919D0290919E02A0919F02B0916B
:10057000A00280589F4FAF4FBF4F80939D02909332
:100580009E02A0939F02B093A0028A859B8501964C
:100590009B878A872A853B85809118019091190154
:1005A0002817390708F4ADCF0E94C6043CC18091DA
:1005B000A601853409F0B8C08091A7018E3409F0F6
:1005C000B3C080919A0290919B02009749F181E01B
:1005D0000E944E0580919D0290919E02A0919F02E3
:1005E000B091A0024AE151E0BC01CD010E94720627
:1005F00010929B0210929A0280919D0290919E020D
:10060000A0919F02B091A00280589F4FAF4FBF4F63
:1006100080939D0290939E02A0939F02B093A002AC
:100620000E94C60480E090E0A8ECB2E48B8F9C8F1F
:10063000AD8FBE8F20E030E04AEF54E46B8D7C8DAF
:100640008D8D9E8D0E94BF07DC01CB018F8F98A3FB
:10065000A9A3BAA320E030E040E85FE36F8D78A162
:1006600089A19AA10E943E0788232CF481E090E0A2
:100670009CA38BA342C020E03FEF4FE757E46F8D70
:1006800078A189A19AA10E94BB07181664F520E001
:1006900030E040E251E46B8D7C8D8D8D9E8D0E940B
:1006A000BF07DC01CB01BC01CD010E944207DC0188
:1006B000CB019CA38BA312C088EC90E09EA38DA3DA
:1006C0008DA19EA18C01C8010197F1F78C011EA399
:1006D0000DA38BA19CA101979CA38BA38BA19CA193
:1006E000009751F717C06F8D78A189A19AA10E9438
:1006F0004207DC01CB019CA38BA38BA19CA198A7F3
:100700008FA38FA198A58C01F8013197F1F78F0184
:1007100018A70FA382E00E944E05809116019091C8
:100720001701FC0109957FC083E00E944E0580E01F
:1007300090E0AAE7B3E489A79AA7ABA7BCA720E0FB
:1007400030E04AEF54E469A57AA58BA59CA50E94E8
:10075000BF07DC01CB018DA79EA7AFA7B8AB20E0F8
:1007600030E040E85FE36DA57EA58FA598A90E94C3
:100770003E0788232CF481E090E09AAB89AB42C01D
:1007800020E03FEF4FE757E46DA57EA58FA598A920
:100790000E94BB07181664F520E030E040E251E407
:1007A00069A57AA58BA59CA50E94BF07DC01CB019A
:1007B000BC01CD010E944207DC01CB019AAB89ABA1
:1007C00012C088EC90E09CAB8BAB8BA99CA98C01F0
:1007D000C8010197F1F78C011CAB0BAB89A99AA951
:1007E00001979AAB89AB89A99AA9009751F717C0CD
:1007F0006DA57EA58FA598A90E944207DC01CB01BB
:100800009AAB89AB89A99AA99EAB8DAB8DA99EA9FC
:100810008C01F8013197F1F78F011EAB0DAB83E02E
:100820000E944E0553CD52CD82E00E944E0580E0DD
:1008300090E0AAE7B3E48FAB98AFA9AFBAAF20E0DE
:1008400030E04AEF54E46FA978AD89AD9AAD0E94CB
:10085000BF07DC01CB018BAF9CAFADAFBEAF20E0DB
:1008600030E040E85FE36BAD7CAD8DAD9EAD0E94A6
:100870003E07882344F421E030E0CE01CF96FC010E
:100880003183208362C020E03FEF4FE757E46BAD38
:100890007CAD8DAD9EAD0E94BB0718160CF047C015
:1008A00020E030E040E251E46FA978AD89AD9AAD27
:1008B0000E94BF07DC01CB01BC01CD010E944207B1
:1008C000DC01CB019E01215C3F4FF90191838083C4
:1008D00026C0CE018F5B9F4F28EC30E0FC013183B6
:1008E0002083CE018F5B9F4FFC01808191818C0121
:1008F000C8010197F1F78C01CE018F5B9F4FFC017E
:1009000011830083CE01CF96FC01808191819C01EF
:1009100021503109CE01CF96FC0131832083CE01D5
:10092000CF96FC0180819181009799F62BC06BAD29
:100930007CAD8DAD9EAD0E944207DC01CB019E01D6
:10094000215C3F4FF90191838083CE018D5B9F4FE6
:100950009E01215C3F4FF90120813181FC013183EF
:100960002083CE018D5B9F4FFC01808191818C01A2
:10097000C8010197F1F78C01CE018D5B9F4FFC01FF
:100980001183008382E00E944E05A0CCCF93DF93B9
:1009900000D0CDB7DEB7809101010E94FD0481E057
:1009A000898323C08981882F90E08F5F9E4FFC014F
:1009B00080818A838A81813149F08A81833131F053
:1009C0008A818D3719F08A818E3749F48DE70E942C
:1009D000FD049A8180E289270E94FD0403C08A8178
:1009E0000E94FD0489818F5F898389818531D0F2DE
:1009F0000F900F90DF91CF910895CF93DF931F92C7
:100A0000CDB7DEB78983000080EC90E0FC018081E7
:100A1000882F90E0807299270097B1F386EC90E0E0
:100A20002981FC0120830F90DF91CF910895CF930E
:100A3000DF9300D000D0CDB7DEB781E08093000116
:100A400019821A821B821C8218C089819A81AB810B
:100A5000BC810196A11DB11D89839A83AB83BC83A0
:100A600089819A81AB81BC81893A21E69207A105EF
:100A7000B10518F01092000106C080EC90E0FC0176
:100A80008081882314F786EC90E0FC0180810F9030
:100A90000F900F900F90DF91CF9108950F931F93B8
:100AA000CF93DF93CDB7DEB76E970FB6F894DEBF66
:100AB0000FBECDBF8E8F198205C185E290E025E281
:100AC00030E0F90120812062FC01208380E090E089
:100AD000A8E4B2E48A839B83AC83BD8320E030E04A
:100AE0004AEF54E46A817B818C819D810E94BF071B
:100AF000DC01CB018E839F83A887B98720E030E09B
:100B000040E85FE36E817F81888599850E943E077A
:100B100088232CF481E090E09B878A8742C020E004
:100B20003FEF4FE757E46E817F81888599850E946A
:100B3000BB07181664F520E030E040E251E46A811A
:100B40007B818C819D810E94BF07DC01CB01BC01B0
:100B5000CD010E944207DC01CB019B878A8712C02E
:100B600088EC90E09D878C878C859D858C01C801E1
:100B70000197F1F78C011D870C878A859B8501976A
:100B80009B878A878A859B85009751F717C06E815E
:100B90007F81888599850E944207DC01CB019B8774
:100BA0008A878A859B859F878E878E859F858C0106
:100BB000F8013197F1F78F011F870E8785E290E0EA
:100BC00025E230E0F90120812F7DFC01208380E0C7
:100BD00090E0A8E4B2E4888B998BAA8BBB8B20E0D1
:100BE00030E04AEF54E4688979898A899B890E94B8
:100BF000BF07DC01CB018C8B9D8BAE8BBF8B20E0C4
:100C000030E040E85FE36C897D898E899F890E948E
:100C10003E0788232CF481E090E0998F888F42C0B2
:100C200020E03FEF4FE757E46C897D898E899F89EB
:100C30000E94BB07181664F520E030E040E251E462
:100C4000688979898A899B890E94BF07DC01CB0169
:100C5000BC01CD010E944207DC01CB01998F888F36
:100C600012C088EC90E09B8F8A8F8A8D9B8D8C01BF
:100C7000C8010197F1F78C011B8F0A8F888D998D20
:100C80000197998F888F888D998D009751F717C09C
:100C90006C897D898E899F890E944207DC01CB0186
:100CA000998F888F888D998D9D8F8C8F8C8D9D8D40
:100CB0008C01F8013197F1F78F011D8F0C8F89811D
:100CC0008F5F898399818E8D981708F4F6CE6E9682
:100CD0000FB6F894DEBF0FBECDBFDF91CF911F914D
:100CE0000F910895CF93DF93CDB7DEB72B970FB653
:100CF000F894DEBF0FBECDBF6E837F838887998750
:100D00005B874A878FE590E0FC0180818B83F894B4
:100D10008FE390E02FE330E0F90120812270FC01A5
:100D2000208387E590E0FC018081882F90E081702E
:100D300099270097B1F78FE390E0FC018081882F1D
:100D400090E0827099270097B1F78E819F8123E010
:100D5000FC0120935700E8951A82198248C08A85C1
:100D60009B85FC018081882F90E09D838C838A8500
:100D70009B8501969B878A878A859B85FC0180815C
:100D8000882F90E0982F88272C813D81820F931F18
:100D90009D838C838A859B8501969B878A8787E5BF
:100DA00090E0FC018081882F90E081709927009766
:100DB000B1F78FE390E0FC018081882F90E0827092
:100DC00099270097B1F72E813F8189819A81820FFF
:100DD000931F41E02C813D81FC01090140935700A4
:100DE000E895112489819A8102969A838983898161
:100DF0009A818038910508F4B2CF87E590E0FC0134
:100E00008081882F90E0817099270097B1F78FE358
:100E100090E0FC018081882F90E0827099270097F4
:100E2000B1F78E819F8125E0FC0120935700E89562
:100E300087E590E0FC018081882F90E08170992700
:100E40000097B1F78FE390E0FC018081882F90E05C
:100E5000827099270097B1F781E180935700E89558
:100E60008FE590E02B81FC0120832B960FB6F89440
:100E7000DEBF0FBECDBFDF91CF9108952FD008F414
:100E800081E0089557D088F09F5790F0B92F9927A7
:100E9000B751A0F0D1F0660F771F881F991F1AF085
:100EA000BA95C9F712C0B13081F05ED0B1E00895B3
:100EB0005BC0672F782F8827B85F39F0B93FCCF334
:100EC000869577956795B395D9F73EF4909580957B
:100ED000709561957F4F8F4F9F4F0895990F000830
:100EE000550FAA0BE0E8FEEF16161706E807F907FC
:100EF000C0F012161306E407F50798F0621B730B97
:100F0000840B950B39F40A2661F0232B242B252B17
:100F100021F408950A2609F4A140A6958FEF811DBA
:100F2000811D089557FD9058440F551F59F05F3F9C
:100F300071F04795880F97FB991F61F09F3F79F0FB
:100F400087950895121613061406551FF2CF46957D
:100F5000F1DF08C0161617061806991FF1CF8695FF
:100F60007105610508940895E894BB2766277727E3
:100F7000CB0197F90895B2DF08F48FEF08950BD0F5
:100F800078C069D028F06ED018F0952309F05AC0C7
:100F90005FC01124EACFC6DFA0F3959FD1F3950F70
:100FA00050E0551F629FF001729FBB27F00DB11DED
:100FB000639FAA27F00DB11DAA1F649F6627B00D7D
:100FC000A11D661F829F2227B00DA11D621F739F66
:100FD000B00DA11D621F839FA00D611D221F749F74
:100FE0003327A00D611D231F849F600D211D822FBB
:100FF000762F6A2F11249F5750408AF0E1F0882302
:101000004AF0EE0FFF1FBB1F661F771F881F91500E
:101010005040A9F79E3F510570F014C0A6CF5F3F26
:10102000ECF3983EDCF3869577956795B795F79541
:10103000E7959F5FC1F7FE2B880F911D96958795C9
:1010400097F9089597F99F6780E870E060E0089548
:101050009FEF80EC089500240A94161617061806D0
:101060000906089500240A941216130614060506AC
:101070000895092E0394000C11F4882352F0BB0F3D
:1010800040F4BF2B11F460FF04C06F5F7F4F8F4FA0
:081090009F4F0895F894FFCF73
:10109800017E001110000102030405060708FFFE87
:0610A80000004F4B01CCDB
:00000001FF
