S0120000746865726D6F737461742E73726563C7
S11300000C9466000C949C0F0C94C90F0C948E00F5
S11300100C948E000C948E000C948E000C948E0024
S11300200C948E000C948E000C948E000C948E0014
S11300300C948E000C948E000C948E000C948E0004
S11300400C94F60F0C948E000C94E9110C9430125D
S11300500C948E000C948E000C948E000C948E00E4
S11300600C9455010C948E0000000000240027001D
S11300702A0000000000250028002B0000000000DA
S113008023002600290004040404040404040202D6
S11300900202020203030303030301020408102003
S11300A0408001020408102001020408102000000E
S11300B00007000201000003040600000000000025
S11300C00000470349083C0A4A0F9E1311241FBE2F
S11300D0CFEFD8E0DEBFCDBF12E0A0E0B1E0EAE6AA
S11300E0F3E302C005900D92AA39B107D9F727E0CE
S11300F0AAE9B2E001C01D92A535B207E1F710E00C
S1130100CCECD0E004C02297FE010E948E16C23CC3
S1130110D107C9F70E94EE130C94B3190C94000094
S1130120F999FECF72BD61BDF89A80B50895F99929
S1130130FECF1FBA72BD61BD40BD0FB6F894FA9AE6
S1130140F99A0FBE08951092080361E084E10E94B9
S1130150411161E085E10E944111E9EBF0E0808109
S11301608E7F808380818D7F808380E28093B8003E
S113017085E48093BC000895413268F590910803AA
S11301809111FCCF91E0909308039FEF90939D020F
S11301901092E202940F9093E102880F81608093A1
S11301A0070385EE8093BC00809108038130E1F35E
S11301B08091E202841710F44091E20223EE32E0CF
S11301C0FB01D9018A2F821B841718F48D91819326
S11301D0F9CF842F089580E008954132A8F59091D5
S11301E008039111FCCF92E0909308039FEF909342
S11301F09D021092E2024093E102FB0163EE72E081
S1130200DB019A2F961B941718F491919D93F9CFC3
S113021090E0880F991F8093070385EE8093BC00BC
S1130220222321F0809108038230E1F380919D0222
S11302308F3F61F080919D02803251F080919D0248
S1130240803341F483E0089581E0089580E00895C7
S113025082E0089584E00895613298F420910803BF
S1130260243089F46093BF02FC0181EC92E0DC014C
S11302702A2F281B261718F421912D93F9CF80E0FB
S1130280089581E0089582E0089585ED8093BC008F
S11302908091BC0084FDFCCF10920803089585EC86
S11302A08093BC001092080308951F920F920FB61A
S11302B00F9211242F933F934F935F936F937F93E8
S11302C08F939F93AF93BF93EF93FF938091B90064
S11302D0887F803609F495C068F5883209F45BC0DC
S11302E090F4803109F454C038F4882309F4EEC042
S11302F0883009F44DC0EEC0883109F44CC0803216
S113030009F45EC0E7C0803409F469C048F480335E
S113031009F456C0883309F0DDC080939D02A1C062
S1130320803509F450C0883509F45EC0883409F07A
S1130330D1C0CEC0883909F4BFC0A8F4883709F405
S113034060C038F4883609F45CC0803709F459C0B9
S1130350C1C0883809F4B0C0803909F458C0803865
S113036009F0B8C054C0803B09F47EC038F4803A28
S113037009F45FC0883A09F477C0ACC0803C09F442
S11303809FC0883C09F49CC0883B09F482C0A2C089
S11303908091070311C09091E2028091E1029817C5
S11303A008F096C0E091E20281E08E0F8093E202B1
S11303B0F0E0ED51FD4F80818093BB0085EC7DC062
S11303C080939D0285C0E091E20281E08E0F8093CC
S11303D0E2028091BB00F0E0ED51FD4F80839091EB
S11303E0E2028091E10265C0E091E20281E08E0FB9
S11303F08093E2028091BB00F0E0ED51FD4F8083D9
S113040067C083E08093080310929E02D7CF809147
S11304109E02803208F050C0E0919E0281E08E0F6F
S113042080939E028091BB00F0E0E156FD4F8083F3
S1130430C5CF80919E02803230F4E0919E02F0E0BC
S1130440E156FD4F10820E94450160919E0270E0CA
S1130450E0910303F09104038FE992E0099510926F
S11304609E020E944F0136C084E0809308031092DC
S1130470C0021092BF02E0910503F09106030995B2
S11304808091BF02811105C081E08093BF02109268
S1130490C102E091C00281E08E0F8093C002F0E0BF
S11304A0EF53FD4F80818093BB009091C0028091F7
S11304B0BF02981708F482CF85E88093BC000AC075
S11304C085EC8093BC001092080304C010929D0236
S11304D00E944501FF91EF91BF91AF919F918F9140
S11304E07F916F915F914F913F912F910F900FBE2C
S11304F00F901F9018958091390390E020913A0352
S1130500821B9109089520913A0380913903281799
S113051050F4E22FF0E0E55CFC4F808190E02F5F27
S113052020933A0308958FEF9FEF0895E0913A03E3
S113053080913903E81730F4F0E0E55CFC4F8081EA
S113054090E008958FEF9FEF08950895CF92DF9282
S1130550EF92FF920F931F93CF93DF937C01CB0114
S11305608A0120911503222389F0EB016B01C40E4B
S1130570D51ECC15DD0569F06991D701ED91FC918B
S11305800190F081E02DC7010995F3CF642F0E94FB
S11305902C01C801DF91CF911F910F91FF90EF9033
S11305A0DF90CF900895CF93DF931F92CDB7DEB73E
S11305B06983209115032223D1F020911603203260
S11305C040F021E030E0FC013383228380E090E0BE
S11305D015C080911703E82FF0E0E85EFC4F998185
S11305E090838F5F809317038093160305C061E0A7
S11305F0CE0101960E942C0181E090E00F90DF91E2
S1130600CF910895FC011382128248EE53E060E01A
S113061070E0448355836683778380E191E091831E
S11306208083089510923A031092390310921703AD
S1130630109216030C94A300862F413208F040E276
S11306406BE373E00E94BC0010923A038093390379
S113065008950C941C0381E0809315036093380380
S1130660109217031092160308950C942B0321E0A3
S11306704091160368E173E0809138030E94ED0015
S1130680109217031092160310921503089589E02F
S113069093E00C940203CF92DF92EF92FF920F93B8
S11306A01F93CF93DF93CDB7DEB72A970FB6F89495
S11306B0DEBF0FBECDBF8C016B017C0182E0E80E72
S11306C0F11CC7010E942E06C8010C960E94A907BE
S11306D0F801D182C082CE0101960E942E068AE0E2
S11306E0FE013196D70101900D928A95E1F7CE0172
S11306F001960E94A9078C819B81F80196878787C0
S11307008D819E81918B808B8F819885938B828B39
S11307108985848B2A960FB6F894DEBF0FBECDBFB1
S1130720DF91CF911F910F91FF90EF90DF90CF90C9
S11307300895EF92FF920F931F93CF93DF9300D00E
S1130740CDB7DEB77C0183E5898389E48A83870199
S1130750045F1F4FBE016F5F7F4FC8010E94B8073F
S113076060E0C8010E947907B801F7018081918196
S11307700E94D9070F900F90DF91CF911F910F9195
S1130780FF90EF9008950F931F93CF93DF93CDB70E
S1130790DEB763970FB6F894DEBF0FBECDBF8C01F2
S11307A0CE0101960E948A0760E0CE0101960E9464
S11307B07907BE016F5F7F4FF801808191810E94AC
S11307C0D90763960FB6F894DEBF0FBECDBFDF9195
S11307D0CF911F910F9108950F931F93CF93DF93A0
S11307E08C01EC01229668EC70E0F8018081918123
S11307F00E944D078823F1F0F801808191810E94C5
S1130800BE060E945E05883871F7F80180819181E7
S11308100E94BE06BE010E944606CE010E943E060C
S1130820882309F3CE010E943306CE010E942F06CD
S113083090E002C080E090E0DF91CF911F910F9192
S11308400895EF92FF920F931F93CF93DF9300D0FD
S1130850CDB7DEB78C0184E4898382E48A8378018E
S11308608CE0E80EF11CBE016F5F7F4FC7010E9450
S1130870B80761E0C7010E947907B701F8018081D8
S113088091810E94D90765E070E080E090E00E94C9
S1130890581060E070E0C8010E94EC0318161906B5
S11308A01CF48091000001C080E00F900F90DF9154
S11308B0CF911F910F91FF90EF9008950F931F9385
S11308C0CF93DF93CDB7DEB764970FB6F894DEBF4E
S11308D00FBECDBF162F60E470E089E093E00E9464
S11308E03503612F89E093E00E94D3026AE070E04F
S11308F080E090E00E94581089E093E00E94370362
S113090043E050E060E470E089E093E00E94290352
S113091010E089E093E00E947B0203972CF41436E4
S113092039F580E090E02CC01436D9F389E093E0E7
S11309300E94830200E010E0182F89E093E00E94F7
S11309408302080F191F0C7F1F930F938CEC91E007
S11309509F938F93CE0101969F938F930E94E216EB
S11309600F900F900F900F900F900F90C80108C038
S113097061E070E080E090E00E9458101F5FC9CFF2
S113098064960FB6F894DEBF0FBECDBFDF91CF9152
S11309901F910F91089565EE0E945E04BC0180E0F2
S11309A090E00E94291520E030E04AEF5AE30E94CB
S11309B0DF1520E030E040EC50E40E942714089555
S11309C063EE0E945E04BC0180E090E00E94291561
S11309D022E538EB4FE25BE30E94DF1526E636E6BC
S11309E04BE352E40E94271408958BE00895CF93BB
S11309F0DC011696CC911697ED91FC910280F3815F
S1130A00E02D0995C150C81B8C2FCF910895FC018E
S1130A108681845F0895FC0180858E5F0895FC01C2
S1130A20611104C00480F581E02D0DC0613029F40A
S1130A300480F581E02D818108950680F781E02D01
S1130A40E60FF11D329780810895FC01611102C007
S1130A5082850895613011F481850895623011F41E
S1130A6080850895633011F487810895643011F40A
S1130A7086850895653011F485850895663011F4EE
S1130A8084850895673011F483850895683011F4DE
S1130A9080890895693011F4878508956A3011F4C6
S1130AA0818908956B3011F4828908950480F58159
S1130AB0E02DE60FF11D3C9780810895FC018281B1
S1130AC00895FC018781089521E0FC01808581114E
S1130AD001C020E0822F0895FC0180850895FC0167
S1130AE0DB01828112968C931297878117968C93DF
S1130AF01797858115968C931597808518968C93F6
S1130B001897868116968C931697838113968C93E7
S1130B101397848114968C930895CF93DF93CDB764
S1130B20DEB728970FB6F894DEBF0FBECDBF20E224
S1130B3031E0FC013183208328E0FE013196DC01A1
S1130B401B9601900D922A95E1F728960FB6F8941A
S1130B50DEBF0FBECDBFDF91CF9108950F931F93DA
S1130B60CF93DF938C01EB01DC018D919C919983F0
S1130B708883C8010E946F05D801ED91FC918081A2
S1130B8090E0A0E0B0E0B82FAA27992788274181F8
S1130B9050E060E070E0BA0155274427840F951FA8
S1130BA0A61FB71F2381820F911DA11DB11D228194
S1130BB030E0322F2227820F931FA11DB11D898798
S1130BC09A87AB87BC87848190E0A0E0B0E0B82F1F
S1130BD0AA2799278827458150E060E070E0BA0190
S1130BE055274427840F951FA61FB71F2781820FFF
S1130BF0911DA11DB11D268130E0322F2227820FC5
S1130C00931FA11DB11D8D879E87AF87B88BDF9180
S1130C10CF911F910F910895CF93DF93DC0112962A
S1130C20CD91DC911397ED91FC910280F381E02D3D
S1130C300995FE01E80FF11DCF01DF91CF910895D1
S1130C400895DC01ED91FC9180810895FC012081DF
S1130C503181FB01318320830C946F050895FC01DD
S1130C60868184500895FC012681243021F08081FE
S1130C7091810496089580E090E00895DC01ED915F
S1130C80FC9181E09381911180E00895FC01208121
S1130C903181FB01318320830C946F05FC01808139
S1130CA091810895FC0117821086158212821382A5
S1130CB01482268130E0168280E090E08217930748
S1130CC03CF4A081B181A80FB91F1C920196F6CF04
S1130CD00895FC01128611860C945206FC011286BA
S1130CE01186148615861782108615820E969183B6
S1130CF08083E25FFD4F86E397E0918380830895CC
S1130D00825F9D4FFC01808191810C947912825FF6
S1130D109D4FDC018D919C91DC01ED91FC9104804F
S1130D20F581E02D099521E0892B09F420E0822F3B
S1130D300895825F9D4FDC018D919C91DC01ED91C2
S1130D40FC910680F781E02D09950895825F9D4FFF
S1130D50DC018D919C91DC01ED91FC910284F38581
S1130D60E02D0994825F9D4FDC018D919C91DC0103
S1130D70ED91FC910190F081E02D09940895DF92AA
S1130D80EF92FF920F931F93CF93DF93EC018F8128
S1130D90811103C08885882331F0CE010E94690641
S1130DA01A8619861C8652E0D52E01E063E0E62EF1
S1130DB074E0F72E10E2CE010E948706882309F41E
S1130DC064C0CE010E9499068B879A859923A1F06D
S1130DD08E3719F483E0888758C08D3769F4CE01C3
S1130DE00E948706882331F0CE010E94990681274C
S1130DF08B8702C00987DFCF8985882321F08B8503
S1130E0081278B8719864A85433020F08C859B8502
S1130E10890F8C87413071F040F0423079F04330D3
S1130E2089F48B858A83FA86C6CF8B858E3719F62B
S1130E300A87C1CF8B858B83DA86BDCF8B858C8364
S1130E40EA86B9CF242F30E08C8190E003962817EE
S1130E50390781F48C858F3F31F48B858D8381E054
S1130E608F83188602C081E0888744504E831A8697
S1130E701C860BC08B85E881F981E20FF31F349740
S1130E8080838A858F5F8A8796CFDF91CF911F9168
S1130E900F91FF90EF90DF900895CF92DF92EF9241
S1130EA0FF920F931F93CF93DF93EC018B0177FF96
S1130EB002C080E015C00E944A106B017C010E94B0
S1130EC04A106C197D09601771079CF7CE010E94C6
S1130ED0BF068F81811104C08885882381F3E9CFFF
S1130EE0DF91CF911F910F91FF90EF90DF90CF9002
S1130EF00895FC01638308950F931F93FC014083BD
S1130F0051836283738304831583268337831F91FC
S1130F100F910895CF93DF93EC0180E18A8381E000
S1130F208B835D834C832E8388E291E0998388834D
S1130F3088E0FB01DE01179601900D928A95E1F796
S1130F408EEF9FEF988B8F87198A1A8ADF91CF9142
S1130F500895FC0188E0828381E0838380E391E04B
S1130F6091838083158214821782168210860895D5
S1130F70FC017583648308951F93CF93DF93EC0181
S1130F80162F442379F083E8860F823020F0862FD1
S1130F908D7F813139F46DE7CE010E94B20660E2A3
S1130FA0612701C0612FCE01DF91CF911F910C9475
S1130FB0B206DF92EF92FF920F931F93CF93DF93CA
S1130FC08C01EB016EE70E94B206E881F981028090
S1130FD0F381E02DCE010995E82EE881F9810280A4
S1130FE0F381E02DCE010995F82E2E2D30E02E5FF1
S1130FF03F4F41E0632FC8010E94BC0762E06F0DC0
S113100041E0C8010E94BC0741E06A81C8010E9416
S1131010BC0741E06B81C8010E94BC07DA808B8168
S1131020D80EE12CF12CE881F9810280F381E02DC6
S1131030CE010995282F30E0E216F306D4F4E881B6
S1131040F9810190F081E02D6E2DCE01099541E0EA
S1131050682FC8010E94BC07E881F9810190F081E2
S1131060E02D6E2DCE010995D80E8FEFE81AF80AFF
S1131070DACF6D2D609541E0C8010E94BC07C8011C
S1131080DF91CF911F910F91FF90EF90DF900C941F
S1131090A60610925C0310925D0310925E031092F8
S11310A05F038FEF9FEFA0E0B0E080936003909325
S11310B06103A0936203B09363030895CF93DF9316
S11310C0EC0160EF71E08F5A9F4F0E94971660EF1A
S11310D071E0CE010196DF91CF910C949716CF93D6
S11310E0DF93EC0160E08BE00E941B1160E089E07B
S11310F00E941B1160E08AE00E941B1160E08BE0FB
S11311000E94411160E089E00E94411160E08AE0A0
S11311100E9441111882DF91CF910895FC018081D2
S11311200895DF92EF92FF920F931F93CF93DF9373
S11311307B01D42E61E08AE00E94411101E010E0BD
S1131140DD20E9F0CFEFCD0DC80102C0880F991F53
S1131150CA95E2F7EC01CE21DF2160E08AE00E942B
S11311604111CD2B11F061E001C060E08BE00E94E1
S1131170411161E08AE00E944111DA94E1CFDF91EC
S1131180CF911F910F91FF90EF90DF900895CF932F
S1131190DF93EC0160E089E00E94411182E08A95CE
S11311A0F1F74AE061E070E0CE010E94910880EA24
S11311B09FE00197F1F761E089E00E94411182E02C
S11311C08A95F1F7DF91CF910895EF92FF920F93F3
S11311D01F93CF93DF937C018B01423091F030F465
S11311E0413009F049C0C0E0D0E00DC0433031F0D7
S11311F0443009F041C0C4E5D0E005C0C4E1D0E00A
S113120002C0C0E4D0E060E089E00E944111BE0168
S113121060684AE0C7010E94910861E089E00E9489
S1131220411160E089E00E944111C0E08C2F90E000
S1131230F80101900020E9F73197E01BF10B8E17BC
S11312409F0780F4F801E80FF91F608170E0C11175
S113125003C072604AE001C048E0C7010E949108DF
S1131260CF5FE4CF61E089E0DF91CF911F910F91CF
S1131270FF90EF900C944111DF91CF911F910F914A
S1131280FF90EF9008950F931F93CF93DF9300D0B7
S1131290CDB7DEB78C01FC0180818823D1F184E6CF
S11312A093E069837A830E94C70884E693E00E94EE
S11312B0C7080F5A1F4F69817A81C8010E94971687
S11312C064E371E0C8010E94921641E00097A9F01E
S11312D011E0140FBC0184E693E00E94E50862E388
S11312E070E080E090E00E94581064E371E080E0D8
S11312F090E00E949216412FE9CF68EC70E080E004
S113130090E00F900F90DF91CF911F910F910C946B
S113131058100F900F90DF91CF911F910F91089566
S11313200F931F93CF93DF93EC018C010F5F1F4F3B
S1131330C8010E949716B801CE01DF91CF911F9189
S11313400F910C944309CF93DF93EC018CE18CBD96
S113135060E08BE00E94411160E089E00E9441114D
S113136060E08AE00E94411160E08CE00E9441113B
S113137061E08BE00E941B1161E089E00E941B1177
S113138061E08AE00E941B1160E08CE00E941B1166
S113139060E08CE00E94411161E089E00E9441110B
S11313A061E08AE00E94411180EA9FE00197F1F731
S11313B060E089E00E94411182E08A95F1F74AE0F9
S11313C068E370E0CE010E94910880EB94E00197FD
S11313D0F1F74AE068E070E0CE010E94910880EBEA
S11313E094E00197F1F74AE061E070E0CE010E94D9
S11313F0910880EA9FE00197F1F74AE066E070E027
S1131400CE010E94910880EB94E00197F1F74AE045
S113141062E070E0CE010E94910880EB94E00197B5
S1131420F1F74AE06CE070E0CE010E94910880EB95
S113143094E00197F1F74AE060E870E0CE010E9481
S1131440910880EB94E00197F1F761E089E00E9454
S1131450411182E08A95F1F781E0888389818823AC
S113146041F0BE016F5F7F4FCE01DF91CF910C94AD
S11314704309DF91CF91089584E693E00C945E08CC
S113148083B78E7F83BF08958EB383FB882780F94B
S11314908093070414BE88E10FB6F894809360002B
S11314A0109260000FBE60E083E00E941B1160E0B8
S11314B083E00E94411160E082E00E941B1161E020
S11314C082E00E94411160E086E00E94411161E0E7
S11314D086E00E941B1161E087E00E94411161E0F7
S11314E087E00E941B1160E088E00E94411161E0E6
S11314F088E00E941B1160E08DE00E94411161E0D0
S11315008DE00E941B1183E00E94F61060E087E0EA
S11315100E94411164EF71E080E090E00E94581055
S113152084E693E00E94A30966E371E084E693E015
S11315300E94900989E093E00E94120340E056E97A
S113154060E070E081E994E00E94800660E070E071
S11315508CE992E00E949000809308049091070423
S1131560992351F041E0480F4093080460E070E093
S11315708CE992E00C94970008954F925F926F92D9
S11315807F928F929F92AF92BF92CF92DF92EF920F
S1131590FF920F931F93CF93DF93CDB7DEB72897B6
S11315A00FB6F894DEBF0FBECDBF4B015C0129011D
S11315B03A01B80180E090E00E94291526E636E65B
S11315C040E653E40E9490146B017C012AE939E956
S11315D045E850E40E94DB1518168CF020E030E05A
S11315E040E650E4C701B6010E948C1487FF0FC087
S11315F0C12CD12C80E6E82E80E4F82E08C09AE9AC
S1131600C92E99E9D92E95E8E92E90E4F92EC30163
S1131610B2010E94F81469837A838B839C83C50189
S1131620B4010E94F8146D837E838F83988720E031
S113163030E040E650E4C701B6010E94271420EDD3
S11316403CEC4CE25FE30E94901420E030E048EC74
S113165052E40E94DF150E94F8147F936F9329814E
S11316603A81B901882777FD8095982F0E942B1520
S11316709B01AC01C301B2010E9427149F7720E0B3
S113168030E048EC52E40E94DF150E94F8147F9386
S11316906F933A813F9389818F93ED81FE81BF01DE
S11316A0882777FD8095982F0E942B159B01AC010C
S11316B0C501B4010E9427149F7720E030E048EC74
S11316C052E40E94DF150E94F8147F936F93FE8109
S11316D0FF932D812F9388E591E09F938F930BE0E7
S11316E014E01F930F930E94E216F801019000206A
S11316F0E9F79F01215031092B5034400FB6F8947B
S1131700DEBF0FBECDBFA80164E774E08CE794E0B0
S113171028960FB6F894DEBF0FBECDBFDF91CF91F0
S11317201F910F91FF90EF90DF90CF90BF90AF90FB
S11317309F908F907F906F905F904F900C94C30315
S1131740CF93DF938091060490E091958195910960
S11317509F938F93809108041F928F9380915E04CE
S11317601F928F9380915F041F928F9380916004E6
S11317701F928F9387E991E09F938F93CBE0D4E0FE
S1131780DF93CF930E94E216FE0101900020E9F757
S11317909F01215031092B5034408DB79EB70E96CE
S11317A00FB6F8949EBF0FBE8DBFAE0164E774E020
S11317B08CE794E0DF91CF910C94C303CF93DF9334
S11317C09F938F938FEC91E09F938F93CBE0D4E022
S11317D0DF93CF930E94E216FE0101900020E9F707
S11317E09F01215031092B5034400F900F900F90DE
S11317F00F900F900F90AE0164E774E08CE794E0D3
S1131800DF91CF910C94C303CF93DF9361E088E021
S11318100E94411161E070E080E090E00E94581065
S113182080E00E94F910EC0160E088E00E94411120
S1131830CE01DF91CF9108951F93CF93DF93182F9B
S1131840C0E0D0E0112319F024EF31E002C022E31C
S113185030E0C217D30790F461E086E00E944111A2
S113186080E991E00E94B11060E086E00E9441119D
S113187080E991E00E94B1102196E4CFDF91CF91ED
S11318801F91089580915D0481110AC081E00E9436
S1131890F91021E0843F91400CF020E020935D0496
S11318A082E00E94F91021E0843F91400CF020E096
S11318B020935C0483E00E94F91021E0843F91406E
S11318C00CF020E020935B04211104C080915C049F
S11318D0882319F080E00E94890F80915C04909124
S11318E05D04892B21F480915B04882331F083B754
S11318F08E7F83BF80E00C941C0C08951F93CF93BC
S1131900DF93EC010E94F704182FCE010E940C060D
S1131910BC01412F50E08BE094E00E94AC16CE0154
S11319200E94F704E82FF0E0E55FFB4F1082EBE044
S1131930F4E001900020E9F73197EB50F440389738
S1131940E8F04CE050E06BE074E084EE91E00E943B
S11319509E16892B31F481E00E941C0C87E194E0EF
S11319600FC048E050E06BE074E081EF91E00E942A
S11319709E16892B19F483E194E002C080E090E084
S1131980DF91CF911F9108953F924F925F926F9292
S11319907F928F929F92AF92BF92CF92DF92EF92FB
S11319A0FF920F931F93CF93DF93CDB7DEB7639767
S11319B00FB6F894DEBF0FBECDBF312C3CE6E32E4C
S11319C037E0F32E4BE2642E42E0742E0BE014E079
S11319D055E1C52E52E0D52E6AEFA62E61E0B62E53
S11319E079E0572EE0E28E2EE1E09E2EF8E04F2EB5
S11319F0B70181E994E00E944D07A89581E994E03C
S1131A000E94BE060E946105882309F482C081E910
S1131A1094E00E94BE060E945E05803949F581E982
S1131A2094E00E94BE0663E674E00E94AE05E3E61D
S1131A30F4E0DE011396852D01900D928A95E1F76D
S1131A409A828982ECE6F4E0DE011C96842D0190F2
S1131A500D928A95E1F7CE0101960E947E0C0097C3
S1131A6009F483C0BC0184E693E00E9490097DC020
S1131A7081E994E00E94BE060E945E058A38B1F4B2
S1131A80CE0101960E94200681E994E00E94BE06E0
S1131A90BE016F5F7F4F0E942606CE0101960E9411
S1131AA021061F928F93BF92AF9222C081E994E0E6
S1131AB00E94BE060E945E058B3809F499CF81E925
S1131AC094E00E94BE060E945E05883809F490CF17
S1131AD081E994E00E94BE060E944E0681E994E0EA
S1131AE00E94BE060E945E051F928F93DF92CF92E2
S1131AF01F930F930E94E2166BE074E084E693E078
S1131B000E9490096CE271E080E090E00E9458101D
S1131B1025C081E994E00E94BE060E9464058823E2
S1131B2051F180915F048F5F80935F0481E994E0B9
S1131B300E94BE060E946C051F928F937F926F9243
S1131B401F930F930E94E2166BE074E084E693E027
S1131B500E94900983E694E00E9452060F900F9031
S1131B600F900F900F900F9043CF3324339424E6BB
S1131B70E22EF12C3DCF311017C080910504811164
S1131B8004C081E0809305040FC080915E048F5FE0
S1131B9080935E0469E472E084E693E00E94900915
S1131BA083E694E00E945206832D63960FB6F89460
S1131BB0DEBF0FBECDBFDF91CF911F910F91FF907C
S1131BC0EF90DF90CF90BF90AF909F908F907F90D9
S1131BD06F905F904F903F9008958F929F92AF9235
S1131BE0BF92CF92DF92EF92FF920F931F9380E008
S1131BF00E94890F81E00E94890F29E288E190E028
S1131C000FB6F894A895809360000FBE20936000EF
S1131C10A89520915C0430915B0480915D04822B33
S1131C2011F43323D9F082E090E090930A01809379
S1131C300901222331F08091090490910A0401964C
S1131C4007C03323D9F18091090490910A040197C4
S1131C5090930A0480930904311102C0222371F184
S1131C608091090490910A049C0197FF04C02227E3
S1131C703327281B390B97FD03C08DE692E002C081
S1131C8080E792E03F932F939F938F9385E792E0B1
S1131C909F938F938BE094E09F938F930E94E2161F
S1131CA06BE074E084E693E00E9490098DB79EB7E0
S1131CB008960FB6F8949EBF0FBE8DBF80910901A0
S1131CC090910A01181619060CF0D4C084E693E02A
S1131CD00E948E088111CEC060E087E00E9441110D
S1131CE064E670E080E090E00E94581084E693E09F
S1131CF00E94A3098091090190910A0197FD05C0F2
S1131D00019790930A0180930901A89583E00E94AA
S1131D109511892B09F07EC00E94A00BA89568EC50
S1131D2070E081E994E00E944D0781E994E00E940B
S1131D30BE060E9461058111109205048091090478
S1131D4090910A04009769F00E94DE0BA895109206
S1131D500A041092090465E070E080E090E00E94BB
S1131D6058100E94040C8C018BE593E00E94E0045F
S1131D706B017C018BE593E00E94CB044B015C0179
S1131D80A89520E030E044E352ECC701B6010E947C
S1131D90DB15181694F420E030E040E85FEBC50151
S1131DA0B4010E94DB15181644F4A5019401C7017F
S1131DB0B6010E94BD0AA89505C0809160048F5F9A
S1131DC08093600465E070E080E090E00E94581029
S1131DD00E94C40CA8958823E9F065E070E080E0D7
S1131DE090E00E9458108CE794E00E9421048093B4
S1131DF00604A89565E070E080E090E00E94581029
S1131E008CE794E00E94990365E070E080E090E044
S1131E100E94581010925D0410925C0410925B04AE
S1131E20A89588E10FB6F894809360001092600042
S1131E300FBE42E050E062E47CE080E00E94660F66
S1131E4042E050E060E47AE081E00E94660F83B7EC
S1131E50817F846083BF83B7816083BF88951F912E
S1131E600F91FF90EF90DF90CF90BF90AF909F9035
S1131E708F9008958091090190910A01892B09F0AE
S1131E8039CF84E693E00E946F0861E087E00E9406
S1131E90411130CF0F931F9381E994E00E946E06A5
S1131EA061E974E08CE794E00E944B0300E010E0E9
S1131EB0980140E050E0BA0184E794E00E947C0776
S1131EC081E694E01F910F910C948D05823000F50A
S1131ED0E82FF0E0EE0FFF1FEF55F94F7183608399
S1131EE0882319F08130A1F408C0809169008C7FA7
S1131EF0842B80936900E89A089580916900440FC7
S1131F00551F440F551F837F842B80936900E99AE2
S1131F100895823080F4882319F0813021F402C0BE
S1131F20E89801C0E998E82FF0E0EE0FFF1FEF55A5
S1131F30F94F1182108208951F920F920FB60F92DB
S1131F4011242F933F934F935F936F937F938F93BA
S1131F509F93AF93BF93EF93FF938091A1069091CA
S1131F60A206892B29F0E091A106F091A206099519
S1131F70FF91EF91BF91AF919F918F917F916F915D
S1131F805F914F913F912F910F900FBE0F901F9033
S1131F9018951F920F920FB60F9211242F933F930F
S1131FA04F935F936F937F938F939F93AF93BF935D
S1131FB0EF93FF938091A3069091A406892B29F0B7
S1131FC0E091A306F091A4060995FF91EF91BF91CA
S1131FD0AF919F918F917F916F915F914F913F91BD
S1131FE02F910F900FBE0F901F9018951F920F9274
S1131FF00FB60F9211242F933F934F935F936F93D8
S11320007F938F939F93AF93BF932091A9063091B1
S1132010AA064091AB065091AC067091AD06DA0168
S1132020C9010296A11DB11D672F6A5F6D3730F09B
S11320306D57DA01C9010396A11DB11D6093AD0668
S11320408093A9069093AA06A093AB06B093AC061E
S11320508091A5069091A606A091A706B091A80626
S11320600196A11DB11D8093A5069093A606A09389
S1132070A706B093A806BF91AF919F918F917F91CE
S11320806F915F914F913F912F910F900FBE0F90E1
S11320901F9018958FB7F8942091A9063091AA063D
S11320A04091AB065091AC068FBFB901CA010895A7
S11320B09B01AC017FB7F8948091A5069091A60688
S11320C0A091A706B091A80666B5A89B05C06F3F6E
S11320D019F00196A11DB11D7FBFBA2FA92F982F0A
S11320E08827860F911DA11DB11D63E0880F991FDC
S11320F0AA1FBB1F6A95D1F7BC012DC0FFB7F89486
S11321008091A5069091A606A091A706B091A80675
S1132110E6B5A89B05C0EF3F19F00196A11DB11DBE
S1132120FFBFBA2FA92F982F88278E0F911DA11DAD
S1132130B11DE3E0880F991FAA1FBB1FEA95D1F7D1
S1132140861B970B885E9340C8F221503040404074
S1132150504068517C4F211531054105510571F6F8
S11321600895019739F0019729F0880F991F019775
S11321700197F1F70895789484B5826084BD84B59D
S1132180816084BD85B5826085BD85B5816085BD6E
S1132190EEE6F0E0808181608083E1E8F0E0108287
S11321A0808182608083808181608083E0E8F0E0C8
S11321B0808181608083E1EBF0E0808184608083B2
S11321C0E0EBF0E0808181608083EAE7F0E08081E9
S11321D08460808380818260808380818160808349
S11321E08081806880831092C100089580930B01E0
S11321F00895982F8E3008F09E50977080910B01AF
S11322008295880F880F807C892B80937C00809135
S11322107A00806480937A0080917A0086FDFCCFF6
S11322202091780040917900942F80E030E0282BB1
S1132230392BC9010895482F50E0CA0186569F4F93
S1132240FC0124914A575F4FFA0184918823C1F01D
S1132250E82FF0E0EE0FFF1FE859FF4FA591B4916E
S1132260662341F49FB7F8948C91209582238C9334
S11322709FBF08959FB7F8948C91822B8C939FBF36
S11322800895482F50E0CA0182559F4FFC012491C4
S1132290CA0186569F4FFC0194914A575F4FFA0139
S11322A03491332309F440C0222351F1233071F0D7
S11322B0243028F42130A1F0223011F514C0263046
S11322C0B1F02730C1F02430D9F404C080918000EB
S11322D08F7703C0809180008F7D8093800010C031
S11322E084B58F7702C084B58F7D84BD09C0809189
S11322F0B0008F7703C08091B0008F7D8093B000D1
S1132300E32FF0E0EE0FFF1FEE58FF4FA591B491BD
S11323102FB7F894662321F48C919095892302C0F9
S11323208C91892B8C932FBF0895682F70E0CB017B
S113233082559F4FFC012491CB0186569F4FFC018F
S113234044916A577F4FFB019491992319F420E03B
S113235030E03CC0222351F1233071F0243028F4C2
S11323602130A1F0223011F514C02630B1F027300D
S1132370C1F02430D9F404C0809180008F7703C069
S1132380809180008F7D8093800010C084B58F770A
S113239002C084B58F7D84BD09C08091B0008F7761
S11323A003C08091B0008F7D8093B000892F90E0AE
S11323B0880F991F84589F4FFC01A591B4918C916B
S11323C020E030E0842311F021E030E0C9010895D9
S11323D008951F920F920FB60F9211242F933F93DB
S11323E04F938F939F93EF93FF934091C600209157
S11323F0EE063091EF062F5F3F4F2F7330708091C0
S1132400F0069091F1062817390759F0E091EE068D
S1132410F091EF06E255F94F40833093EF06209395
S1132420EE06FF91EF919F918F914F913F912F91E4
S11324300F900FBE0F901F901895E0914207F091F6
S11324404307E05CFF4F8191919120813181821B90
S1132450930B8F739070892B11F00E94E8110895EB
S11324601F920F920FB60F9211242F933F934F9305
S11324705F936F937F938F939F93AF93BF93EF93E8
S1132480FF93209132073091330780913407909164
S113249035072817390731F48091C1008F7D809367
S11324A0C10016C0E0913407F0913507EE50F94FA2
S11324B040818091340790913507019660E470E083
S11324C00E94421690933507809334074093C600C8
S11324D0FF91EF91BF91AF919F918F917F916F91F8
S11324E05F914F913F912F910F900FBE0F901F90CE
S11324F01895AF92BF92DF92EF92FF920F931F93C2
S1132500CF93DF93EC017A018B01DD24D39491E026
S1132510A92EB12CEC89FD89DD2069F0C5010E8C52
S113252002C0880F991F0A94E2F7808360E874E878
S11325308EE190E005C0108260E472E48FE090E0E8
S1132540A80197010E945616215030404040504047
S1132550569547953795279580E12030380720F028
S1132560DD2011F0DD24D6CFE889F9893083EA89AA
S1132570FB892083EE89FF89408121E030E0C90195
S11325800A8C02C0880F991F0A94E2F7482B4083F3
S1132590EE89FF894081C9010B8C02C0880F991F05
S11325A00A94E2F7482B4083EE89FF894081C901F0
S11325B00C8C02C0880F991F0A94E2F7482B4083C1
S11325C0EE89FF8980810D8C02C0220F331F0A948B
S11325D0E2F7209528232083DF91CF911F910F915B
S11325E0FF90EF90DF90BF90AF900895DC011C96B0
S11325F0ED91FC911D97E05CFF4F21913191808119
S11326009181281B390B2F733070C9010895DC01A7
S11326101C96ED91FC911D97E05CFF4F2081318168
S1132620E054F040DF01AE5BBF4F8D919C91119758
S11326302817390719F42FEF3FEF07C08D919C91AC
S1132640E80FF91F8081282F30E0C9010895DC01CB
S11326501C96ED91FC911D97E05CFF4F2081318128
S1132660E054F040DF01AE5BBF4F8D919C91119718
S11326702817390719F42FEF3FEF10C08D919C9163
S11326801197E80FF91F20818D919C911197019664
S11326908F73907011969C938E9330E0C9010895C6
S11326A0FC0186859785DC01A05CBF4FFC01EE5BD5
S11326B0FF4F2D913C911197808191812817390703
S11326C0C1F70895CF93DF93EC01462FEE85FF8584
S11326D0E05CFF4F80819181E054F040019660E41A
S11326E070E00E9442169C01DF01AE5BBF4F8D91EA
S11326F09C91119728173907D1F3E05CFF4F808133
S11327009181E054F040E80FF91F4083EE85FF8586
S1132710E05CFF4F31832083EE89FF89208181E0D3
S113272090E00D8C02C0880F991F0A94E2F7282BC1
S1132730208381E090E0DF91CF91089510923907D2
S11327401092380788EE93E0A0E0B0E080933A0757
S113275090933B07A0933C07B0933D078EE892E02B
S113276090933707809336078EEA96E09093430759
S11327708093420782EF96E0909345078093440745
S113278085EC90E0909347078093460784EC90E0B3
S1132790909349078093480780EC90E090934B070F
S11327A080934A0781EC90E090934D0780934C0707
S11327B086EC90E090934F0780934E0784E08093DB
S11327C0500783E08093510787E08093520785E0A8
S11327D08093530781E0809354070895CF93DF9348
S11327E00E94BB100E94440ACDE1D2E10E94ED0D8B
S11327F02097E1F30E941D12F9CFCF92DF92EF925E
S1132800FF920F931F93CF93DF937C016B018A0197
S1132810C0E0D0E00FC0D6016D916D01D701ED91FC
S1132820FC910190F081E02DC7010995C80FD91FD3
S1132830015010400115110571F7CE01DF91CF91C0
S11328401F910F91FF90EF90DF90CF900895505813
S1132850BB27AA270ED075C166D130F06BD120F00A
S113286031F49F3F11F41EF45BC10EF4E095E7FBD5
S113287051C1E92F77D180F3BA1762077307840730
S1132880950718F071F49EF58FC10EF4E0950B2EA8
S1132890BA2FA02D0B01B90190010C01CA01A001AE
S11328A01124FF27591B99F0593F50F4503E68F109
S11328B01A16F040A22F232F342F4427585FF3CF4A
S11328C0469537952795A795F0405395C9F77EF41B
S11328D01F16BA0B620B730B840BBAF09150A1F064
S11328E0FF0FBB1F661F771F881FC2F70EC0BA0FEA
S11328F0621F731F841F48F4879577956795B79572
S1132900F7959E3F08F0B3CF9395880F08F0992769
S1132910EE0F979587950895D9D008F481E008952E
S11329200CD00FC107D140F0FED030F021F45F3F4E
S113293019F0F0C0511139C1F3C014D198F399239F
S1132940C9F35523B1F3951B550BBB27AA2762176F
S11329507307840738F09F5F5F4F220F331F441FB4
S1132960AA1FA9F333D00E2E3AF0E0E830D09150EC
S11329705040E695001CCAF729D0FE2F27D0660FD9
S1132980771F881FBB1F261737074807AB07B0E818
S113299009F0BB0B802DBF01FF2793585F4F2AF02E
S11329A09E3F510568F0B6C000C15F3FECF3983E0E
S11329B0DCF3869577956795B795F7959F5FC9F78B
S11329C0880F911D9695879597F90895E1E0660F14
S11329D0771F881FBB1F621773078407BA0720F08D
S11329E0621B730B840BBA0BEE1F88F7E0950895F6
S11329F004D06894B111D9C00895BCD088F09F5711
S1132A0090F0B92F9927B751A0F0D1F0660F771F36
S1132A10881F991F1AF0BA95C9F712C0B13081F016
S1132A20C3D0B1E00895C0C0672F782F8827B85F5E
S1132A3039F0B93FCCF3869577956795B395D9F777
S1132A403EF490958095709561957F4F8F4F9F4F81
S1132A500895E89409C097FB3EF49095809570958D
S1132A6061957F4F8F4F9F4F9923A9F0F92F96E9D6
S1132A70BB279395F695879577956795B795F1114B
S1132A80F8CFFAF4BB0F11F460FF1BC06F5F7F4FE8
S1132A908F4F9F4F16C0882311F096E911C07723FA
S1132AA021F09EE8872F762F05C0662371F096E803
S1132AB0862F70E060E02AF09A95660F771F881FD2
S1132AC0DAF7880F9695879597F90895990F000876
S1132AD0550FAA0BE0E8FEEF16161706E807F907EC
S1132AE0C0F012161306E407F50798F0621B730B87
S1132AF0840B950B39F40A2661F0232B242B252B08
S1132B0021F408950A2609F4A140A6958FEF811DAA
S1132B10811D089597F99F6780E870E060E008954B
S1132B209FEF80EC089500240A94161617061806E1
S1132B300906089500240A941216130614060506BD
S1132B400895092E0394000C11F4882352F0BB0F4E
S1132B5040F4BF2B11F460FF04C06F5F7F4F8F4FB1
S1132B609F4F089557FD9058440F551F59F05F3FEC
S1132B7071F04795880F97FB991F61F09F3F79F09B
S1132B8087950895121613061406551FF2CF46951D
S1132B90F1DF08C0161617061806991FF1CF86959F
S1132BA07105610508940895E894BB276627772783
S1132BB0CB0197F908958ADF08F48FEF08950BD0BD
S1132BC0C0CFB1DF28F0B6DF18F0952309F0A2CF0B
S1132BD0A7CF1124EACFC6DFA0F3959FD1F3950FB9
S1132BE050E0551F629FF001729FBB27F00DB11D8D
S1132BF0639FAA27F00DB11DAA1F649F6627B00D1D
S1132C00A11D661F829F2227B00DA11D621F739F05
S1132C10B00DA11D621F839FA00D611D221F749F13
S1132C203327A00D611D231F849F600D211D822F5A
S1132C30762F6A2F11249F5750408AF0E1F08823A1
S1132C404AF0EE0FFF1FBB1F661F771F881F9150AE
S1132C505040A9F79E3F510570F05CCFA6CF5F3F6F
S1132C60ECF3983EDCF3869577956795B795F795E1
S1132C70E7959F5FC1F7FE2B880F911D9695879569
S1132C8097F9089597FB072E16F4009407D077FD63
S1132C9009D00E94781607FC05D03EF490958195E2
S1132CA09F4F0895709561957F4F0895A1E21A2E64
S1132CB0AA1BBB1BFD010DC0AA1FBB1FEE1FFF1FDC
S1132CC0A217B307E407F50720F0A21BB30BE40B2C
S1132CD0F50B661F771F881F991F1A9469F7609573
S1132CE07095809590959B01AC01BD01CF0108952D
S1132CF0AA1BBB1B51E107C0AA1FBB1FA617B7071E
S1132D0010F0A61BB70B881F991F5A95A9F7809539
S1132D109095BC01CD010895EE0FFF1F0590F4912D
S1132D20E02D09944AE952E00E94BB160895FB0184
S1132D30DC0101900D920020E1F70895FB01DC0114
S1132D404150504030F08D910190801919F40020C9
S1132D50B9F7881B990B0895FB01DC0141505040E1
S1132D6048F001900D920020C9F701C01D92415016
S1132D705040E0F70895FA01A191B081009719F449
S1132D801097E1F0CD01DC01CD010D90002011F48C
S1132D90C00113C0FB012191222319F02015D9F79A
S1132DA0F3CFFB012191201519F41E92119606C050
S1132DB02223C1F70D900020A1F7D001FA01A193BD
S1132DC0B0830895AEE0B0E0E8EEF6E10C948A1921
S1132DD00D891E8986E08C831A8309838FEF9FE710
S1132DE09E838D83AE01475E5F4F6F89788DCE01E0
S1132DF001960E940417EF81F885E00FF11F1082FD
S1132E002E96E4E00C94A619ACE0B0E0EAE0F7E119
S1132E100C947C197C016B018A01FC0117821682D7
S1132E20838181FFBDC1CE0101964C01F7019381DD
S1132E30F60193FD859193FF81916F01882309F435
S1132E40ABC1853239F493FD859193FF81916F0174
S1132E50853229F4B70190E00E94EC18E7CF512C99
S1132E60312C20E02032A0F48B3269F030F480322F
S1132E7059F0833269F420612CC08D3239F08033EB
S1132E8039F4216026C02260246023C0286021C058
S1132E9027FD27C030ED380F3A3078F426FF06C0FE
S1132EA0FAE05F9E300D1124532E13C08AE0389E41
S1132EB0300D1124332E20620CC08E3221F426FDF5
S1132EC06BC1206406C08C3611F4206802C08836B9
S1132ED041F4F60193FD859193FF81916F01811176
S1132EE0C1CF982F9F7D9554933028F40C5F1F4FCA
S1132EF0FFE3F9830DC0833631F0833771F08335F6
S1132F0009F05BC022C0F801808189830E5F1F4FE6
S1132F1044244394512C540115C03801F2E06F0E3F
S1132F20711CF801A080B18026FF03C0652D70E0FC
S1132F3002C06FEF7FEFC5012C870E94E1182C01BE
S1132F4083012C852F77222E17C03801F2E06F0EF3
S1132F50711CF801A080B18026FF03C0652D70E0CC
S1132F6002C06FEF7FEFC5012C870E94D6182C0199
S1132F702C852068222E830123FC1BC0832D90E026
S1132F8048165906B0F4B70180E290E00E94EC18AC
S1132F903A94F4CFF50127FC859127FE81915F01D6
S1132FA0B70190E00E94EC1831103A94F1E04F1A06
S1132FB051084114510471F7E5C0843611F0893683
S1132FC039F5F80127FF07C06081718182819381FF
S1132FD00C5F1F4F08C060817181882777FD809541
S1132FE0982F0E5F1F4F2F76B22E97FF09C0909532
S1132FF08095709561957F4F8F4F9F4F2068B22EBB
S11330002AE030E0A4010E941E19A82EA81844C08A
S1133010853729F42F7EB22E2AE030E025C0F22F26
S1133020F97FBF2E8F36C1F018F4883579F0B4C01B
S1133030803719F0883721F0AFC02F2F2061B22ECE
S1133040B4FE0DC08B2D8460B82E09C024FF0AC0C5
S11330509F2F9660B92E06C028E030E005C020E11D
S113306030E002C020E132E0F801B7FE07C0608121
S11330707181828193810C5F1F4F06C060817181D1
S113308080E090E00E5F1F4FA4010E941E19A82E3D
S1133090A818FB2DFF77BF2EB6FE0BC02B2D2E7F5D
S11330A0A51450F4B4FE0AC0B2FC08C02B2D2E7E29
S11330B005C07A2C2B2D03C07A2C01C0752C24FF5B
S11330C00DC0FE01EA0DF11D8081803311F4297ECB
S11330D009C022FF06C07394739404C0822F8678BB
S11330E009F0739423FD13C020FF06C05A2C7314F7
S11330F018F4530C5718732C731468F4B70180E256
S113310090E02C870E94EC1873942C85F5CF7314EF
S113311010F4371801C0312C24FF12C0B70180E32A
S113312090E02C870E94EC182C8522FF17C021FF09
S113313003C088E590E002C088E790E0B7010CC0C6
S1133140822F867859F021FD02C080E201C08BE213
S113315027FD8DE2B70190E00E94EC18A51438F425
S1133160B70180E390E00E94EC185A94F7CFAA9438
S1133170F401EA0DF11D8081B70190E00E94EC1882
S1133180A110F5CF332009F451CEB70180E290E0CD
S11331900E94EC183A94F6CFF7018681978102C019
S11331A08FEF9FEF2C96E2E10C949819FC010590A7
S11331B0615070400110D8F7809590958E0F9F1F35
S11331C00895FC016150704001900110D8F780957A
S11331D090958E0F9F1F08950F931F93CF93DF93A6
S11331E0182F092FEB018B8181FD03C08FEF9FEF17
S11331F020C082FF10C04E815F812C813D81421727
S113320053077CF4E881F9819F012F5F3F4F398395
S11332102883108306C0E885F985812F0995892BB9
S113322029F72E813F812F5F3F4F3F832E83812FCC
S1133230902FDF91CF911F910F910895FA01AA2742
S1133240283051F1203181F1E8946F936E7F6E5FE5
S11332507F4F8F4F9F4FAF4FB1E03ED0B4E03CD093
S1133260670F781F891F9A1FA11D680F791F8A1F76
S1133270911DA11D6A0F711D811D911DA11D20D0DD
S113328009F468943F912AE0269F11243019305D97
S11332903193DEF6CF010895462F4770405D419388
S11332A0B3E00FD0C9F7F6CF462F4F70405D4A33D5
S11332B018F0495D31FD4052419302D0A9F7EACF9D
S11332C0B4E0A6959795879577956795BA95C9F7CC
S11332D000976105710508959B01AC010A2E0694BF
S11332E05795479537952795BA95C9F7620F731F78
S11332F0841F951FA01D08952F923F924F925F92B5
S11333006F927F928F929F92AF92BF92CF92DF92F1
S1133310EF92FF920F931F93CF93DF93CDB7DEB756
S1133320CA1BDB0B0FB6F894DEBF0FBECDBF0994EA
S11333302A88398848885F846E847D848C849B8441
S1133340AA84B984C884DF80EE80FD800C811B814F
S1133350AA81B981CE0FD11D0FB6F894DEBF0FBE7E
S10D3360CDBFED010895F894FFCFEE
S113336A2E000000005507200002000100000000A2
S113337AD302A6027B0283029602A5020000000081
S113338AF704F50400000000250507050000000005
S113339A0F050B057C002020202020205A65686533
S11333AA746E65727C207C20202020546865726DBE
S11333BA6F7374617420310053656E736F72446164
S11333CA74612054454D50455241545552455F430A
S11333DA2025692E25303269207C48554D494449B7
S11333EA54592025692E25303269207C4241545F84
S11333FA504354202569004572726F72436F756E8B
S113340A74732053454E534F5220256920434F4D20
S113341A4D2025692054494D454F5554202569208E
S113342A574454202569205253534920256900548E
S113343A656D70657261747572654368616E6765FE
S113344A202569004C63645465787442656570206C
S113345A004C63645465787420004D6F64656D2074
S113346A5374617475737C526573706F6E736520DF
S113347A3078257800556E6B6E6F776E20506B74BA
S113348A7C547970652030782578005265636569C3
S113349A7665204572726F727C4572726F72206310
S11334AA6F646520307825780052656365697665AE
S11334BA2054696D656F75747C497320746865203E
S11334CA53657276657220446F776E3F00555000DB
S11334DA444F574E00207C2054656D7065726174A8
S11334EA75726520257320256900000000006213A7
S10D34FAFD13F612271307135013F5
S9030000FC
