S0120000626F6F746C6F616465722E73726563E7
S21403F00071C000008EC000008CC000008AC00000E3
S21403F01088C0000086C0000084C0000082C00000D4
S21403F02080C000007EC000007CC000007AC00000E4
S21403F03078C0000076C0000074C0000072C00000F4
S21403F04070C000006EC000006CC000006AC0000004
S21403F05068C0000066C0000064C0000062C0000014
S21403F06060C000005EC000005CC000005AC0000024
S21403F07058C0000056C0000054C0000052C0000034
S21403F08050C000004EC000004CC000004AC0000044
S21403F09048C0000046C0000044C0000042C0000054
S21403F0A040C000003EC000003CC000003AC0000064
S21403F0B038C0000036C0000034C0000032C0000074
S21403F0C030C000002EC000002CC000002AC0000084
S21403F0D028C0000026C0000024C0000022C0000094
S21403F0E020C0000011241FBECFEFD1E2DEBFCDBF8C
S21403F0F001E00CBF12E0A0E0B2E0E4EFF5EF03E0BE
S21403F1000BBF02C007900D92A631B107D9F724E0D2
S21403F110A6E1B2E001C01D92AF31B207E1F7C6D057
S21403F12067C26ECF1CBE1CBCEE27FF27199408953A
S21403F1309091C80095FFFCCF8093CE0008950F935F
S21403F1401F93CF93DF9380910002F2DFC1E0D2E0FA
S21403F15000E21991812F8D7F813121F083E8810FA1
S21403F160823028F48DE7E4DF812F802701C0812FCA
S21403F170DFDF82E0C531D80761F7DF91CF911F91BA
S21403F1800F91089581E08093150280E090E020912E
S21403F190C80027FD07C00196893A21E69207B9F70A
S21403F1A0109215028091CE00089590E048EC50E04E
S21403F1B09817C1F02F9A24EF31E0FA013197F1F74F
S21403F1C02150310921153105C1F72F9824EF31E07D
S21403F1D0FA013197F1F72150310921153105C1F7AD
S21403F1E09F5FE6CF0895CF92DF92EF92FF920F9341
S21403F1F01F93CF93DF93CFB7F8942FB322702FBB11
S21403F20007B600FCFDCFF999FECF23E0FB01809300
S21403F2105B0020935700E89500E010E09801D1E0EA
S21403F220FA01E00FF11FF080E181F0E0BE2FAA277C
S21403F230AF0DB11D07B600FCFDCFF999FECF6801EF
S21403F2407901C60ED71EE81EF91E0D01F601E092DF
S21403F2505B00D0935700E89511240E5F1F4F2F4F86
S21403F2603F4F0115E1E01E0721053105C9F607B634
S21403F27000FCFDCFF999FECF25E0FB0180935B00F0
S21403F28020935700E89507B600FCFDCFF999FECF0B
S21403F29081E180935700E895CFBFDF91CF911F910F
S21403F2A00F91FF90EF90DF90CF90089584B78EBBB9
S21403F2B014BEA89598E10FB6F89490936000109248
S21403F2C060000FBE279A8B7009F02CDF109219048A
S21403F2D0109218041092CD008CE08093CC0010920C
S21403F2E0C80088E18093C90086E08093CA0083E063
S21403F2F05CDFC12CD12C7601C8ECD0E08091C8002D
S21403F30087FD12C02FEFC21AD20AE20AF20A31E3CD
S21403F310C31635E7D306E104F10410F003DFEECF9E
S21403F320CE010197F1F7EACF10921A0410921B044C
S21403F33010921C0410921D0410921E04C0E2FC2EB0
S21403F3400FEF10E0C8ECD0E01DDF8E37E9F71ADFC9
S21403F350809115028823C1F315DF992787FD9095C1
S21403F360909317028093160220911502222361F3CD
S21403F3708D37910549F406DF8F25992787FD9095EC
S21403F3809093170280931602809115028823E1F268
S21403F39010921A04C12CD12CEE24E3948091160209
S21403F3A090911702C816D90610F580911A04A60183
S21403F3B0485E5C4F5A01882339F0E4DE8F25F50159
S21403F3C0808310921A040AC0DDDEF50180838D3730
S21403F3D029F4F1E0CF1AD108E0921A0480911502BD
S21403F3E0882309F4B1CF2FEFC21AD20AD7CF809160
S21403F3F01803803909F0A8CFC5DE9091150299232A
S21403F40009F4A2CF8D3711F4BDDE8F259091150236
S21403F410992309F499CFE9E1F3E0A5E0B2E09191ED
S21403F4209D9333E0E132F307D1F79091190390935C
S21403F4301302E3E0F2E020E030E09191290F311D62
S21403F44042E0E431F407C9F7F801E21BF30BE0935B
S21403F4501402E8E1F3E02091160230911702285EC9
S21403F4603C4FE217F30719F09191890FFACF8F3FBC
S21403F47009F0B1C080912403803509F062C0809101
S21403F4802503823509F09BC08091180490911904D6
S21403F490892B71F48091260390912703A0E0B0E0B6
S21403F4A080931B0490931C04A0931D04B0931E0426
S21403F4B0B8E2CB2EB3E0DB2E8091160290911702B2
S21403F4C096012851334028173907C8F520911804A8
S21403F4D030911904C9010196909319048093180476
S21403F4E0F60141916F01F901E85EFD4F40838115F6
S21403F4F0914011F781E059DE60911B0470911C0462
S21403F50080911D0490911E0448E152E06CDE109237
S21403F51019041092180480911B0490911C04A09166
S21403F5201D04B0911E049F5FAF4FBF4F80931B0413
S21403F53090931C04A0931D04B0931E04BDCFFFDD5F
S21403F54003CF853409F03BC0809125038E34B9F58B
S21403F5508091180490911904892B21F181E025DE0E
S21403F56060911B0470911C0480911D0490911E04ED
S21403F57048E152E038DE1092190410921804809184
S21403F5801B0490911C04A0911D04B0911E049F5F60
S21403F590AF4FBF4F80931B0490931C04A0931D048E
S21403F5A0B0931E04CCDD88EE93E0FE013197F1F7AD
S21403F5B001970097D1F782E0F8DDB4DDC5CE83E08E
S21403F5C0F4DD84EC99E0FE013197F1F7019700979B
S21403F5D0D1F783E00BC082E0E8DD84EC99E0FE011E
S21403F5E03197F1F701970097D1F782E0DEDDACCED5
S20803F5F0F894FFCFB5
S21403F5F47E001110000102030405060708FFFE003F
S20A03F604004F4B01CC0190
S80403F00008
