S00F0000676174657761792E7372656323
S11300000C9433010C9464010C9464010C94640109
S11300100C9464010C9464010C9464010C946401C8
S11300200C9464010C9464010C9464010C946401B8
S11300300C9464010C9464010C9464010C946401A8
S11300400C9464010C9464010C9464010C94640198
S11300500C9464010C9464010C9464010C94461097
S11300600C9464010C9461120C948D130C9464012F
S11300700C9464010C9464010C9464010C94640168
S11300800C9464010C9464010C9464010C94640158
S11300900C949A120C94DA130C9464010C94D0020C
S11300A00C9464010C9464010C9464010C94640138
S11300B00C9464010C9464010C9464010C94640128
S11300C00C9464010C9464010C9464010C94D31298
S11300D00C9427140C9464010C940C130C94741455
S11300E00C9464010C9481080C9471050C944F15C4
S11300F00C94E6150C94250A0C945B0E0C9487055D
S11301000C9444130C9473050C94D6040C941204AC
S11301100C9462040C9425040C9435040C94131769
S11301200C946F150C9498150C9483050C940A0484
S11301300C94AA150C9434040C943E150000210070
S1130140240027002A002D003000330001010000A4
S1130150040107010A0100002200250028002B00E9
S11301602E003100340002010000050108010B01DA
S1130170000020002300260029002C002F0032005C
S11301800001000003010601090105050505070535
S113019008080808020202020A0A080804040404FF
S11301A0010101010101010103030303030303032B
S11301B0040707070C0C0C0C0C0C0C0C02020202BA
S11301C006060606060606060B0B0B0B0B0B0B0BA3
S11301D00102102020080810204010204080020155
S11301E0020108040201010204081020408080403A
S11301F02010080402018004020180402010080439
S113020002010804020101020408102040800102D6
S11302100408102040800000090A02080B0C0D0796
S113022006030401000000000000000000000000BC
S113023000000000000000000000000000000000BA
S1130240000011100F00000000000000000000007A
S1130250000000000000000000000000D604810837
S1130260250A5B0EE61511241FBECFEFD1E2DEBFD7
S1130270CDBF00E00CBF13E0A0E0B2E0E8EEFBE38A
S113028000E00BBF02C007900D92A23FB107D9F75F
S113029029E0A2EFB3E001C01D92A63EB207E1F748
S11302A012E0C6E6D2E000E006C022970109FE0192
S11302B00BBF0E945019CC35D10780E00807A9F77D
S11302C00E9404170C94F21D0C940000F999FECFBF
S11302D072BD61BDF89A80B50895F999FECF1FBA31
S11302E072BD61BD40BD0FB6F894FA9AF99A0FBE7B
S11302F00895ACEBB0E01C9210920A04589A599AF3
S1130300E9EBF0E080818E7F808380818D7F808324
S113031080E28093B80085E48C9361E070E080E231
S113032090E00E947719909304048093030461E0A1
S113033070E080E290E00E9477199093000480932B
S1130340FF0361E070E080E290E00E9477199093EF
S1130350FC038093FB0308956132A8F420910A04FE
S1130360243099F46093FD03282FA091FF03B091EA
S11303700004FC018E2F821B861718F481918D9343
S1130380F9CF80E0089581E0089582E0089585EC36
S11303908093BC0010920A040895882349F01092B7
S11303A0F5031092F6031092F7031092F80313C0AA
S11303B08091F5039091F603A091F703B091F803AF
S11303C00196A11DB11D8093F5039093F603A093AC
S11303D0F703B093F8038091F5039091F603A0918D
S11303E0F703B091F803803A9648A140B10560F054
S11303F01092F5031092F6031092F7031092F8038B
S11304000E94790181E0089580E008950F931F937D
S1130410CF93DF93082F162FD72FC42F413208F024
S113042041C081E00E94CD0180910A04882329F013
S113043080E00E94CD018823B9F381E080930A040F
S11304408FEF8093F903109202048C0F80930104C0
S1130450802F880F81608093090485EE8093BC000F
S113046081E00E94CD0180910A04813029F480E06A
S11304700E94CD018823B9F3809102048C1710F4F3
S1130480C091020480910304A12FBD2FE82FF091A5
S113049004049E2F981B9C1718F491919D93F9CFF7
S11304A08C2F01C080E0DF91CF911F910F910895AF
S11304B0FF920F931F93CF93DF93082FD62FF72E1E
S11304C0C42F122F81E0413208F051C00E94CD01A7
S11304D080910A04882339F080E00E94CD018823AA
S11304E0B9F385E044C082E080930A048FEF8093DF
S11304F0F90310920204C09301049D2FA0910304F8
S1130500B0910404ED2FFF2D8E2F891B8C1718F446
S113051081918D93F9CF802F90E0880F991F80935C
S1130520090485EE8093BC0081E00E94CD01111185
S11305300AC08091F9038F3F59F414C080E00E94EF
S1130540CD018111CECF80910A048230B9F3F1CF6D
S11305508091F903803241F08091F903803331F4C2
S113056083E005C080E003C082E001C084E0DF9145
S1130570CF911F910F91FF90089585ED8093BC005A
S113058081E00E94CD018091BC0084FF06C080E020
S11305900E94CD018823B9F302C010920A04089581
S11305A01F920F920FB60F9211240BB60F922F9336
S11305B03F934F935F936F937F938F939F93AF93E7
S11305C0BF93EF93FF938091B900887F803609F43D
S11305D0A0C078F5883209F45DC090F4803109F444
S11305E056C038F4882309F4FEC0883009F44FC09B
S11305F0FEC0883109F44EC0803209F463C0F7C0EC
S1130600803409F471C058F4803309F45BC0883332
S113061009F0EDC08093F9030E94C701E8C080355A
S113062009F453C0883509F464C0883409F0DFC084
S1130630DCC0883909F4CDC0A8F4883709F469C04E
S113064038F4883609F465C0803709F462C0CFC035
S1130650883809F4BEC0803909F461C0803809F0D3
S1130660C6C05DC0803B09F486C038F4803A09F402
S11306706BC0883A09F47FC0BAC0803C09F4ADC0AD
S1130680883C09F4AAC0883B09F48DC0B0C08091AD
S1130690090414C09091020480910104981708F091
S11306A0A4C0E0910304F09104048091020491E059
S11306B0980F90930204E80FF11D80818093BB0092
S11306C085EC88C08093F90390C0E0910304F09115
S11306D004048091020491E0980F90930204909195
S11306E0BB00E80FF11D90839091020480910104F6
S11306F06DC0E0910304F09104048091020491E040
S1130700980F909302049091BB00E80FF11D908321
S11307106CC083E080930A041092FA03D1CF8091D5
S1130720FA03803208F055C0E091FB03F091FC031A
S11307308091FA0391E0980F9093FA039091BB0093
S1130740E80FF11D9083BCCF2091FA038091FB0345
S11307509091FC03203230F42091FA03FC01E20F63
S1130760F11D10826091FA0370E0E0910504F091AC
S11307700604199532C084E080930A041092FE03A3
S11307801092FD03E0910704F091080419958091FB
S1130790FD03811108C081E08093FD03E091FF0314
S11307A0F09100041082E091FF03F0910004809125
S11307B0FE0391E0980F9093FE03E80FF11D8081F2
S11307C08093BB009091FE038091FD03981708F479
S11307D077CF85E88093BC000AC085EC8093BC0089
S11307E010920A0404C01092F9030E94BD02FF9102
S11307F0EF91BF91AF919F918F917F916F915F9195
S11308004F913F912F910F900BBE0F900FBE0F9001
S11308101F90189580913B0490E020913C04821B2A
S11308209109089520913C0480913B04281750F4C9
S1130830E22FF0E0E35CFB4F808190E02F5F209398
S11308403C0408958FEF9FEF0895E0913C0480915C
S11308503B04E81730F4F0E0E35CFB4F808190E068
S113086008958FEF9FEF08950895CF92DF92EF924E
S1130870FF920F931F93CF93DF937C01CB018A01E7
S113088020911704222389F0EB016B01C40ED51EBD
S1130890CC15DD0569F06991D701ED91FC910190CA
S11308A0F081E02DC7011995F3CF642F0E94AC01AC
S11308B0C801DF91CF911F910F91FF90EF90DF90CE
S11308C0CF900895CF93DF931F92CDB7DEB769839E
S11308D0209117042223D1F020911804203240F0F3
S11308E021E030E0FC013383228380E090E015C0F6
S11308F080911904E82FF0E0E65EFB4F9981908324
S11309008F5F809319048093180405C061E0CE01C1
S113091001960E94AC0181E090E00F90DF91CF91AD
S11309200895FC011382128248EE53E060E070E007
S113093044835583668377838DE092E0918380833B
S1130940089510923C0410923B04109219041092E2
S113095018040C947901862F413208F040E26DE3CB
S113096074E00E94060210923C0480933B040895B4
S11309700C94AB0481E08093170460933A041092C2
S113098019041092180408950C94BA0421E04091BB
S113099018046AE174E080913A040E9458021092AB
S11309A01904109218041092170408958BE094E02F
S11309B00C9491040F931F93CF93DF93CDB7DEB7BD
S11309C064970FB6F894DEBF0FBECDBF162F60E458
S11309D070E08BE094E00E94C404612F8BE094E00B
S11309E00E9462046AE070E080E090E00E94A81037
S11309F08BE094E00E94C60443E050E060E470E0C1
S1130A008BE094E00E94B80410E08BE094E00E9434
S1130A100A0403972CF4143639F580E090E02CC0D6
S1130A201436D9F38BE094E00E94120400E010E045
S1130A30182F8BE094E00E941204080F191F0C7FFA
S1130A401F930F9380EA92E09F938F93CE010196B8
S1130A509F938F930E94221B0F900F900F900F90E3
S1130A600F900F90C80108C061E070E080E090E052
S1130A700E94A8101F5FC9CF64960FB6F894DEBF1A
S1130A800FBECDBFDF91CF911F910F91089565EEF9
S1130A900E94DA04BC0180E090E00E94D31720E0B9
S1130AA030E04AEF5AE30E94891820E030E040EC3D
S1130AB050E40E943D17089563EE0E94DA04BC01DD
S1130AC080E090E00E94D31722E538EB4FE25BE32D
S1130AD00E94891826E636E64BE352E40E943D174D
S1130AE008958BE00895CF93DC011696CC91169768
S1130AF0ED91FC910280F381E02D1995C150C81B42
S1130B008C2FCF910895FC018681845F0895FC01A8
S1130B10611102C082850895613011F481850895C0
S1130B20623011F480850895633011F4878108954B
S1130B30643011F486850895653011F4858508952F
S1130B40663011F484850895673011F4838508951F
S1130B50683011F480890895693011F48785089507
S1130B606A3011F4818908956B3011F482890895F3
S1130B700480F581E02DE60FF11D3C9780810895F6
S1130B80FC0182810895FC018781089521E0FC0124
S1130B908085811101C020E0822F0895FC018085A9
S1130BA00895FC01DB01828112968C931297878150
S1130BB017968C931797858115968C931597808536
S1130BC018968C931897868116968C931697838122
S1130BD013968C931397848114968C930895CF93D2
S1130BE0DF93CDB7DEB728970FB6F894DEBF0FBEFC
S1130BF0CDBF2DE132E0FC013183208328E0FE01EA
S1130C003196DC011B9601900D922A95E1F7289606
S1130C100FB6F894DEBF0FBECDBFDF91CF9108951C
S1130C200F931F93CF93DF938C01EB01DC018D9124
S1130C309C9199838883C8010E94D105D801ED91C4
S1130C40FC91808190E0A0E0B0E0B82FAA2799271A
S1130C508827418150E060E070E0BA0155274427BD
S1130C60840F951FA61FB71F2381820F911DA11DFD
S1130C70B11D228130E0322F2227820F931FA11D44
S1130C80B11D89879A87AB87BC87848190E0A0E0F7
S1130C90B0E0B82FAA2799278827458150E060E063
S1130CA070E0BA0155274427840F951FA61FB71F6C
S1130CB02781820F911DA11DB11D268130E0322FA5
S1130CC02227820F931FA11DB11D8D879E87AF8799
S1130CD0B88BDF91CF911F910F910895CF93DF933C
S1130CE0DC011296CD91DC911397ED91FC91028079
S1130CF0F381E02D1995FE01E80FF11DCF01DF917D
S1130D00CF9108950895DC01ED91FC9180810895BF
S1130D10FC0120813181FB01318320830C94D105B6
S1130D20FC01808191810895FC011782108615824F
S1130D30128213821482268130E0168280E090E0D1
S1130D40821793073CF4A081B181A80FB91F1C92AC
S1130D500196F6CF0895FC01128611860C94940630
S1130D60FC01128611861486158617821086158258
S1130D700E9691838083E25FFD4F86E699E091832E
S1130D8080830895825F9D4FFC01808191810C9442
S1130D90C114825F9D4FFC01718360830895825F5B
S1130DA09D4FDC018D919C91DC01ED91FC910480BF
S1130DB0F581E02D199521E0892B09F420E0822F9B
S1130DC00895825F9D4FDC018D919C91DC01ED9132
S1130DD0FC910680F781E02D19950895825F9D4F5F
S1130DE0DC018D919C91DC01ED91FC910284F385F1
S1130DF0E02D1994825F9D4FDC018D919C91DC0163
S1130E00ED91FC910190F081E02D19940895DF9209
S1130E10EF92FF920F931F93CF93DF93EC018F8197
S1130E20811103C08885882329F0CE010E94AB0676
S1130E301A861C8652E0D52E01E063E0E62E74E0AB
S1130E40F72E10E2CE010E94CF06882309F46BC06E
S1130E50CE010E94E1068B879A85992339F08E375B
S1130E6029F4CE010E94AB061A861C868A85882343
S1130E7081F08B858D3769F4CE010E94CF068823DB
S1130E8031F0CE010E94E10681278B8702C00987D9
S1130E90D9CF8985882321F08B8581278B87198673
S1130EA04A85433020F08C859B85890F8C8741309F
S1130EB079F040F0423081F0433091F48B858A839D
S1130EC0FA86C0CF8B858E3709F0BCCF0A87BACF9C
S1130ED08B858B83DA86B6CF8B858C83EA86B2CFFB
S1130EE0242F30E08C8190E003962817390781F491
S1130EF08C858F3F31F48B858D8381E08F831886B9
S1130F0002C081E0888744504E831A861C860BC039
S1130F108B85E881F981E20FF31F349780838A85FA
S1130F208F5F8A878FCFDF91CF911F910F91FF90B1
S1130F30EF90DF900895CF92DF92EF92FF920F939C
S1130F401F93CF93DF93EC018B0177FF02C080E006
S1130F5015C00E949A106B017C010E949A106C19B2
S1130F607D09601771079CF7CE010E9407078F81E6
S1130F70811104C08885882381F3E9CFDF91CF9163
S1130F801F910F91FF90EF90DF90CF9008950F93F2
S1130F901F93FC014083518362837383048315830D
S1130FA0268337831F910F910895CF93DF93EC012C
S1130FB080E18A8381E08B835D834C832E8385E289
S1130FC092E09983888388E0FB01DE011796019003
S1130FD00D928A95E1F78EEF9FEF988B8F87198A90
S1130FE01A8ADF91CF9108951F93CF93DF93EC0179
S1130FF0162F442379F083E8860F823020F0862F61
S11310008D7F813139F46DE7CE010E94FA0660E2EA
S1131010612701C0612FCE01DF91CF911F910C9404
S1131020FA06DF92EF92FF920F931F93CF93DF9311
S11310308C01EB016EE70E94FA06E881F9810280D7
S1131040F381E02DCE011995E82EE881F981028023
S1131050F381E02DCE011995F82E2E2D30E02E5F70
S11310603F4F41E0632FC8010E94F40762E06F0D17
S113107041E0C8010E94F40741E06A81C8010E946E
S1131080F40741E06B81C8010E94F407DA808B8188
S1131090D80EE12CF12CE881F9810280F381E02D56
S11310A0CE011995282F30E0E216F306D4F4E88136
S11310B0F9810190F081E02D6E2DCE01199541E06A
S11310C0682FC8010E94F407E881F9810190F0813A
S11310D0E02D6E2DCE011995D80E8FEFE81AF80A7F
S11310E0DACF6D2D609541E0C8010E94F407C80174
S11310F0DF91CF911F910F91FF90EF90DF900C94AF
S1131100EE0610925E0410925F0410926004109236
S113111061048FEF9FEFA0E0B0E0809362049093AE
S11311206304A0936404B09365040895CF93DF939C
S1131130CDB7DEB763970FB6F894DEBF0FBECDBF51
S1131140262FAC016DE075E0CE0101960E94D50713
S1131150BE016F5F7F4F85E195E00E9411086396A1
S11311600FB6F894DEBF0FBECDBFDF91CF910895C7
S11311704F925F926F927F928F929F92AF92BF92A3
S1131180CF92DF92EF92FF920F931F93CF93DF934F
S1131190CDB7DEB72C970FB6F894DEBF0FBECDBF28
S11311A04B015C0129013A0167017801C701B601CD
S11311B00E94A21769837A838B839C83C301B20143
S11311C00E94A2176D837E838F839887C501B40123
S11311D00E94A21769877A878B879C8729813A8125
S11311E0B901882777FD8095982F0E94D5179B0118
S11311F0AC01C701B6010E943D179F7720E030E0A3
S113120048EC52E40E9489180E94A2177F936F93BE
S11312103A813F9389818F93ED81FE81BF018827B5
S113122077FD8095982F0E94D5179B01AC01C301CF
S1131230B2010E943D179F7720E030E048EC52E471
S11312400E9489180E94A2177F936F93FE81FF93D7
S11312502D812F93E985FA85BF01882777FD809535
S1131260982F0E94D5179B01AC01C501B4010E94BF
S11312703D179F7720E030E048EC52E40E94891843
S11312800E94A2177F936F93FA85FF9329852F936A
S113129089E292E09F938F9308EB14E01F930F93DE
S11312A00E94221BF80101900020E9F7BF01615060
S11312B07109685B74400FB6F894DEBF0FBECDBFF2
S11312C0C8012C960FB6F894DEBF0FBECDBFDF91D8
S11312D0CF911F910F91FF90EF90DF90CF90BF902F
S11312E0AF909F908F907F906F905F904F900C94F1
S11312F09608CF93DF93809167041F928F93809118
S113130009051F928F9380910A051F928F938091F4
S11313100B051F928F9383E792E09F938F93C8EB03
S1131320D4E0DF93CF930E94221BFE0101900020A2
S1131330E9F7BF0161507109685B74408DB79EB7CE
S11313400C960FB6F8949EBF0FBE8DBFCE01DF91F1
S1131350CF910C9496081F93CF93DF9362E78CE3AD
S113136097E00E942410C82F64E78CE397E00E9462
S11313702410182F1F92CF9323EA32E03F932F9328
S1131380C8EBD4E0DF93CF930E94221BFE010190AF
S11313900020E9F7BF0161507109685B7440CE0118
S11313A00E9496081F921F9385EB92E09F938F9360
S11313B0DF93CF930E94221BFE0101900020E9F7E6
S11313C0BF0161507109685B74408DB79EB70C967C
S11313D00FB6F8949EBF0FBE8DBFCE01DF91CF91A3
S11313E01F910C949608CF93DF93D82FC0E0CD17AC
S11313F0B1F061E08DE00E94FD1164E670E080E0F0
S113140090E00E94A81060E08DE00E94FD1164E667
S113141070E080E090E00E94A810CF5FE8CFDF91F9
S1131420CF910895CF93DF93D82FC0E0CD1749F023
S1131430A89568EE73E080E090E00E94A810CF5F6A
S1131440F5CFA895DF91CF9108950F931F9385E170
S113145095E00E94B00600E010E0980140E050E002
S1131460BA018DE095E00E94C7071F910F9108957E
S113147040E855E260E070E084EA99E00E94C1141B
S11314806CE784EA99E00E94AA156CE884EA99E082
S11314900E94AA156AE070E080E090E00E94A81023
S11314A06CE784EA99E00E94AA1563E084EA99E073
S11314B00E94AA156AE070E080E090E00E94A81003
S11314C06CE784EA99E00E94AA1565E084EA99E051
S11314D00E94AA156AE070E080E090E00C94A810E5
S11314E06EEF84EA99E00E94AA1561E084EA99E02B
S11314F00E94AA156AE070E080E090E00C94A810C5
S11315001F93CF93DF93EC01623069F020F46130D4
S113151069F510E009C0633021F0643039F514E551
S113152003C014E101C010E46EEF84EA99E00E9464
S1131530AA1560E8610F84EA99E00E94AA15FE01E9
S113154001900020E9F7AF01415051094C1B5D0B9C
S1131550E091A409F091A5090280F381E02DBE0178
S113156084EA99E0DF91CF911F911994DF91CF9193
S11315701F910895CF93DF93EC010E94700ABE017E
S113158088E694E00E94EC1A6CEC72E088E694E041
S11315900E94D81A61E0009791F0C1E0C60F0E9442
S11315A0800A62E370E080E090E00E94A8106CEC96
S11315B072E080E090E00E94D81A6C2FECCF68ECC7
S11315C070E080E090E0DF91CF910C94A8108EB38E
S11315D083FB882780F98093660414BEA89529E2CA
S11315E088E190E00FB6F894A895809360000FBE50
S11315F020936000A89560E070E084EF93E00E947F
S113160066018093670490916604992351F041E048
S1131610480F4093670460E070E084EF93E00E9419
S11316206D0161E08DE00E94631161E08CE00E9435
S1131630631160E08BE00E94631160E08DE00E9422
S1131640FD1160E08CE00E94FD1161E08BE00E94DE
S1131650FD1160E086E00E94631161E086E00E9473
S1131660FD1160E087E00E94631161E087E00E9461
S1131670FD1160ED77E080E090E00E94A8100E94E8
S1131680380A8EEC92E00E94BA0A68EB7BE080E0B4
S113169090E00E94A8108BE094E00E94A10440E036
S11316A056E960E070E085E899E00E94C11465E8BD
S11316B079E085E195E00E94C90640E056E960E0E2
S11316C070E085E195E00E94C20685E297E00C9403
S11316D0F10E0F931F93CF93DF930E946E06009732
S11316E0D9F16DEE72E00E94D81A8C016EEE72E0B0
S11316F080E090E00E94D81AEC016FEE72E0C8011D
S11317000E94E31A892B39F4CE01DF91CF911F9106
S11317100F910C94BA0A67EF72E0C8010E94E31AB1
S1131720892B31F4CE010E94BA1A482F62E70CC00B
S113173066E073E0C8010E94E31A892B69F4CE01C4
S11317400E94BA1A482F64E78CE397E0DF91CF91A7
S11317501F910F910C94AC0FDF91CF911F910F91BA
S113176008954F925F926F927F928F929F92AF9261
S1131770BF92CF92DF92EF92FF920F931F93CF937A
S1131780DF93CDB7DEB7A6970FB6F894DEBF0FBED2
S1131790CDBF712C8DE4E82E83E0F82E08EB14E025
S11317A096E3C92E93E0D92E2AE1A22E23E0B22E8D
S11317B039E0532E4DE1842E42E0942E58E0452E1C
S11317C064EF71E085E195E00E949B0785E195E077
S11317D00E9406070E94C305882309F47FC085E19F
S11317E095E00E9406070E94C005803959F581E002
S11317F00E94F309CE0144960E94EF0585E195E02D
S11318000E940607BE016A5E7F4F0E941006FE0119
S11318107696DE011396852D01900D928A95E1F757
S11318209A828982FE017F96DE011C96842D0190A6
S11318300D928A95E1F7CE0101960E94690B7724F7
S11318407394BECF85E195E00E9406070E94C0050F
S11318508A38B1F4CE0101960E94820685E195E0B2
S11318600E940607BE016F5F7F4F0E948806CE016B
S113187001960E9483061F928F93BF92AF9219C064
S113188085E195E00E9406070E94C0058B3809F4A3
S113189097CF85E195E00E9406070E94900685E1B6
S11318A095E00E9406070E94C0051F928F93DF9265
S11318B0CF921F930F930E94221B88EB94E00E9407
S11318C0BA0A6CE271E080E090E00E94A8100F90E8
S11318D00F900F900F900F900F9072CF85E195E0CD
S11318E00E9406070E94C605882361F190910A05AB
S11318F09F5F90930A0585E195E00E9406070E9488
S1131900CE05682E1F928F93FF92EF921F930F9331
S11319100E94221B88EB94E00E94BA0A6CE271E0F8
S113192080E090E00E94A8100F900F900F900F900D
S11319300F900F9083E0681243CF0E94B10B811186
S1131940FCCF3ECF872DA6960FB6F894DEBF0FBE10
S1131950CDBFDF91CF911F910F91FF90EF90DF905A
S1131960CF90BF90AF909F908F907F906F905F903B
S11319704F90089586E00E943012892B61F462E74B
S11319808CE397E00E94D10F8BE693E00E94BA0AA1
S11319908AE00E94120A87E00E943012892B61F4C7
S11319A064E78CE397E00E94D10F80E993E00E9402
S11319B0BA0A8AE00C94120A089540E062E78CE3C4
S11319C097E00E94AC0F40E064E78CE397E00E944C
S11319D0AC0F8AEB93E00C94BA0A4F925F926F9229
S11319E07F928F929F92AF92BF92CF92DF92EF92AB
S11319F0FF920F931F9329E288E190E00FB6F894C9
S1131A00A895809360000FBE20936000A89561E0C4
S1131A108CE00E94FD118BE00E943012892B29F486
S1131A2060E08CE00E94FD11F2CF80910C058F5F85
S1131A3080930C050E94BA0C0E94B10B811106C060
S1131A40809108058F5F8093080502C010920805F5
S1131A5080910805893C10F00E94DD0C80910805F6
S1131A60803150F06AE00E94FC18911105C0809109
S1131A7009058F5F8093090560E08CE00E94FD11E9
S1131A8080910C058B3008F447C085E297E00E94F2
S1131A906A0E8DE594E00E945C054B015C018DE5C6
S1131AA094E00E9447052B013C0185E297E00E94E7
S1131AB09B0D6B017C0120E030E044E352ECC50156
S1131AC0B4010E9485181816E4F420E030E040E8E0
S1131AD05FEBC301B2010E948518181694F420E04C
S1131AE030E0A901C701B6010E94851818164CF40C
S1131AF087017601A3019201C501B4010E94B808CF
S1131B0005C080910B058F5F80930B050E94AB0984
S1131B100E94790910920C051F910F91FF90EF908C
S1131B20DF90CF90BF90AF909F908F907F906F90F9
S1131B305F904F9008954F925F926F927F928F9231
S1131B409F92AF92BF92CF92DF92EF92FF92CF9388
S1131B50DF9300D01F92CDB7DEB7FC0186898111D7
S1131B6093C08685978522893389A90160E070E056
S1131B7049835A836B837C83C084D184EE24D7FC4D
S1131B80E094FE2C4EE0CC0CDD1CEE1CFF1C4A95B0
S1131B90D1F7DC010E943E19C60ED71EE81EF91EBD
S1131BA05EE0F594E794D794C7945A95D1F7A48549
S1131BB0B585448955892A01612C712C6BE0CC0CC4
S1131BC0DD1CEE1CFF1C6A95D1F79A010E943E1998
S1131BD0C60ED71EE81EF91E82849384AA2497FC9D
S1131BE0A094BA2C7FE0880C991CAA1CBB1C7A9583
S1131BF0D1F7A7019601ABE0559547953795279501
S1131C00AA95D1F769817A818B819C810E94EC1815
S1131C10C680D780EE24D7FCE094FE2CBAE0CC0C2E
S1131C20DD1CEE1CFF1CBA95D1F7C60ED71EE81EAC
S1131C30F91E9501552737FD5095452FC301B20173
S1131C400E94EC18CC245CEFD522C60ED71EE81EE9
S1131C50F91E9DE0F594E794D794C7949A95D1F72B
S1131C60B601882777FD8095982F0E94D51728E81C
S1131C7030E242E85DE30E94891820E030E048E465
S1131C8052E40E943E1704C060E070E080E89FEBDD
S1131C900F900F900F900F90DF91CF91FF90EF90E6
S1131CA0DF90CF90BF90AF909F908F907F906F9078
S1131CB05F904F90089510923B0780E690E09093D8
S1131CC02A078093290789E090E090932607809360
S1131CD025070895FF920F931F93CF93DF93EC0191
S1131CE061E088810E94FD111B821A8261E070E02C
S1131CF080E090E00E94A8106C817D818BE094E0EC
S1131D000E94C40462E18BE094E00E94620461E0FA
S1131D108BE094E00E9462048BE094E00E94C6048D
S1131D206AE070E080E090E00E94A8106C817D8100
S1131D308BE094E00E94C40460E08BE094E00E9495
S1131D4062048BE094E00E94C6046C817D8144E0CF
S1131D5050E08BE094E00E94B8048BE094E00E9491
S1131D600A0421E0181619060CF420E02E8B211128
S1131D7014C08BE094E00E941204F82E8BE094E0EF
S1131D800E941204082F8BE094E00E941204182F82
S1131D908BE094E00E94120404C080E010E000E0B4
S1131DA0F12C20E030E03F2D200F311D46E0369528
S1131DB027954A95E1F73B8B2A8B20E030E0312FC1
S1131DC0A901480F511DCA0156E0969587955A9569
S1131DD0E1F79D8B8C8BDF91CF911F910F91FF9039
S1131DE008957F928F929F92AF92BF92CF92DF928B
S1131DF0EF92FF920F931F93CF93DF93EC0161E077
S1131E0088810E94631161E088810E94FD111B8218
S1131E101A8261E070E080E090E00E94A8106C817A
S1131E207D818BE094E00E94C40464E08BE094E044
S1131E300E9462048BE094E00E94C6046C817D8160
S1131E404CE050E08BE094E00E94B8048BE094E016
S1131E500E940A040C97E4F18BE094E00E941204BF
S1131E60782E8BE094E00E941204882E8BE094E09C
S1131E700E941204982E8BE094E00E941204A82E73
S1131E808BE094E00E941204B82E8BE094E00E9450
S1131E901204C82E8BE094E00E941204D82E8BE02A
S1131EA094E00E941204E82E8BE094E00E94120455
S1131EB0F82E8BE094E00E941204082F8BE094E04B
S1131EC00E941204182F8BE094E00E9412040CC0AC
S1131ED080E010E000E0F12CE12CD12CC12CB12CDD
S1131EE0A12C912C812C712C20E030E0372D280D71
S1131EF0311D3F832E8320E030E0392D2A0D311D22
S1131F003987288720E030E03B2D2C0D311D3B879D
S1131F102A8720E030E03D2D2E0D311D3D872C8792
S1131F2020E030E03F2D200F311D3F872E8720E039
S1131F3030E0312F280F311D398B288BDF91CF9161
S1131F401F910F91FF90EF90DF90CF90BF90AF90D3
S1131F509F908F907F900895CF93DF931F92CDB77A
S1131F60DEB770E0759567958BE094E049830E9435
S1131F70C40461E08BE094E00E9462044981642F10
S1131F808BE094E00E9462048BE094E00E94C6041B
S1131F906AE070E080E090E00F90DF91CF910C94C4
S1131FA0A810CF93C62F68E370E08BE094E00E9402
S1131FB0C40460E08BE094E00E94620460EA8BE079
S1131FC094E00E9462048BE094E00E94C60468E3FB
S1131FD070E08BE094E00E94C40460E08BE094E045
S1131FE00E9462046AEA8BE094E00E9462048BE03F
S1131FF094E00E94C60468E370E08BE094E00E94E1
S1132000C40460E08BE094E00E94620465EA8BE023
S113201094E00E9462048BE094E00E94C60468E3AA
S113202070E08BE094E00E94C40460E08BE094E0F4
S11320300E9462046C2F8BE094E00E9462048BE0A7
S113204094E0CF910C94C604CF93DF93C62FD0E0D5
S1132050D595C795BE018BE094E00E94C40461E06D
S11320608BE094E00E9462048BE094E00E94C6043A
S113207041E050E0BE018BE094E00E94B8048BE0A4
S113208094E00E941204DF91CF9108951F920F9261
S11320900FB60F9211242F933F934F935F936F9337
S11320A07F938F939F93AF93BF9320914107309178
S11320B04207409143075091440770914507DA0164
S11320C0C9010296A11DB11D672F6A5F6D3730F0FB
S11320D06D57DA01C9010396A11DB11D609345072F
S11320E08093410790934207A0934307B09344071A
S11320F080913D0790913E07A0913F07B091400722
S11321000196A11DB11D80933D0790933E07A093B6
S11321103F07B0934007BF91AF919F918F917F91FB
S11321206F915F914F913F912F910F900FBE0F9040
S11321301F9018958FB7F89420914107309142076A
S113214040914307509144078FBFB901CA010895D4
S11321509B01AC017FB7F89480913D0790913E07B5
S1132160A0913F07B091400766B5A89B05C06F3F9B
S113217019F00196A11DB11D7FBFBA2FA92F982F69
S11321808827860F911DA11DB11D63E0880F991F3B
S1132190AA1FBB1F6A95D1F7BC012DC0FFB7F894E5
S11321A080913D0790913E07A0913F07B091400771
S11321B0E6B5A89B05C0EF3F19F00196A11DB11D1E
S11321C0FFBFBA2FA92F982F88278E0F911DA11D0D
S11321D0B11DE3E0880F991FAA1FBB1FEA95D1F731
S11321E0861B970B885E9340C8F2215030404040D4
S11321F0504068517C4F211531054105510571F658
S11322000895789484B5826084BD84B5816084BD6A
S113221085B5826085BD85B5816085BDEEE6F0E05B
S1132220808181608083E1E8F0E0108280818260B7
S11322308083808181608083E0E8F0E08081816038
S11322408083E1EBF0E0808184608083E0EBF0E068
S1132250808181608083E1E9F0E080818260808315
S1132260808181608083E0E9F0E080818160808307
S1132270E1EAF0E0808182608083808181608083F4
S1132280E0EAF0E0808181608083E1E2F1E0808136
S113229082608083808181608083E0E2F1E08081DC
S11322A081608083EAE7F0E08081846080838081BC
S11322B08260808380818160808380818068808364
S11322C01092C1000895482F50E0CA0180539E4FD8
S11322D0FC01249146575E4FFA0184918823C1F092
S11322E0E82FF0E0EE0FFF1FE45CFE4FA591B491E0
S11322F0662341F49FB7F8948C91209582238C93A4
S11323009FBF08959FB7F8948C91822B8C939FBFA5
S11323100895893009F449C08A30A0F4843051F119
S1132320853040F4823079F1833000F5813009F052
S113233063C026C0873079F1883098F5863009F07B
S11323405BC025C08D3009F442C08E3028F48B3038
S1132350B1F18C30C0F52DC0803109F442C0813117
S113236009F445C08F3009F047C037C08091800020
S11323708F7703C0809180008F7D809380000895C3
S113238084B58F7702C084B58F7D84BD0895809114
S1132390B0008F7703C08091B0008F7D8093B00030
S11323A00895809190008F7707C0809190008F7D71
S11323B003C080919000877F80939000089580915E
S11323C0A0008F7707C08091A0008F7D03C080910B
S11323D0A000877F8093A0000895809120018F77CB
S11323E003C0809120018F7D809320010895809106
S11323F02001877F809320010895FF920F931F93FC
S1132400F62E482F50E0CA018A5E9D4FFC012491AC
S1132410CA0180539E4FFC01149146575E4FFA0146
S113242004910023C9F0222319F0822F0E948911FC
S1132430E02FF0E0EE0FFF1FEA5AFE4FA591B49192
S11324409FB7F894FF2021F48C911095812302C04A
S11324508C91812B8C939FBF1F910F91FF900895B6
S11324600F931F93482F50E0CA018A5E9D4FFC01D1
S11324702491CA0180539E4FFC01049146575E4F3C
S1132480FA011491112319F420E030E015C022233D
S113249019F0822F0E948911812F90E0880F991FD3
S11324A080599E4FFC01A591B4918C9120E030E0BD
S11324B0802311F021E030E0C9011F910F910895AC
S11324C008951F920F920FB60F920BB60F9211241C
S11324D02F933F934F938F939F93EF93FF93409149
S11324E0C60020918607309187072F5F3F4F2F73D7
S11324F0307080918807909189072817390759F01F
S1132500E0918607F0918707EA5BF84F40833093A8
S1132510870720938607FF91EF919F918F914F91A9
S11325203F912F910F900BBE0F900FBE0F901F90F5
S1132530189508951F920F920FB60F920BB60F9233
S113254011242F933F934F938F939F93EF93FF9374
S11325504091CE0020910E0830910F082F5F3F4F1D
S11325602F73307080911008909111082817390743
S113257059F0E0910E08F0910F08E253F84F4083B0
S113258030930F0820930E08FF91EF919F918F9144
S11325904F913F912F910F900BBE0F900FBE0F9054
S11325A01F90189508951F920F920FB60F920BB6B5
S11325B00F9211242F933F934F938F939F93EF93F5
S11325C0FF934091D60020919608309197082F5F91
S11325D03F4F2F7330708091980890919908281775
S11325E0390759F0E0919608F0919708EA5AF74FA5
S11325F040833093970820939608FF91EF919F9121
S11326008F914F913F912F910F900BBE0F900FBE62
S11326100F901F90189508951F920F920FB60F9266
S11326200BB60F9211242F933F934F938F939F9345
S1132630EF93FF934091360120911E0930911F09B9
S11326402F5F3F4F2F7330708091200990912109A3
S11326502817390759F0E0911E09F0911F09E25239
S1132660F74F408330931F0920931E09FF91EF9188
S11326709F918F914F913F912F910F900BBE0F908F
S11326800FBE0F901F901895E0917209F091730995
S1132690E05CFF4F8191919120813181821B930BEA
S11326A08F739070892B11F00E946012E091910950
S11326B0F0919209E05CFF4F8191919120813181E9
S11326C0821B930B8F739070892B11F00E949912C7
S11326D0E091B009F091B109E05CFF4F81919191D3
S11326E020813181821B930B8F739070892B11F0A1
S11326F00E94D212E091CF09F091D009E05CFF4F23
S11327008191919120813181821B930B8F73907001
S1132710892B11F00E940B1308951F920F920FB68C
S11327200F920BB60F9211242F933F934F935F9305
S11327306F937F938F939F93AF93BF93EF93FF9385
S11327402091CA073091CB078091CC079091CD0797
S11327502817390731F48091C1008F7D8093C1001F
S113276016C0E091CC07F091CD07E657F84F4081B1
S11327708091CC079091CD07019660E470E00E94AF
S113278008199093CD078093CC074093C600FF911E
S1132790EF91BF91AF919F918F917F916F915F91D5
S11327A04F913F912F910F900BBE0F900FBE0F9042
S11327B01F9018951F920F920FB60F920BB60F929F
S11327C011242F933F934F935F936F937F938F9332
S11327D09F93AF93BF93EF93FF932091520830914F
S11327E0530880915408909155082817390731F4FB
S11327F08091C9008F7D8093C90016C0E091540870
S1132800F0915508EE5EF74F408180915408909105
S11328105508019660E470E00E94081990935508E9
S1132820809354084093CE00FF91EF91BF91AF91F4
S11328309F918F917F916F915F914F913F912F91D4
S11328400F900BBE0F900FBE0F901F9018951F9204
S11328500F920FB60F920BB60F9211242F933F9342
S11328604F935F936F937F938F939F93AF93BF9394
S1132870EF93FF932091DA083091DB088091DC0814
S11328809091DD082817390731F48091D1008F7DAC
S11328908093D10016C0E091DC08F091DD08E65683
S11328A0F74F40818091DC089091DD08019660E447
S11328B070E00E9408199093DD088093DC0840932F
S11328C0D600FF91EF91BF91AF919F918F917F912E
S11328D06F915F914F913F912F910F900BBE0F908D
S11328E00FBE0F901F9018951F920F920FB60F9264
S11328F00BB60F9211242F933F934F935F936F93D3
S11329007F938F939F93AF93BF93EF93FF93209104
S113291062093091630980916409909165092817CF
S1132920390731F4809131018F7D8093310116C0D4
S1132930E0916409F0916509EE5DF64F4081809164
S1132940640990916509019660E470E00E94081999
S1132950909365098093640940933601FF91EF9148
S1132960BF91AF919F918F917F916F915F914F91A3
S11329703F912F910F900BBE0F900FBE0F901F90A1
S11329801895AF92BF92DF92EF92FF920F931F932D
S1132990CF93DF93EC017A018B01DD24D39491E092
S11329A0A92EB12CEC89FD89DD2069F0C5010E8CBE
S11329B002C0880F991F0A94E2F7808360E874E8E4
S11329C08EE190E005C0108260E472E48FE090E054
S11329D0A80197010E941C192150304040405040EA
S11329E0569547953795279580E12030380720F094
S11329F0DD2011F0DD24D6CFE889F9893083EA8916
S1132A00FB892083EE89FF89408121E030E0C90100
S1132A100A8C02C0880F991F0A94E2F7482B40835E
S1132A20EE89FF894081C9010B8C02C0880F991F70
S1132A300A94E2F7482B4083EE89FF894081C9015B
S1132A400C8C02C0880F991F0A94E2F7482B40832C
S1132A50EE89FF8980810D8C02C0220F331F0A94F6
S1132A60E2F7209528232083DF91CF911F910F91C6
S1132A70FF90EF90DF90BF90AF900895DC011C961B
S1132A80ED91FC911D97E05CFF4F21913191808184
S1132A909181281B390B2F733070C9010895DC0113
S1132AA01C96ED91FC911D97E05CFF4F20813181D4
S1132AB0E054F040DF01AE5BBF4F8D919C911197C4
S1132AC02817390719F42FEF3FEF07C08D919C9118
S1132AD0E80FF91F8081282F30E0C9010895DC0137
S1132AE01C96ED91FC911D97E05CFF4F2081318194
S1132AF0E054F040DF01AE5BBF4F8D919C91119784
S1132B002817390719F42FEF3FEF10C08D919C91CE
S1132B101197E80FF91F20818D919C9111970196CF
S1132B208F73907011969C938E9330E0C901089531
S1132B30FC0186859785DC01A05CBF4FFC01EE5B40
S1132B40FF4F2D913C91119780819181281739076E
S1132B50C1F70895CF93DF93EC01462FEE85FF85EF
S1132B60E05CFF4F80819181E054F040019660E485
S1132B7070E00E9408199C01DF01AE5BBF4F8D918C
S1132B809C91119728173907D1F3E05CFF4F80819E
S1132B909181E054F040E80FF91F4083EE85FF85F2
S1132BA0E05CFF4F31832083EE89FF89208181E03F
S1132BB090E00D8C02C0880F991F0A94E2F7282B2D
S1132BC0208381E090E0DF91CF9108951F931092CC
S1132BD069091092680928EE33E040E050E0209340
S1132BE06A0930936B0940936C0950936D0966EE42
S1132BF073E0709367096093660986E497E09093A5
S1132C007309809372098AE897E090937509809319
S1132C10740985EC90E0909377098093760984ECAD
S1132C2090E0909379098093780980EC90E09093F8
S1132C307B0980937A0981EC90E090937D098093DD
S1132C407C0986EC90E090937F0980937E0914E0E0
S1132C5010938009B3E0B0938109A7E0A09382099F
S1132C60F5E0F0938309E1E0E09384091092880988
S1132C70109287092093890930938A0940938B091C
S1132C8050938C0970938609609385098EEC97E0C4
S1132C90909392098093910982E198E0909394092A
S1132CA0809393098DEC90E0909396098093950915
S1132CB08CEC90E0909398098093970988EC90E0CD
S1132CC090939A098093990989EC90E090939C09D8
S1132CD080939B098EEC90E090939E0980939D09CC
S1132CE010939F09B093A009A093A109F093A2099E
S1132CF0E093A3091092A7091092A6092093A809AA
S1132D003093A9094093AA095093AB097093A5097C
S1132D106093A40986E598E09093B1098093B00983
S1132D208AE998E09093B3098093B20985ED90E025
S1132D309093B5098093B40984ED90E09093B7091A
S1132D408093B60980ED90E09093B9098093B80917
S1132D5081ED90E09093BB098093BA0986ED90E0F1
S1132D609093BD098093BC091093BE09B093BF0929
S1132D70A093C009F093C109E093C2091092C60957
S1132D801092C5092093C7093093C8094093C90913
S1132D905093CA097093C4096093C3098EED98E0F7
S1132DA09093D0098093CF0982E299E09093D2095D
S1132DB08093D10985E391E09093D4098093D3095A
S1132DC084E391E09093D6098093D50980E391E060
S1132DD09093D8098093D70981E391E09093DA091D
S1132DE08093D90986E391E09093DC098093DB0911
S1132DF01093DD09B093DE09A093DF09F093E00995
S1132E00E093E1091F910895CF93DF930E9401118C
S1132E100E94E70AC4E4D3E10E94ED0C2097E1F399
S1132E200E944413F9CFCF92DF92EF92FF920F9357
S1132E301F93CF93DF937C016B018A01C0E0D0E044
S1132E400FC0D6016D916D01D701ED91FC910190F8
S1132E50F081E02DC7011995C80FD91F015010400A
S1132E600115110571F7CE01DF91CF911F910F91DB
S1132E70FF90EF90DF90CF9008955058BB27AA277A
S1132E800ED009C1FAD030F0FFD020F031F49F3FCA
S1132E9011F41EF4EFC00EF4E095E7FBE5C0E92F52
S1132EA00BD180F3BA17620773078407950718F0EC
S1132EB071F49EF523C10EF4E0950B2EBA2FA02DCC
S1132EC00B01B90190010C01CA01A0011124FF27D3
S1132ED0591B99F0593F50F4503E68F11A16F040CE
S1132EE0A22F232F342F4427585FF3CF46953795CD
S1132EF02795A795F0405395C9F77EF41F16BA0B92
S1132F00620B730B840BBAF09150A1F0FF0FBB1F3F
S1132F10661F771F881FC2F70EC0BA0F621F731F88
S1132F20841F48F4879577956795B795F7959E3FE5
S1132F3008F0B3CF9395880F08F09927EE0F979573
S1132F408795089504D06894B111D9C00895BCD070
S1132F5088F09F5790F0B92F9927B751A0F0D1F07E
S1132F60660F771F881F991F1AF0BA95C9F712C008
S1132F70B13081F0C3D0B1E00895C0C0672F782F7D
S1132F808827B85F39F0B93FCCF386957795679574
S1132F90B395D9F73EF490958095709561957F4FE0
S1132FA08F4F9F4F0895E89409C097FB3EF4909586
S1132FB08095709561957F4F8F4F9F4F9923A9F00E
S1132FC0F92F96E9BB279395F6958795779567959D
S1132FD0B795F111F8CFFAF4BB0F11F460FF1BC0E1
S1132FE06F5F7F4F8F4F9F4F16C0882311F096E974
S1132FF011C0772321F09EE8872F762F05C0662322
S113300071F096E8862F70E060E02AF09A95660FDA
S1133010771F881FDAF7880F9695879597F9089593
S1133020990F0008550FAA0BE0E8FEEF16161706D5
S1133030E807F907C0F012161306E407F50798F03D
S1133040621B730B840B950B39F40A2661F0232B56
S1133050242B252B21F408950A2609F4A140A695D2
S11330608FEF811D811D089597F99F6780E870E0B7
S113307060E008959FEF80EC089500240A941616EA
S1133080170618060906089500240A941216130652
S1133090140605060895092E0394000C11F48823E0
S11330A052F0BB0F40F4BF2B11F460FF04C06F5FFC
S11330B07F4F8F4F9F4F089557FD9058440F551FD2
S11330C059F05F3F71F04795880F97FB991F61F0A6
S11330D09F3F79F087950895121613061406551F1D
S11330E0F2CF4695F1DF08C0161617061806991F89
S11330F0F1CF86957105610508940895E894BB277E
S113310066277727CB0197F908958ADF08F48FEFB4
S113311008950BD0C0CFB1DF28F0B6DF18F09523A7
S113312009F0A2CFA7CF1124EACFC6DFA0F3959F61
S1133130D1F3950F50E0551F629FF001729FBB279A
S1133140F00DB11D639FAA27F00DB11DAA1F649F46
S11331506627B00DA11D661F829F2227B00DA11DF9
S1133160621F739FB00DA11D621F839FA00D611D7F
S1133170221F749F3327A00D611D231F849F600DA0
S1133180211D822F762F6A2F11249F5750408AF0D9
S1133190E1F088234AF0EE0FFF1FBB1F661F771F65
S11331A0881F91505040A9F79E3F510570F05CCFA5
S11331B0A6CF5F3FECF3983EDCF386957795679551
S11331C0B795F795E7959F5FC1F7FE2B880F911D83
S11331D09695879597F90895DB018F939F930E94A5
S11331E04519BF91AF91A29F800D911DA39F900D92
S11331F0B29F900D11240895991B79E004C0991F82
S1133200961708F0961B881F7A95C9F7809508953C
S113321097FB072E16F4009407D077FD09D00E947F
S1133220541907FC05D03EF4909581959F4F08955D
S1133230709561957F4F0895A1E21A2EAA1BBB1BBE
S1133240FD010DC0AA1FBB1FEE1FFF1FA217B3076E
S1133250E407F50720F0A21BB30BE40BF50B661F84
S1133260771F881F991F1A9469F760957095809548
S113327090959B01AC01BD01CF0108950E9468198E
S1133280B7FF0895821B930B08950E946819A59FA8
S1133290900DB49F900DA49F800D911D112408954D
S11332A00790F691E02D1994AA1BBB1B51E107C0AE
S11332B0AA1FBB1FA617B70710F0A61BB70B881FC2
S11332C0991F5A95A9F780959095BC01CD01089551
S11332D0A29FB001B39FC001A39F700D811D112453
S11332E0911DB29F700D811D1124911D08950F939E
S11332F01F93CF93DF93869F8001879F100D969F26
S1133300100D1124C8010E949319EC01009729F0B3
S1133310A80160E070E00E94DC1ACE01DF91CF9139
S11333201F910F910895CF93DF938230910510F48C
S113333082E090E0E091E409F091E50920E030E0DA
S1133340A0E0B0E0309739F1408151814817590726
S1133350B8F04817590771F482819381109729F0C6
S113336013969C938E9312972CC09093E5098093A7
S1133370E40927C02115310531F04217530718F02D
S1133380A901DB0101C0EF019A01BD01DF01028047
S1133390F381E02DD7CF21153105F9F0281B390B26
S11333A02430310580F48A819B816115710521F0F7
S11333B0FB019383828304C09093E5098093E4091D
S11333C0FE01329644C0FE01E20FF31F81939193F4
S11333D022503109398328833AC02091E20930917F
S11333E0E309232B41F42091050230910602309326
S11333F0E3092093E209209103023091040221158C
S1133400310541F42DB73EB74091070250910802AF
S1133410241B350BE091E209F091E309E217F3076D
S1133420A0F42E1B3F0B2817390778F0AC014E5F30
S11334305F4F2417350748F04E0F5F1F5093E30981
S11334404093E2098193919302C0E0E0F0E0CF0160
S1133450DF91CF910895CF93DF93009709F487C04C
S1133460FC01329713821282C091E409D091E509DC
S1133470209781F420813181280F391F8091E2093E
S11334809091E3098217930779F5F093E309E093A8
S1133490E2096DC0DE0120E030E0AE17BF0750F452
S11334A012964D915C9113979D014115510509F1B7
S11334B0DA01F3CFB383A28340815181840F951F36
S11334C08A179B0771F48D919C911197840F951F16
S11334D002969183808312968D919C911397938386
S11334E082832115310529F4F093E509E093E40979
S11334F03EC0D9011396FC93EE9312974D915D91C2
S1133500A40FB51FEA17FB0779F480819181840F1A
S1133510951F0296D90111969C938E938281938173
S113352013969C938E931297E0E0F0E08A819B813E
S1133530009719F0FE01EC01F9CFCE010296288123
S11335403981820F931F2091E2093091E3092817F2
S1133550390769F4309729F41092E5091092E409C7
S113356002C013821282D093E309C093E209DF916F
S1133570CF910895FC0188279927E894219120325E
S1133580E9F3293010F02E30C8F32B3241F02D32FC
S113359039F4689404C00E941A1B820F911D219172
S11335A020532A30C0F31EF4909581959F4F0895BF
S11335B042EF53E00C94F31ADC0101C06D934150C7
S11335C05040E0F70895FB01DC018D9101908019D2
S11335D00110D9F3990B0895FB01DC0101900D92C0
S11335E00020E1F70895FA01A191B081009719F440
S11335F01097E1F0CD01DC01CD010D90002011F414
S1133600C00113C0FB012191222319F02015D9F721
S1133610F3CFFB012191201519F41E92119606C0D7
S11336202223C1F70D900020A1F7D001FA01A19344
S1133630B08308957AE0979F902D879F802D910DF8
S1133640112408950F931F93CF93DF93CDB7DEB763
S11336502E970FB6F894DEBF0FBECDBF0E891F891B
S113366086E08C831A8309838FEF9FE79E838D8383
S1133670AE01465E5F4F688D798DCE0101960E9442
S1133680511BEF81F885E00FF11F10822E960FB6C3
S1133690F894DEBF0FBECDBFDF91CF911F910F9184
S11336A008952F923F924F925F926F927F928F92E2
S11336B09F92AF92BF92CF92DF92EF92FF920F93BD
S11336C01F93CF93DF93CDB7DEB72C970FB6F89443
S11336D0DEBF0FBECDBF7C016B018A01FC011782E6
S11336E01682838181FFBDC1CE0101964C01F70191
S11336F09381F60193FD859193FF81916F01882356
S113370009F4ABC1853239F493FD859193FF81911E
S11337106F01853229F4B70190E00E94621DE7CF62
S1133720512C312C20E02032A0F48B3269F030F49B
S1133730803259F0833269F420612CC08D3239F023
S1133740803339F4216026C02260246023C02860BD
S113375021C027FD27C030ED380F3A3078F426FF1A
S113376006C0FAE05F9E300D1124532E13C08AE088
S1133770389E300D1124332E20620CC08E3221F479
S113378026FD6BC1206406C08C3611F4206802C08B
S1133790883641F4F60193FD859193FF81916F0181
S11337A08111C1CF982F9F7D9554933028F40C5FDD
S11337B01F4FFFE3F9830DC0833631F0833771F077
S11337C0833509F05BC022C0F801808189830E5FD4
S11337D01F4F44244394512C540115C03801F2E086
S11337E06F0E711CF801A080B18026FF03C0652D07
S11337F070E002C06FEF7FEFC5012C870E94571D58
S11338002C0183012C852F77222E17C03801F2E07A
S11338106F0E711CF801A080B18026FF03C0652DD6
S113382070E002C06FEF7FEFC5012C870E944C1D32
S11338302C012C852068222E830123FC1BC0832DA0
S113384090E048165906B0F4B70180E290E00E9477
S1133850621D3A94F4CFF50127FC859127FE8191EE
S11338605F01B70190E00E94621D31103A94F1E0CB
S11338704F1A51084114510471F7E5C0843611F010
S1133880893639F5F80127FF07C06081718182818B
S113389093810C5F1F4F08C060817181882777FD79
S11338A08095982F0E5F1F4F2F76B22E97FF09C079
S11338B090958095709561957F4F8F4F9F4F2068AD
S11338C0B22E2AE030E0A4010E94941DA82EA8186C
S11338D044C0853729F42F7EB22E2AE030E025C07B
S11338E0F22FF97FBF2E8F36C1F018F4883579F0A6
S11338F0B4C0803719F0883721F0AFC02F2F206172
S1133900B22EB4FE0DC08B2D8460B82E09C024FFE6
S11339100AC09F2F9660B92E06C028E030E005C08B
S113392020E130E002C020E132E0F801B7FE07C038
S113393060817181828193810C5F1F4F06C0608119
S1133940718180E090E00E5F1F4FA4010E94941DDE
S1133950A82EA818FB2DFF77BF2EB6FE0BC02B2D6B
S11339602E7FA51450F4B4FE0AC0B2FC08C02B2D5F
S11339702E7E05C07A2C2B2D03C07A2C01C0752C09
S113398024FF0DC0FE01EA0DF11D8081803311F486
S1133990297E09C022FF06C07394739404C0822F49
S11339A0867809F0739423FD13C020FF06C05A2CB7
S11339B0731418F4530C5718732C731468F4B70168
S11339C080E290E02C870E94621D73942C85F5CFD1
S11339D0731410F4371801C0312C24FF12C0B7013E
S11339E080E390E02C870E94621D2C8522FF17C083
S11339F021FF03C088E590E002C088E790E0B701AA
S1133A000CC0822F867859F021FD02C080E201C0EB
S1133A108BE227FD8DE2B70190E00E94621DA514A0
S1133A2038F4B70180E390E00E94621D5A94F7CF06
S1133A30AA94F401EA0DF11D8081B70190E00E947F
S1133A40621DA110F5CF332009F451CEB70180E2F5
S1133A5090E00E94621D3A94F6CFF7018681978127
S1133A6002C08FEF9FEF2C960FB6F894DEBF0FBE07
S1133A70CDBFDF91CF911F910F91FF90EF90DF9019
S1133A80CF90BF90AF909F908F907F906F905F90FA
S1133A904F903F902F900895FC0105906150704025
S1133AA00110D8F7809590958E0F9F1F0895FC0103
S1133AB06150704001900110D8F7809590958E0F59
S1133AC09F1F08950F931F93CF93DF93182F092FF0
S1133AD0EB018B8181FD03C08FEF9FEF20C082FF3C
S1133AE010C04E815F812C813D81421753077CF4C5
S1133AF0E881F9819F012F5F3F4F39832883108329
S1133B0006C0E885F985812F1995892B29F72E811F
S1133B103F812F5F3F4F3F832E83812F902FDF9173
S1133B20CF911F910F910895FA01AA27283051F1DE
S1133B30203181F1E8946F936E7F6E5F7F4F8F4FDA
S1133B409F4FAF4FB1E03ED0B4E03CD0670F781F39
S1133B50891F9A1FA11D680F791F8A1F911DA11D1E
S1133B606A0F711D811D911DA11D20D009F4689457
S1133B703F912AE0269F11243019305D3193DEF6FF
S1133B80CF010895462F4770405D4193B3E00FD0B5
S1133B90C9F7F6CF462F4F70405D4A3318F0495DA0
S1133BA031FD4052419302D0A9F7EACFB4E0A69583
S1133BB09795879577956795BA95C9F700976105A5
S1133BC0710508959B01AC010A2E069457954795FB
S1133BD037952795BA95C9F7620F731F841F951FF0
S10B3BE0A01D0895F894FFCF25
S1133BE82E00000000E609200000000000620435F1
S1133BF8040A041204250434040000000073057147
S1133C0805000000008705830553656E736F7244D1
S1133C186174612054454D50455241545552455F95
S1133C28432025692E25303269207C48554D494466
S1133C384954592025692E25303269207C42415245
S1133C484F4D455445525F4B50412025692E253030
S1133C583269004572726F72436F756E74732053C4
S1133C68454E534F5220256920434F4D4D20256919
S1133C782054494D454F5554202569205744542014
S1133C882569004876616352656C6179537461747F
S1133C986520256900537072696E6B6C6572526594
S1133CA86C61795374617465202569007C00202057
S1133CB8202020205A656865746E65727C207C20FB
S1133CC82020202020476174657761790020004C0A
S1133CD8636454657874004876616352656C6179ED
S1133CE8537461746500537072696E6B6C657252BB
S1133CF8656C61795374617465004D6F64656D20FA
S1133D085374617475737C20526573706F6E736538
S1133D18203078257800556E6B6E6F776E20506B67
S1133D28747C205479706520307825780052656356
S1133D3865697665204572726F727C4572726F721E
S1133D4820636F64652030782578005365742048B3
S1133D585641432072656C61797C626F617264209C
S1133D686164647265737320746F7C3078373200D1
S1133D7853657420537072696E6B6C65722072653A
S1133D886C61797C626F61726420616464726573CA
S1133D987320746F7C30783734004C6F73742053FD
S1133DA865727665727C436F6E6E656374696F6E57
S1133DB82E7C414C4C2053595354454D53204F4667
S1133DC8460000000000AA1513173E156F154F157D
S1053DD8981538
S9030000FC
