:107800000C94343C0C94513C0C94513C0C94513CE1
:107810000C94513C0C94513C0C94513C0C94513CB4
:107820000C94513C0C94513C0C94513C0C94513CA4
:107830000C94513C0C94513C0C94513C0C94513C94
:107840000C94513C0C94513C0C94513C0C94513C84
:107850000C94513C0C94513C0C94513C0C94513C74
:107860000C94513C0C94513C11241FBECFEFD8E036
:10787000DEBFCDBF11E0A0E0B1E0ECE7FDE702C064
:1078800005900D92A631B107D9F712E0A6E1B1E05B
:1078900001C01D92A13AB107E1F70E94FD3C0C9492
:1078A000BC3E0C94003C9091C00095FFFCCF8093AF
:1078B000C6000895FF920F931F93CF93DF9380919B
:1078C00000010E94533CC1E0D1E004E180E2F82EC7
:1078D0001991113131F0133121F01D3711F01E379C
:1078E00031F48DE70E94533C812F8F2501C0812FF9
:1078F0000E94533C015061F7DF91CF911F910F918E
:10790000FF90089581E08093150180E090E008C029
:10791000019621E6893A920719F41092150104C0E4
:107920002091C00027FFF4CF8091C600089590E019
:1079300028EC30E013C02D9A44EF51E0F901319763
:10794000F1F741505040D1F72D9844EF51E0F90143
:107950003197F1F741505040D1F79F5F981759F791
:1079600008950F931F93CF93DF933FB7F8942FB3EE
:1079700022702FBB07B600FCFDCFF999FECF83E044
:10798000FB0180935700E895DA0180E090E021E068
:10799000CC91FA01E80FF91F118100E0F801EC0F1A
:1079A000F11DEF01129607B600FCFDCFF999FECF4D
:1079B000FC01E60FF71F0E0120935700E8951124F4
:1079C00002968038910521F707B600FCFDCFF999A2
:1079D000FECF85E0FB0180935700E89507B600FCD9
:1079E000FDCFF999FECF81E180935700E8953FBF25
:1079F000DF91CF911F910F91089584B78EBB14BE74
:107A0000A89598E10FB6F8949093600010926000EA
:107A10000FBE259A80FF05C0E0911601F091170175
:107A2000099510929B0210929A021092C5008CE068
:107A30008093C4001092C00088E18093C10086E06A
:107A40008093C20083E00E94973CCC24DD24760121
:107A5000C8ECD0E017C00894C11CD11CE11CF11C7B
:107A600081E3C81685E7D80680E0E80680E0F806DE
:107A700030F0E0911601F0911701099503C0CE0195
:107A80000197F1F78091C00087FFE5CF10929C022B
:107A900010929D0210929E0210929F021092A002DC
:107AA00090E2C92E28ECE22EF12CDD24D3940E9422
:107AB000823C8E37E1F70E94823C80911501882339
:107AC000B1F30E94823C90E09093190180931801D9
:107AD00020911501222359F38D37910539F40E9425
:107AE000823C8C2580931801109219018091150118
:107AF0008823E9F210929C02C0E0D0E01EC0809181
:107B00009C028E0106561E4F882341F00E94823C43
:107B10008C25F801808310929C0209C00E94823C4F
:107B2000F80180838D3719F42197D0929C028091BF
:107B30001501882309F4BBCF2196809118019091FB
:107B40001901C817D907D8F280919A01803909F034
:107B5000AECF0E94823C90911501992309F4A7CFE2
:107B60008D3719F40E94823C8C2590911501992340
:107B700009F49DCFEBE9F1E0A5E0B1E020E030E0D1
:107B80002F5F3F4F91919D9328303105C9F7909118
:107B90009B0190931301E3E0F1E020E030E043E04B
:107BA00050E09191290F311D4F5F5F4F44315105D6
:107BB000C1F74FEF50E0421B530B4093140140912B
:107BC000180150911901EAE9F1E020E030E004C029
:107BD0009191890F2F5F3F4F24173507C9F78F3FCA
:107BE00009F0BCC08091A601803509F064C0809185
:107BF000A701823509F0A6C080919A0290919B025C
:107C0000009771F48091A8019091A901A0E0B0E0E3
:107C100080939D0290939E02A0939F02B093A00236
:107C20000AEA11E0C0E1D0E03BC080919A02909155
:107C30009B02F80121918F01FC01E65EFE4F20833B
:107C4000019690939B0280939A028038910539F5B2
:107C500081E00E94973C60919D0270919E0280910C
:107C60009F029091A0024AE151E00E94B13C109223
:107C70009B0210929A0280919D0290919E02A09187
:107C80009F02B091A00280589F4FAF4FBF4F80938B
:107C90009D0290939E02A0939F02B093A002219612
:107CA0008091180190911901C817D90708F4BDCF28
:107CB0000E945A3CFCCE853409F044C08091A70153
:107CC0008E3409F03FC080919A0290919B020097F8
:107CD00039F181E00E94973C60919D0270919E0273
:107CE00080919F029091A0024AE151E00E94B13C34
:107CF00010929B0210929A0280919D0290919E0296
:107D0000A0919F02B091A00280589F4FAF4FBF4FEC
:107D100080939D0290939E02A0939F02B093A00235
:107D20000E945A3C88EE93E0F7013197F1F70197F2
:107D3000D9F782E00E94973CE0911601F09117017B
:107D40000995B5CE83E00E94973C84EC99E0F70159
:107D50003197F1F70197D9F783E00BC082E00E94D9
:107D6000973C84EC99E0F7013197F1F70197D9F747
:0C7D700082E00E94973C9BCEF894FFCF6D
:107D7C007E001110000102030405060708FFFE0037
:067D8C00004F4B01CC0189
:040000030000780081
:00000001FF
