:020000023000CC
:10F000000D9472F80D9494F80D9494F80D9494F86E
:10F010000D9494F80D9494F80D9494F80D9494F83C
:10F020000D9494F80D9494F80D9494F80D9494F82C
:10F030000D9494F80D9494F80D9494F80D9494F81C
:10F040000D9494F80D9494F80D9494F80D9494F80C
:10F050000D9494F80D9494F80D9494F80D9494F8FC
:10F060000D9494F80D9494F80D9494F80D9494F8EC
:10F070000D9494F80D9494F80D9494F80D9494F8DC
:10F080000D9494F80D9494F80D9494F80D9494F8CC
:10F090000D9494F80D9494F80D9494F80D9494F8BC
:10F0A0000D9494F80D9494F80D9494F80D9494F8AC
:10F0B0000D9494F80D9494F80D9494F80D9494F89C
:10F0C0000D9494F80D9494F80D9494F80D9494F88C
:10F0D0000D9494F80D9494F80D9494F80D9494F87C
:10F0E0000D9494F811241FBECFEFD1E2DEBFCDBF47
:10F0F00001E00CBF12E0A0E0B2E0EAE3F6EF03E0CB
:10F100000BBF02C007900D92A631B107D9F71BBE05
:10F1100014E0A6E1B2E001C01D92AF31B107E1F702
:10F120000F9464F90D941BFB0D9400F81CBE1CBCDD
:10F13000EE27FF27199408959091C80095FFFCCF02
:10F140008093CE000895FF920F931F93CF93DF9388
:10F15000809100020F949CF8C1E0D2E004E180E2CB
:10F16000F82E1991113131F0133121F01D3711F0C2
:10F170001E3731F48DE70F949CF8812F8F2501C045
:10F18000812F0F949CF8015061F7DF91CF911F916F
:10F190000F91FF90089581E08093150280E090E048
:10F1A00008C0019621E6893A920719F410921502D7
:10F1B00004C02091C80027FFF4CF8091CE000895AD
:10F1C00090E028EC30E013C02F9A44EF51E0F901B1
:10F1D0003197F1F741505040D1F72F9844EF51E06B
:10F1E000F9013197F1F741505040D1F79F5F9817DF
:10F1F00059F70895AF92BF92CF92DF92EF92FF92AC
:10F200000F931F93CF93DF938B019C01EA01BFB64D
:10F21000F8948FB382708FBB07B600FCFDCFF999CD
:10F22000FECF83E0F80120935B0080935700E895C0
:10F2300040E050E0BA01AA24A3948881D980CC246C
:10F240007601E80EF11C229607B600FCFDCFF99975
:10F25000FECFDB01CA01800F911FA21FB31F070160
:10F26000FC01A0935B00A0925700E89511244E5F2B
:10F270005F4F6F4F7F4F403081E0580780E0680755
:10F2800080E07807D1F607B600FCFDCFF999FECFF4
:10F2900085E0F80120935B0080935700E89507B65E
:10F2A00000FCFDCFF999FECF81E180935700E895EE
:10F2B000BFBEDF91CF911F910F91FF90EF90DF9034
:10F2C000CF90BF90AF90089584B78EBB14BEA89521
:10F2D00098E10FB6F89490936000109260000FBE12
:10F2E000279A80FF02C00F9496F81092190410928A
:10F2F00018041092CD008CE08093CC001092C800CE
:10F3000088E18093C90086E08093CA0083E00F946F
:10F31000E0F8CC24DD247601C8ECD0E014C00894D9
:10F32000C11CD11CE11CF11C21E3C21625E7D20649
:10F3300020E0E20620E0F20618F00F9496F803C0F1
:10F34000CE010197F1F78091C80087FFE8CF1092B6
:10F350001A0410921B0410921C0410921D041092A7
:10F360001E0490E2C92E28ECE22EF12CDD24D39469
:10F370000F94CBF88E37E1F70F94CBF880911502FC
:10F380008823B1F30F94CBF890E090931702809309
:10F39000160220911502222359F38D37910539F475
:10F3A0000F94CBF88C25809316021092170280914F
:10F3B00015028823E9F210921A04C0E0D0E01EC0C2
:10F3C00080911A048E01085E1C4F882341F00F942F
:10F3D000CBF88C25F801808310921A0409C00F9491
:10F3E000CBF8F80180838D3719F42197D0921A0455
:10F3F00080911502882309F4BBCF219680911602D3
:10F4000090911702C817D907D8F280911803803954
:10F4100009F0AECF0F94CBF890911502992309F41F
:10F42000A7CF8D3719F40F94CBF88C259091150246
:10F43000992309F49DCFE9E1F3E0A5E0B2E020E0F3
:10F4400030E02F5F3F4F91919D9328303105C9F7F0
:10F450009091190390931302E3E0F2E020E030E092
:10F4600043E050E09191290F311D4F5F5F4F4431D0
:10F470005105C1F74FEF50E0421B530B409314026C
:10F480004091160250911702E8E1F3E020E030E0ED
:10F4900004C09191890F2F5F3F4F24173507C9F79B
:10F4A0008F3F09F0BAC080912403803509F065C010
:10F4B00080912503823509F0A4C0809118049091B1
:10F4C0001904009771F48091260390912703A0E01E
:10F4D000B0E080931B0490931C04A0931D04B09390
:10F4E0001E0408E213E0C0E1D0E03CC080911804A3
:10F4F00090911904F80121918F01FC01E85EFD4F04
:10F50000208301969093190480931804F1E08030D1
:10F510009F0739F581E00F94E0F860911B0470912A
:10F520001C0480911D0490911E0448E152E00F9448
:10F53000FAF8109219041092180480911B0490910B
:10F540001C04A0911D04B0911E0480509F4FAF4F2A
:10F55000BF4F80931B0490931C04A0931D04B09391
:10F560001E0421968091160290911702C817D907A0
:10F5700008F4BCCF0F94A3F8FBCE853409F041C04A
:10F58000809125038E3409F03CC08091180490913D
:10F590001904009739F181E00F94E0F860911B04A1
:10F5A00070911C0480911D0490911E0448E152E06A
:10F5B0000F94FAF8109219041092180480911B0409
:10F5C00090911C04A0911D04B0911E0480509F4F87
:10F5D000AF4FBF4F80931B0490931C04A0931D0456
:10F5E000B0931E040F94A3F888EE93E0F7013197CF
:10F5F000F1F70197D9F782E00F94E0F80F9496F8AD
:10F60000B7CE83E00F94E0F884EC99E0F7013197EE
:10F61000F1F70197D9F783E00BC082E00F94E0F88F
:10F6200084EC99E0F7013197F1F70197D9F782E07F
:0AF630000F94E0F89DCEF894FFCF90
:10F63A007E001110000102030405060708FFFE0000
:06F64A00004F4B01CC0152
:040000033000F000D9
:00000001FF
