:02000004080AE8
:1000000000000A08CC3E0A080000060006000501B0
:080010000402E80500000000F5
:040018005C3A0A083C
:1000200009480A4908B5884205D0094A824202D0E7
:10003000121A03F0C7FC0748074A0021121A03F0FE
:10004000CCFC064808BD00BF000000203C3E0A086A
:100050006800002068000020BC060020BC060020CC
:1000600070B502F075F9074B074C1E46E41AA40858
:100070000025A54204D056F8253098470135F8E709
:1000800070BD00BFF43D0A08303E0A0800F052B8C7
:1000900008B500F0A5F8BDE8084002F01BB901F072
:1000A00095B801F09BB80078B0FA80F0400970472D
:1000B00001230370704710B50446043001F0F5FBCE
:1000C000204610BD10B504463C3001F0EEFB04F1B3
:1000D000280001F0EAFB204601F0E7FB204610BDB6
:1000E00038B50B4B8469054603607CB16368013BFE
:1000F00063605BB9236820469B689847A368013B0F
:10010000A3601BB923682046DB689847284638BDA2
:10011000703C0A0810B50446FFF7E2FF204610BD08
:1001200010B50446FFF7DCFF20461C2102F001FA5F
:10013000204610BD70B588B001F0E6FF4FF41651AF
:1001400001F0D6FF01F03EFF4FF4165101F030FFF1
:1001500005211D4800F0B9F91C4B1D4C00251D6000
:1001600002F0A4F901F094F87723257025716571E8
:100170000A2001256370174EA571E571257201F003
:100180003DF8204600F0B2FC03230093A8222B4642
:10019000C02102A806F1140403AD01F017F90FCD38
:1001A0000FC42B680C49237041F6447302A8B36353
:1001B00001F0C2FB02A906F1280001F0EDFB02A844
:1001C00001F073FB08B070BD4205002070000020F4
:1001D000F40400208C000020703A0A08000000009F
:1001E000F7B501F0EFFE03685B6998470028C0F29D
:1001F0008B804949494B0C68621C092A0A601855D2
:10020000474A4FF0000414DD0C601978AA290BD17D
:10021000597AAB2908D1DE7899785C791B7901EBA2
:10022000062603EB042400E026461368013313601E
:1002300000E026461368042B66DD394B0027394D54
:100240001F604FF47A700323EB7000F0D7FF36483D
:1002500000F0F0F8344800F0F0F80121324800F0E6
:1002600019F901F0AFFE314901F060F901F0AAFE81
:100270000A22314601F061F901F0A4FE2C4901F097
:1002800055F901F09FFE0A22214601F056F902219C
:10029000254800F0FFF801F095FE0446284600F0DE
:1002A000CFFA3A460146204601F020FA01F08AFED4
:1002B000204901F03BF901F085FE0446284600F094
:1002C00077FA3A460146204601F010FA01F07AFE2C
:1002D000194901F02BF901F075FE0446284600F09B
:1002E00095F902F0EFFB0AA3D3E9002302F068FDC1
:1002F000009702460B46204601F007FA01F062FE25
:100300000E4901F013F9EF7003B0F0BDAFF30080B8
:100310000000000000A054408800002038050020A4
:100320006C000020F404002042050020973A0A08DF
:100330009D3A0A089F3A0A08A23A0A08A53A0A080A
:1003400070B500F023FD1C4C1C4800F051F81C480F
:1003500000F0CEF81B4E204600F042F81A4D204621
:100360001A4C32461A4902F0DFF82946204601F0BD
:10037000E3FA04F1100000F0F3FF294604F128002D
:1003800001F0DAFA294604F13C0001F0D5FA2046E2
:10039000104C3246104902F0C7F82946201D01F0E2
:1003A000CBFA32460D49204602F0BEF8BDE8704057
:1003B0000021012000F096BED80000204205002058
:1003C000F404002068000020C63B0A088C000020CE
:1003D00015010A0874000020C5000A08B7000A08C1
:1003E00010B5044601F026FD204610BD00F0CEBC3D
:1003F00010B5044601F0E6FD4FF4165101F0D8FDAA
:100400000223E3701023237100236371204610BD83
:1004100010B50C4601F0D6FDFE2101F0CCFD01F037
:10042000D1FD036821469B689847BDE81040052030
:1004300000F0E4BE0121FFF7EBBF0221FFF7E8BFA8
:10044000F0B589B06C460F46114D864616460FCD65
:100450000FC495E80F0084E80F00791E012915D814
:10046000721E0F2A12D870469EF8053001EB8301E8
:1004700008AB03EB810151F8201C114461F07F01AE
:10048000C9B209B0BDE8F040FFF7C2BF09B0F0BD86
:10049000AC3A0A080A1E05DDC3789A4202DC012242
:1004A000FFF7CEBF704710B50C4601F08BFD7C21E5
:1004B00001F081FD01F086FD036821469B689847A5
:1004C000BDE81040052000F099BE01391D2904D86F
:1004D00061F07F01C9B2FFF7E6BF704700F056BC7C
:1004E00010B50446806808B100F028FC204610BD15
:1004F0000D4B70B50446012500260364772380F870
:100500003850C6630670437001F0D0FF0A23A37011
:100510000323E3700023E06326716671A571E57122
:100520002572E360204670BD80E6C54738B50B4DA7
:10053000296811F001040FD12846FFF7B4FD58B126
:100540002146074801F0FDF82846FFF7B1FD054AAE
:100550000549034801F0E8FF014838BD480500207F
:100560004C05002068000020E1040A0810B504468C
:10057000FFF7DCFF2146BDE8104001F08DB9F8B56A
:100580001E46037804460D46174613B1012B1ED0B4
:10059000F8BD90F83830012B37D14178C06B00F0AE
:1005A000AEFEE06B394603689B689847E06B00F04D
:1005B000AEFE32466178E06B00F09EFE2E44E06BAA
:1005C00003681B69984700B3B54217D1F8BD0021F5
:1005D000807801F038FF47F08000FFF7C7FF2E4416
:1005E000B54205D00020FFF7C1FF05F8010BF7E782
:1005F000A0780121BDE8F84001F025BFE06B036859
:100600005B69984705F8010BD9E7F8BD2DE9F74F6D
:1006100004460323F72201A9FFF7B1FF606BB4F989
:100620001820C117B0F5FA3041F1FF31A0FB006787
:1006300000FB01F302FB01F507EB4307D31700FBB7
:100640000355A2FB00232B444FEA033B4BEA125B0A
:100650004FEA023AB4F91A2002FB07F5D31706FB5A
:100660000355A2FB06232B444FEA122848EA0368ED
:100670004FEA23291AEB080AE28A4BEB090B1AF11D
:10068000000AAAFB02894BF5004B02FB0B994FEACB
:1006900069024FEAE97352EA030500F08580B4F974
:1006A00020A0B4F91E800AFB07F54FEAEA7B06FB9F
:1006B0000B55AAFB06672F4408FB01F54FEAE879C2
:1006C00000FB0955A8FB000129449DF806504FEA9C
:1006D000414B9DF805102D0945EA01159DF80410C0
:1006E0004FEA404A45EA01351AEB060AC5F580157E
:1006F0004BEAD03B4BEB070BEF17F90741EA5501EB
:10070000E80740F63545B4F91C80002616EB0A06CA
:100710004FEAC80747EB0B07861B61EB0707A6FBF1
:10072000050105FB071102F077FFB4F926204D13F0
:1007300002FB05F7460B46EAC146D31706FB0377D3
:10074000A2FB062355433B4406FB0355A2FB0623AD
:100750002B44560E46EAC316B4F9242036184FEA45
:1007600063674F415143D31700FB0313A2FB000102
:100770001944C20CB4F9224042EA413292194FEABC
:10078000E1437B41100AE517220140EA0360191298
:100790002B0143EA14738018594102F0AFFD4FF06A
:1007A0006E5102F0E9FD00E0002003B0BDE8F08FDB
:1007B00013B5044601A90223FD22FFF7E0FEBDF8B0
:1007C0000430626B5BBA98B2B4F92E30B4F93010D1
:1007D0001B05A2F59632C3EB803302FB113303F500
:1007E0008043D81394F82C3094F9321053434A4381
:1007F000DB12921203F500435343B4F92A209B12F3
:1008000003F50013534303F500539B134343D813DD
:10081000404394F82820C0115043A3EB201020EA55
:10082000E070B0F1C85FA8BF4FF0C850001302F0ED
:100830004FFD4FF06A5102F09FFD02B010BD000065
:1008400013B5044601A90323FA22FFF798FE9DF889
:1008500005209DF80430120142EA03339DF806207A
:10086000208A43EA1212C0EB12135B434000C0EB34
:10087000D202B4F912001B135043B4F914205343AD
:100880009B1303EBE020606300EB800080300012DC
:1008900002F01EFD034902F023FEE16802F064FC51
:1008A00002B010BD0000C842F8B5067804460D46F7
:1008B00096B1012E31D10021807801F0C4FD45F0C0
:1008C0008000FFF753FE0020FFF750FE314605463B
:1008D000A07801F0B8FD23E090F83870012F1ED108
:1008E0004178C06B00F00BFDE06B2946036835468C
:1008F0009B689847E06B00F00AFD3A466178E06B30
:1009000000F0FAFCE06B03681B69984740B1E06BAC
:1009100003685B699847C5B2F4E7002500E03546F7
:100920002846F8BD08B5F421FFF7BEFF00F003002C
:1009300008BDF8B5057804460F46164615B1012DD9
:1009400017D0F8BD90F83830012B23D14178C06B17
:1009500000F0D5FCE06B394603689B689847E06B74
:10096000314603689B689847E06BBDE8F84000F0AB
:10097000CEBC0021807801F066FD07F07F00FFF714
:10098000F5FD3046FFF7F2FD2946A078BDE8F840B6
:1009900001F059BDF8BD38B5032994BF0D460025B7
:1009A000F4210446FFF780FF00F0FC0045EA000256
:1009B000F4212046BDE83840FFF7BBBF38B5072912
:1009C00094BF0D460025F5210446FFF76DFF00F0AA
:1009D0001F0040EA4512D2B22046BDE83840F5215A
:1009E000FFF7A7BF38B5072994BF0D460025F521AD
:1009F0000446FFF759FF20F01C0040EA8502D2B2FE
:100A00002046BDE83840F521FFF793BF102998BF75
:100A1000104B70B598BF5D5C044688BF0125FFF799
:100A200081FF002106462046FFF7B5FFF42120464E
:100A3000FFF73AFF00F01F0040EA4512F42120467C
:100A4000D2B2FFF776FF31462046BDE87040FFF78F
:100A5000A2BF00BFCC3A0A08102998BF104B70B54E
:100A600098BF5D5C044688BF0125FFF75BFF00214E
:100A700006462046FFF78FFFF4212046FFF714FFBC
:100A800020F01C0040EA8502F4212046D2B2FFF794
:100A900050FF31462046BDE87040FFF77CBF00BFE5
:100AA000CC3A0A08102998BF0F4B70B598BF5D5C0F
:100AB000044688BF0125FFF735FF00210646204682
:100AC000FFF769FFF2212046FFF7EEFE00F0F80283
:100AD0002A432046F221FFF72CFF31462046BDE88D
:100AE0007040FFF758BF00BFCC3A0A0838B504463B
:100AF000022000F083FB2578EDB1012D22D1FFF714
:100B000015FD00F02DFEFFF711FD202100F0A0FEE5
:100B1000FFF70CFD294600F033FEFFF707FD032128
:100B200000F03EFE2946A07801F07CFC2946A07822
:100B300001F089FC06E094F83830012B02D1E06B1B
:100B400000F0A6FBD0212046FFF7AEFE582802D0C9
:100B5000602840F0E88089212046FFF7A5FE882123
:100B600005462046FFF7A0FE00EB052020828B21E2
:100B70002046FFF799FE8A2105462046FFF794FE9E
:100B800000EB052060828D212046FFF78DFE8C2131
:100B900005462046FFF788FE00EB0520A0828F2146
:100BA0002046FFF781FE8E2105462046FFF77CFE9A
:100BB00000EB0520E08291212046FFF775FE902191
:100BC00005462046FFF770FE00EB052020839321A9
:100BD0002046FFF769FE922105462046FFF764FE96
:100BE00000EB0520608395212046FFF75DFE9421F0
:100BF00005462046FFF758FE00EB0520A08397210D
:100C00002046FFF751FE962105462046FFF74CFE91
:100C100000EB0520E08399212046FFF745FE98214F
:100C200005462046FFF740FE00EB052020849B216F
:100C30002046FFF739FE9A2105462046FFF734FE8D
:100C400000EB052060849D212046FFF72DFE9C21AE
:100C500005462046FFF728FE00EB0520A0849F21D3
:100C60002046FFF721FE9E2105462046FFF71CFE89
:100C700000EB0520E084A1212046FFF715FEE221CC
:100C800084F828002046FFF70FFEE12105462046A4
:100C9000FFF70AFE00EB05206085E3212046FFF701
:100CA00003FEE42184F82C002046FFF7FDFDE5213A
:100CB00005462046FFF7F8FD00F00F0000EB051099
:100CC000E085E6212046FFF7EFFDE52105462046B9
:100CD000FFF7EAFDC0F3071000EB05102086E721BF
:100CE0002046FFF7E1FD217984F832002046FFF726
:100CF00065FE61792046FFF775FEE1792046FFF732
:100D0000ABFE217A2046FFF7CDFEA1792046FFF702
:100D10007DFE20460321FFF73EFE2046BDE8384019
:100D2000D021FFF7C1BD38BD00F030B808B5024B87
:100D30001B685B6C019308BDD001060808B5024B27
:100D40001B689B6C019308BDD001060808B5024BD7
:100D50001B68DB6C019308BDD001060808B5024B87
:100D60001B685B6D019308BDD001060808B5024BF6
:100D70001B685B68019308BD9C01060808B5024B1F
:100D80001B685B69019308BD9C01060808B5024B0E
:100D90001B681B68019308BDB001060808B5024B2B
:100DA0001B689B68019308BDB001060808B5024B9B
:100DB0001B68DB68019308BDB001060808B5024B4B
:100DC0001B681B69019308BDB001060808B5024BFA
:100DD0001B68DB6C019308BDAC01060808B5024B2B
:100DE0001B689B6D019308BDAC01060808B5024B5A
:100DF0001B68DB6D019308BDAC01060808B5024B0A
:100E00001B681B6E019308BDAC01060808B5024BB8
:100E10001B685B6E019308BDAC01060808B5024B68
:100E20001B689B6E019308BDAC01060808B5024B18
:100E30001B68DB6E019308BDAC01060808B5024BC8
:100E40001B681B6F019308BDAC01060808B5024B77
:100E50001B685B6F019308BDAC01060808B5034B26
:100E60001B68D3F88030019308BD0000AC01060870
:100E700008B5034B1B68D3F89030019308BD000000
:100E8000AC01060808B5024B1B681B68019308BD3E
:100E9000BC01060808B5024B1B685B68019308BDDE
:100EA000BC01060808B5024B1B689B68019308BD8E
:100EB000BC01060808B5024B1B68DB68019308BD3E
:100EC000BC01060808B5024B1B681B69019308BDED
:100ED000BC01060808B5024B1B681B6A019308BDDC
:100EE000BC01060808B5024B1B681B6B019308BDCB
:100EF000BC01060808B5024B1B685B6C019308BD7A
:100F0000BC01060808B5024B1B681B68019308BDAD
:100F1000B401060808B5024B1B689B68019308BD25
:100F2000B401060808B5024B1B68DB68019308BDD5
:100F3000B401060808B5024B1B681B69019308BD84
:100F4000B401060808B5024B1B685B69019308BD34
:100F5000B401060808B5024B1B68DB69019308BDA4
:100F6000B401060808B5024B1B681B6A019308BD53
:100F7000B401060808B5024B1B685B6A019308BD03
:100F8000B401060808B5024B1B689B69019308BDB4
:100F9000C401060808B5024B1B685B6A019308BDD3
:100FA000C401060808B5024B1B689B6A019308BD83
:100FB000C401060808B5024B1B68DB6A019308BD33
:100FC000C401060808B5024B1B681B6B019308BDE2
:100FD000C401060808B5024B1B685B6B019308BD92
:100FE000C401060808B5024B1B689B6B019308BD42
:100FF000C401060808B5024B1B681B6C019308BDB1
:10100000C401060808B5024B1B68DB6C019308BDE0
:10101000C401060808B5024B1B681B6D019308BD8F
:10102000C401060808B5024B1B681B68019308BD84
:10103000D801060808B5024B1B685B68019308BD20
:10104000D801060808B5024B1B681B69019308BD4F
:10105000D801060808B5024B1B685B69019308BDFF
:10106000D801060808B5024B1B689B69019308BDAF
:10107000D801060808B5024B1B68DB69019308BD5F
:10108000D801060808B5024B1B681B6A019308BD0E
:10109000D801060808B5024B1B685B6C019308BDBC
:1010A000C001060808B5024B1B689B6C019308BD84
:1010B000C001060808B5024B1B681B6D019308BDF3
:1010C000A801020808B5024B1B685B68019308BDC4
:1010D000A401060808B5024B1B685B69019308BDB3
:1010E000A401060808B5024B1B68DB6A019308BD22
:1010F000A401060808B5034B1B68D3F89030019390
:1011000008BD0000A401060808B5034B1B68D3F80E
:101110009C30019308BD0000A401060808B5024BED
:101120001B68DB6B019308BDCC01060808B5024BB8
:101130001B685B68019308BDC801060808B5024B2F
:101140001B689B68019308BDC801060808B5024BDF
:101150001B68DB68019308BDC801060808B5024B8F
:101160001B681B69019308BDC801060808B5024B3E
:101170001B685B69019308BDC801060808B5024BEE
:101180001B689B69019308BDC801060808B5024B9E
:101190001B68DB69019308BDC801060808B5024B4E
:1011A0001B681B6A019308BDC801060808B5024BFD
:1011B0001B681B6B019308BDC801060808B5024BEC
:1011C0001B685B6B019308BDC801060808B5024B9C
:1011D0001B681B68019308BDA001060808B5024BF7
:1011E0001B685B68019308BDA001060808B5024BA7
:1011F0001B689B68019308BDA00106080021FFF74A
:1012000069BF10B58368044613B1032201469847AD
:10121000204610BD7047F8B5064615460C468F1897
:10122000BC4206D0336814F8011B9B6830469847CF
:10123000F6E72846F8BD0022007CFFF7DFBD00215D
:10124000007CFFF7E3BD0021007CFFF7E7BD002134
:10125000007CFFF7EBBD0021007CFFF7EFBD10B570
:101260000446142101F065F9204610BD10B504466E
:10127000002363604FF47A73A360044B2174084623
:1012800023601146FFF7EAFD204610BDE83A0A0840
:1012900000231A461946007CFFF798BD70B50C462E
:1012A000064686B014252A46002101A802F095FBC7
:1012B000237800228DF80830636801A90393E3685E
:1012C000307C0493237AADF804500593FFF7D0FDEA
:1012D00006B070BD1FB500338DF800104FF06401EB
:1012E000039118BF0123694601928DF80830FFF77A
:1012F000D5FF05B05DF804FB0123FFF7EBBF00222B
:10130000007CFFF76BBD0022007CFFF76FBD012161
:10131000FFF7F9BF0021007CFFF798BD704710B5BB
:101320000446182101F005F9204610BDF8B50F4616
:1013300000F10806051D002416F8011D0A22384692
:1013400000F0FBF8AE42044407D0002CF4D02E216C
:10135000384600F0EFF80444EEE72046F8BD000000
:1013600010B50446044B112240F8043B002102F062
:1013700034FB204610BD00BF103B0A080346074A55
:1013800010B543F8042B01F1100251F8044B9142BF
:1013900043F8044BF9D10A781A7010BD103B0A08C3
:1013A000024A41600260042202757047103B0A083D
:1013B00010B59DF8084044EA032343EA024242EA9A
:1013C000016104234160037510BD000037B5044D71
:1013D00005609DF818500095FFF7EAFF03B030BD97
:1013E000103B0A080068FFF7B1BC0000014A024B3D
:1013F0001A607047923B0A085805002000231A46DD
:101400004068FFF793BE002202214068FFF79EBEAE
:10141000002211464068FFF791BE00221146406845
:10142000FFF79CBE00231A4619464068FFF79EBE90
:1014300000231A4619464068FFF7A0BE002281F03B
:1014400001014068FFF7A2BE00224068FFF7AEBE70
:10145000002211464068FFF7B1BE002211464068E5
:10146000FFF79CBE70B516468EB0044608A8FFF77D
:1014700077FF1122002103A802F0AFFA304602F0F4
:10148000E5FA00250A4B009581B25B6803AA304655
:10149000FFF708FE20B129462046FFF781FF03E051
:1014A00003A92046FFF76AFF20460EB070BD00BFBB
:1014B000D4050020034B044A04280CBF10461846EC
:1014C000704700BF5C050020D4050020024B034A92
:1014D0001A6000225A6070475C050020083C0A0828
:1014E000F8B506460D468F180024BD420CD033686F
:1014F00015F8011B9B6830469847002801DB04441F
:10150000F3E7002C08BF04462046F8BD70B5054639
:101510000C46084649B102F099FA2B68024621466A
:101520002846BDE87040DB68184770BD08B5FFF776
:10153000EDFF08BD03689B681847012A98BF0A227F
:1015400030B50B468BB000218DF824100DF123042B
:10155000B3FBF2F505FB1233DBB2092B94BF30333A
:101560003733DBB2214604F801392B46002DEFD189
:10157000FFF7CCFF0BB030BD2DE9F0471946804690
:10158000104617461E469DF8205001F089FD08B10F
:101590004D4912E026F000444FF0FF324B4B3846E5
:1015A000214601F07DFD68B94FF0FF32474B3846C8
:1015B000214601F057FD28B945494046FFF7A6FFEF
:1015C000BDE8F0874FF06042424B3846314601F0AB
:1015D0005DFD08B14049F0E74FF060423F4B3846AF
:1015E000314601F035FD0028F4D1002200233846B1
:1015F000314601F02DFD38B12D214046FFF79AFF0D
:1016000006F10046044600E0044635494FF0000963
:1016100000205FFA89F39D4206D90022314B01F088
:10162000CFFB09F10109F4E73A46334601F0ECF843
:101630000F46064601F072FD0A22014681464046E9
:10164000FFF77BFF0444E5B3484601F019FA024670
:101650000B463046394601F0D5F806460F4640465F
:101660002149FFF753FF044400221E4B3046394600
:1016700001F07CFA06460F4601F028FDB0F1000AA1
:1016800007DA2D214046FFF755FFCAF100018146D8
:1016900002E051464FF000090A224046FFF74DFF95
:1016A00048440444504601F0FBF902460B463046DC
:1016B000394601F0A7F8013D15F0FF0506460F4633
:1016C000D2D12046BDE8F087343C0A08FFFFEF7F07
:1016D0003E3C0A08FFFFEF41383C0A08FFFFEFC11C
:1016E0000000E03F000024403C3C0A0837B50546B6
:1016F0001446084601F0E6F9E4B2024600940B46AF
:101700002846FFF739FF03B030BD9DF80010009167
:10171000FFF732BF10B50446FFF773FD204610BD3A
:10172000034800238360034A034900F0FDBE00BF65
:10173000640500206800002015170A080068FFF7FC
:101740000DBB70B504460E46002540F8085FFFF754
:10175000EDFA30462670FFF7FDFB6560204670BD50
:1017600038B5054600F108042046FFF73BFE28780F
:101770004FF6FF71FFF7C6FB2046FFF7DFFF38BDCE
:1017800070B505460E4600F108042046FFF72AFE14
:1017900028783146FFF7BEFB2046FFF7CFFF70BD2C
:1017A00070B505460E4600F108042046FFF71AFE04
:1017B00028783146FFF7B6FB2046FFF7BFFF70BD24
:1017C000400830B5186000241868E5B2884206D990
:1017D0000134082C02D040081860F5E70725024BB9
:1017E0005B5D137030BD00BF423C0A082DE9F0413B
:1017F000054600F1080688B0002402FB01F73046D8
:101800000294FFF7EFFD95F800802146142203A80B
:1018100002F0E3F80B23224603A94046ADF80C3052
:10182000FFF7A8FB02AB0DF10702394604988DF8CB
:101830000740FFF7C5FF9DF807102878FFF77AFBF0
:101840003046FFF77BFF029808B0BDE8F08100004A
:1018500070B5044600F1080528460E46FFF7C2FDA4
:10186000616879B10B4A0023985CB04202D0013321
:10187000082BF9D10133DBB20122D9402046FFF712
:10188000B5FF03E031462078FFF754FB2846FFF709
:1018900055FF70BD423C0A0808B50078FFF752FBBF
:1018A000C0B208BD0078FFF75DBB10B50446006804
:1018B000FFF794FC204610BD10B50446006808B13F
:1018C000FFF78CFC00232360A360636010BD38B574
:1018D00004460D4600680131FFF788FC10B184E82A
:1018E0002100012038BD10B50368044613B14368D8
:1018F0008B4207D22046FFF7EAFF20B1A3680BB95D
:1019000022681370012010BD70B50E4611460446C2
:101910001546FFF7E8FF18B92046FFF7CDFF09E0AD
:101920002A463146A560206802F04CF82268A36878
:101930000021D154204670BD38B500230446036011
:101940004360836003730D4639B1084602F07EF8A8
:10195000294602462046FFF7D7FF204638BD38B556
:10196000054600680C4660B16A688B689A4206D3E7
:10197000096802F063F8A368AB6000230AE0FFF790
:101980002DFC23682B6063686B60A368AB60002349
:1019900023606360A36038BD884210B5044601D05F
:1019A000FFF7DDFF204610BD10B50446006818B1F2
:1019B000FFF714FC0023236010BD10B50446FFF7A9
:1019C000F3FF204610BD00004FF6FF7310B5084C22
:1019D00000202060A080A07120816381FFF772FB4E
:1019E0002046BDE81040034A034900F09DBD00BFFA
:1019F0007405002068000020BB190A0837B502AC46
:101A0000036804F8011DDD6B012247F230532146C3
:101A1000A84703B030BD10B40368DC6B47F2305305
:101A2000A44610BC604737B502AC036804F8011D3A
:101A3000DD6B214613460122A84703B030BD704735
:101A400070470020704710B50446142100F071FD66
:101A5000204610BDFEF725BB10B5044603689B6801
:101A60009847A368013BA3602BB923682046BDE8D3
:101A70001040DB68184710BD70B5044606464D6936
:101A8000044B8C3544F8043B0FCD0FC42B68304613
:101A9000237070BD103B0A0810B543690446B3F8C3
:101AA0008620B3F884309A4205D06269B2F8843057
:101AB0001344187910BD03681B6998470028F4D1B6
:101AC0004FF0FF3010BD10B543690446B3F88620CF
:101AD000B3F884309A4208D06269B2F88430591C55
:101AE000A2F884101344187910BD03681B69984745
:101AF0000028F1D14FF0FF3010BDF8B5436917460B
:101B0000B3F88620B3F8843005469A420E4606D1D3
:101B100003681B69984710B94FF0FF3414E06969F6
:101B20003046B1F88430B1F886401944E41ABC421A
:101B300028BF3C460431224601F044FF6A69B2F8EE
:101B400084302344A2F884302046F8BD4269002343
:101B5000A2F884304269A2F88630704738B54269ED
:101B60000446B2F886301BB1B2F884209A420CD0F9
:101B70002069FFF79FFC0368DB68984718B3636927
:101B80001868FFF787F918B91DE0FFF7DFFFEFE7E7
:101B90006069B0F886107F2915D8051DC1F1800253
:101BA000002329440068FFF78DF900280BDD6369E5
:101BB000B3F886200AB9A3F884206269B2F88630A7
:101BC0001844A2F886006269B2F88630B2F8840040
:101BD000181A38BD38B5436904461868FFF75AF932
:101BE00018B163691868FFF775F96569FFF77AF945
:101BF00028606069112200218C3001F0EEFE204641
:101C0000BDE83840FFF7A2BF2DE9F0411F46036849
:101C10008AB0DB6A06460C46154698473846FFF7F9
:101C200049FC0368DB689847002856D000972B468C
:101C3000062201210220D6F81480FFF733F9202371
:101C4000C8F8000000270293736903971B680120FE
:101C50000193234B02AA009322493B46FFF72AFA3D
:101C600073691868FFF716F9002836D03046FFF779
:101C70006DFF0223ADF808302B0A8DF80A30E379A6
:101C80004FF4FA508DF80C30A3798DF80B508DF885
:101C90000D3063798DF80E3014F8043F8DF80F3055
:101CA000FFF7F8F973690546102202A91868FFF7D3
:101CB00001F980462846FFF7EDF90FCC75698C35A0
:101CC0000FC523682B70B8F1000F05D0336830467C
:101CD000DB6A9847384600E001200AB0BDE8F08191
:101CE000BB3C0A08B43C0A0810B5436904461868AE
:101CF000FFF7D0F808B9002010BD2069FFF7DAFB24
:101D00000368DB6898470028F5D063691868FFF717
:101D1000B9F8B0FA80F0400910BD2DE9F341002573
:101D2000456004460E4617469846FFF7DDFF60B152
:101D300060690195CDF800802B463A46314600682F
:101D4000FFF7D8F8002803DA01E04FF0FF306060B9
:101D500002B0BDE8F08138B50446FFF7C5FF00BB0F
:101D60006369B3F88610B3F88420914219D11868DA
:101D7000FFF790F828B163691868FFF783F8012826
:101D800001D000250EE0236820461B6998470028F3
:101D900014BF0125002505D123682046DB6A98473A
:101DA00000E00125284638BD08B5FFF79DFF00304B
:101DB00018BF012008BD10B5044600230160A0F83B
:101DC0008430A0F886308830FFF7CAFA204610BD6C
:101DD0004FF47A7270B58260144A00234360026047
:101DE000436183610446A0200E46FEF758F905467C
:101DF00010B13146FFF7DFFF1420FEF750F903461C
:101E000028B1012242608260094A05610260A0692E
:101E10006561A36128B14368013B43600BB9FFF7DB
:101E20001BFE2046FFF792FE204670BD703C0A085C
:101E3000543C0A0810B50446FFF754F80146204602
:101E4000FFF7C6FF204610BD10B504460068FFF737
:101E500021F810B12068FFF73DF8204610BD10B5FD
:101E600004692046FFF7F0FF24B12046BDE810408A
:101E7000FEF717B910BD00002DE9F0431F460368B7
:101E80008FB0DB6A06460D46904698471348FFF729
:101E9000C4FA00B302A8FFF763FA284601F0D6FDA2
:101EA000002481B200943B4603AA2846FFF7FAF8C3
:101EB00080B9336809ADD3F82090094B03AC08937F
:101EC0000FCC0FC5236842462B7008A93B4630460D
:101ED000C84700E020460FB0BDE8F0835C05002055
:101EE000103B0A08024B1A68024B1A60704700BF89
:101EF000000000208005002070474174704708B53D
:101F0000007CFFF777F820EAE07008BD08B5007C98
:101F1000FFF748F820EAE07008BD08B5007CFFF73D
:101F200051F830EA200028BF4FF0FF3008BD08B557
:101F3000007CFFF73FF830EA200028BF4FF0FF3069
:101F400008BD007CFFF746B810B50446142100F028
:101F5000F0FA204610BD70B5457C04460E4625B902
:101F6000007CFFF747F8002805DD3146207CBDE8FE
:101F70007040FFF70FB8284670BD000010B504464A
:101F800008461146002262604FF47A72A260054A48
:101F900020742260012262741A46FEF7F3FF204685
:101FA00010BD00BF003D0A080023007CFFF72AB8DF
:101FB0000022FFF7F9BF007CFFF72CB8007CFFF789
:101FC00011B80000F8B5194C25684DB98420FEF70A
:101FD00066F8064618B18422294601F0FEFC266008
:101FE000134D2E684EB98420FEF759F8074618B1F4
:101FF0008422314601F0F1FC2F600E4F396811F058
:10200000010611D13846FEF74EF868B12268314614
:102010002B680948FFF7B2FF3846FEF749F8074A30
:102020000749054800F080FA0348F8BDA0050020E4
:10203000980500209C0500208405002068000020F1
:10204000F91E0A0841747047704708B50021007CEA
:10205000FFF708F830EA200028BF4FF0FF3008BD36
:1020600008B50121007CFEF7FDFF30EA200028BF03
:102070004FF0FF3008BD08B5007CFEF7EBFF20EA0B
:10208000E07008BD08B5007CFEF7DCFF20EAE070D8
:1020900008BD007CFEF7F6BF10B50446142100F021
:1020A00048FA204610BD38B50446007C0D46FEF7C0
:1020B000D1FF002801DC607C28B12946207CFEF796
:1020C000D9FF20EAE07038BD10B5044600236360F4
:1020D0004FF47A73A360054B0846236001232174F3
:1020E00063741146FEF79EFF204610BD303D0A087E
:1020F0000022007CFEF79EBF10B50446142200218A
:1021000001F06BFC204610BD30B50E4D87B001A824
:10211000FFF7F2FF296811F0010410D12846FDF7FE
:10212000C2FF60B101AA21460748FFF7CDFF28464C
:10213000FDF7BEFF054A0649034800F0F5F90248DD
:1021400007B030BDA4050020AC05002068000020C9
:1021500049200A0810B504461422002101F03DFC74
:10216000204610BD10B50E4C86B001A8FFF7F2FF57
:102170002368DB0710D42046FDF795FF60B101AA64
:1021800001210848FFF7A0FF2046FDF791FF064A0E
:102190000649044800F0C8F9024806B010BD00BF67
:1021A000A8050020C00500206800002049200A087A
:1021B000002211464068FEF7D1BFF0B5164689B03F
:1021C00011220F460446002103A801F006FC304608
:1021D00001F03CFC0025009581B27B6803AA3046E3
:1021E000FEF760FF20B129462046FFF7D9F803E04B
:1021F00003A92046FFF7C2F8204609B0F0BD00222F
:1022000011464068FEF7CABF002211464068FEF73B
:10221000D5BF00224068FEF7C9BF002281F001014E
:102220004068FEF7B3BF00231A4619464068FEF720
:10223000A5BF00231A4619464068FEF797BF002243
:1022400011464068FEF77ABF002202214068FEF77F
:102250007DBF00231A464068FEF768BF024B042288
:102260005A60024A1A607047D4050020603D0A088F
:1022700008B5144B33B1FFF747FF03681B69984754
:10228000002816DC104B33B1FFF79CFE03681B6976
:102290009847002810DC0D4B0BB1AFF300800C4BBE
:1022A0007BB1FFF75FFF03681B699847002806DCD6
:1022B00008BDAFF30080E5E7AFF30080EBE7AFF3D5
:1022C000008008BD000000000000000000000000C9
:1022D0000000000008B5FFF7CBFFFEF74FFD014BF4
:1022E000186008BDE40500200248034A0349121A99
:1022F00001F068BB0040024004400240383E0A083A
:1023000007B5002300931A466FF07701FEF7FCFE35
:1023100003B05DF804FB000007B543880A2B08D022
:10232000502B09D1094B1B683BB103B05DF804EB9E
:102330001847FFF7E5FF06E0002300931A466FF009
:102340007701FEF7E1FE03B05DF804FBDC05002039
:1023500038B5104C104D2368AB42104B0CBF012216
:1023600000221A7002D0FFF7BFFF2560FEF7FEFCC7
:10237000044601F03BFB0A4B13B12046AFF300804B
:1023800000210748FEF7CAFEBDE838400021054895
:10239000FEF7B0BE004002401E1C279AE005002058
:1023A0000000000019230A0870B51A4E044631686F
:1023B00011F001050FD13046FDF775FE58B12946E1
:1023C0001548FFF7BEF93046FDF772FE134A14496F
:1023D000114800F0A9F81048FFF764FA28B1A4F1F9
:1023E0000D03022B01D8002070BD00F05FF8FEF74E
:1023F00091FF08B1012CF6D9FFF7E4FDFFF7DEFDF0
:1024000018B1A4F11203012BEDD9172C8CBF0020B9
:10241000012070BD480500204C0500206800002008
:10242000E1040A08172838B504460D460AD8FF29E2
:1024300008D0FFF7B9FF28B129462046BDE838404B
:10244000FEF7ACBC38BD38B504460D46FEF7AEFC11
:10245000FF2810D0062804D84D2323FA00F0C30724
:1024600009D42046FFF7A0FF28B129462046BDE841
:102470003840FEF7A3BC38BD70B5044614252A4683
:10248000094E002101F0A9FA258020253146A560DA
:102490002561284600F067F831466060284600F064
:1024A00062F8E060204670BD8C3D0A0830B50E4DE4
:1024B00087B0296811F0010413D12846FDF7F3FD18
:1024C00078B101A8FFF7D8FF01AA21460748FEF717
:1024D000CDFE2846FDF7ECFD054A0649034800F00D
:1024E00023F8024807B030BDE8050020EC050020C5
:1024F0006800002015120A0813B5084C00231A467C
:10250000194600932046FEF761FF2046044A05491C
:1025100002B0BDE8104000F007B800BF0006002080
:10252000680000201D130A080B460146184601F0FA
:102530003BBAFDF7B6BD0000024B1868BFF35F8FD2
:10254000704700BF1806002010B5002814BF0446CD
:1025500001242046FEF73AFE20B9FFF7EDFF08B14F
:102560008047F6E710BDFFF7EFBF0000244B1A6865
:10257000D0075CBF01221A60224B1A68D1075CBFEA
:1025800001221A60204B1A68D2075CBF01221A6030
:102590001E4B1A68D0075CBF01221A601C4B1A68D8
:1025A000D1075CBF01221A601A4B1A68D2075CBFC0
:1025B00001221A60184B1A68D0075CBF01221A600A
:1025C000164B1A68D1075CBF01221A60144B1A68B7
:1025D000D2075CBF01221A60124B1A68D0075CBF99
:1025E00001221A60104B1A68D1075CBF01221A60E1
:1025F0000E4B1A68D2075CBF01221A60704700BFF9
:102600004806002044060020400600203C0600202A
:102610003806002034060020300600202C0600205A
:102620002806002024060020200600201C0600208A
:10263000184B1A68D1075CBF01221A60164B1A6842
:10264000D2075CBF01221A60144B1A68D0075CBF26
:1026500001221A60124B1A68D1075CBF01221A606E
:10266000104B1A68D2075CBF01221A600E4B1A6821
:10267000D0075CBF01221A600C4B1A68D1075CBFFF
:1026800001221A600A4B1A68D2075CBF01221A6045
:10269000704700BF68060020640600206006002026
:1026A0005C0600205806002054060020500600203A
:1026B0004C060020184B1A68D1075CBF01221A6033
:1026C000164B1A68D2075CBF01221A60144B1A68B5
:1026D000D0075CBF01221A60124B1A68D1075CBF99
:1026E00001221A60104B1A68D2075CBF01221A60DF
:1026F0000E4B1A68D0075CBF01221A600C4B1A6897
:10270000D1075CBF01221A600A4B1A68D2075CBF6E
:1027100001221A60704700BF88060020840600204E
:10272000800600207C060020780600207406002029
:10273000700600206C060020244B1A68D0075CBF8E
:1027400001221A60224B1A68D1075CBF01221A606D
:10275000204B1A68D2075CBF01221A601E4B1A6810
:10276000D0075CBF01221A601C4B1A68D1075CBFFE
:1027700001221A601A4B1A68D2075CBF01221A6044
:10278000184B1A68D0075CBF01221A60164B1A68F2
:10279000D1075CBF01221A60144B1A68D2075CBFD4
:1027A00001221A60124B1A68D0075CBF01221A601E
:1027B000104B1A68D1075CBF01221A600E4B1A68D1
:1027C000D2075CBF01221A60704700BFB806002024
:1027D000B4060020B0060020AC060020A8060020A9
:1027E000A4060020A00600209C06002098060020D9
:1027F00094060020900600208C06002081F0004105
:1028000002E000BF83F0004330B54FEA41044FEAD5
:10281000430594EA050F08BF90EA020F1FBF54EA70
:10282000000C55EA020C7FEA645C7FEA655C00F00C
:10283000E2804FEA5454D4EB5555B8BF6D420CDDDD
:102840002C4480EA020281EA030382EA000083EA60
:10285000010180EA020281EA0303362D88BF30BD00
:1028600011F0004F4FEA01314FF4801C4CEA113156
:1028700002D0404261EB410113F0004F4FEA0333B5
:102880004CEA133302D0524263EB430394EA050F40
:1028900000F0A780A4F10104D5F1200E0DDB02FAAF
:1028A0000EFC22FA05F2801841F1000103FA0EF243
:1028B000801843FA05F359410EE0A5F120050EF109
:1028C000200E012A03FA0EFC28BF4CF0020C43FA3A
:1028D00005F3C01851EBE37101F0004507D54FF047
:1028E000000EDCF1000C7EEB00006EEB0101B1F597
:1028F000801F1BD3B1F5001F0CD349085FEA3000DD
:102900004FEA3C0C04F101044FEA445212F5800FE7
:1029100080F09A80BCF1004F08BF5FEA500C50F184
:10292000000041EB045141EA050130BD5FEA4C0C67
:10293000404141EB010111F4801FA4F10104E9D1F0
:1029400091F0000F04BF01460020B1FA81F308BFE7
:102950002033A3F10B03B3F120020CDA0C3208DDB3
:1029600002F1140CC2F10C0201FA0CF021FA02F18E
:102970000CE002F11402D8BFC2F1200C01FA02F1FE
:1029800020FA0CFCDCBF41EA0C019040E41AA2BF23
:1029900001EB0451294330BD6FEA04041F3C1CDAEB
:1029A0000C340EDC04F11404C4F1200220FA04F00B
:1029B00001FA02F340EA030021FA04F345EA0301B5
:1029C00030BDC4F10C04C4F1200220FA02F001FA77
:1029D00004F340EA0300294630BD21FA04F02946F9
:1029E00030BD94F0000F83F4801306BF81F4801192
:1029F0000134013D4EE77FEA645C18BF7FEA655C05
:102A000029D094EA050F08BF90EA020F05D054EAD6
:102A1000000C04BF1946104630BD91EA030F1EBFDB
:102A20000021002030BD5FEA545C05D140004941DF
:102A300028BF41F0004130BD14F580043CBF01F5D2
:102A4000801130BD01F0004545F0FE4141F47001B8
:102A50004FF0000030BD7FEA645C1ABF1946104693
:102A60007FEA655C1CBF0B46024650EA013406BF94
:102A700052EA033591EA030F41F4002130BD00BF53
:102A800090F0000F04BF0021704730B54FF4806410
:102A900004F132044FF000054FF0000150E700BF91
:102AA00090F0000F04BF0021704730B54FF48064F0
:102AB00004F1320410F0004548BF40424FF00001DD
:102AC0003EE700BF42004FEAE2014FEA31014FEA20
:102AD00002701FBF12F07F4393F07F4F81F060516F
:102AE000704792F0000F14BF93F07F4F704730B5DE
:102AF0004FF4607401F0004521F0004120E700BF71
:102B000050EA010208BF704730B54FF000050AE0F7
:102B100050EA010208BF704730B511F0004502D5F8
:102B2000404261EB41014FF4806404F132045FEAFA
:102B3000915C3FF4DCAE4FF003025FEADC0C18BF9F
:102B400003325FEADC0C18BF033202EBDC02C2F195
:102B5000200300FA03FC20FA02F001FA03FE40EA27
:102B60000E0021FA02F11444C1E600BF70B54FF027
:102B7000FF0C4CF4E06C1CEA11541DBF1CEA135509
:102B800094EA0C0F95EA0C0F00F0DEF82C4481EA71
:102B9000030621EA4C5123EA4C5350EA013518BF91
:102BA00052EA033541F4801143F4801338D0A0FB7E
:102BB00002CE4FF00005E1FB02E506F00042E0FB2B
:102BC00003E54FF00006E1FB03569CF0000F18BF31
:102BD0004EF0010EA4F1FF04B6F5007F64F54074D9
:102BE00004D25FEA4E0E6D4146EB060642EAC6216C
:102BF00041EA55514FEAC52040EA5E504FEACE2ED9
:102C0000B4F1FD0C88BFBCF5E06F1ED8BEF1004FDB
:102C100008BF5FEA500E50F1000041EB045170BD57
:102C200006F0004646EA010140EA020081EA03019B
:102C3000B4EB5C04C2BFD4EB0C0541EA045170BD97
:102C400041F480114FF0000E013C00F3AB8014F111
:102C5000360FDEBF002001F0004170BDC4F100045A
:102C6000203C35DA0C341BDC04F11404C4F12005DB
:102C700000FA05F320FA04F001FA05F240EA020036
:102C800001F0004221F0004110EBD37021FA04F66C
:102C900042EB06015EEA430E08BF20EAD37070BD26
:102CA000C4F10C04C4F1200500FA04F320FA05F085
:102CB00001FA04F240EA020001F0004110EBD37087
:102CC00041F100015EEA430E08BF20EAD37070BDF7
:102CD000C4F1200500FA05F24EEA020E20FA04F3D0
:102CE00001FA05F243EA020321FA04F001F000417F
:102CF00021FA04F220EA020000EBD3705EEA430EF0
:102D000008BF20EAD37070BD94F0000F0FD101F01E
:102D10000046400041EB010111F4801F08BF013C57
:102D2000F7D041EA060195F0000F18BF704703F095
:102D30000046520043EB030313F4801F08BF013D1C
:102D4000F7D043EA0603704794EA0C0F0CEA1355D8
:102D500018BF95EA0C0F0CD050EA410618BF52EA92
:102D60004306D1D181EA030101F000414FF0000098
:102D700070BD50EA410606BF1046194652EA4306A6
:102D800019D094EA0C0F02D150EA013613D195EA1A
:102D90000C0F05D152EA03361CBF104619460AD162
:102DA00081EA030101F0004141F0FE4141F470016C
:102DB0004FF0000070BD41F0FE4141F4780170BD5C
:102DC00070B54FF0FF0C4CF4E06C1CEA11541DBFC1
:102DD0001CEA135594EA0C0F95EA0C0F00F0A7F8C3
:102DE000A4EB050481EA030E52EA03354FEA0131F0
:102DF00000F088804FEA03334FF0805545EA131303
:102E000043EA12634FEA022245EA111545EA1065CA
:102E10004FEA00260EF000419D4208BF964244F161
:102E2000FD0404F5407402D25B084FEA3202B61A80
:102E300065EB03055B084FEA32024FF480104FF454
:102E4000002CB6EB020E75EB030E22BFB61A7546C8
:102E500040EA0C005B084FEA3202B6EB020E75EB5B
:102E6000030E22BFB61A754640EA5C005B084FEAC3
:102E70003202B6EB020E75EB030E22BFB61A754690
:102E800040EA9C005B084FEA3202B6EB020E75EB9B
:102E9000030E22BFB61A754640EADC0055EA060E5C
:102EA00018D04FEA051545EA16754FEA06164FEA9F
:102EB000C30343EA52734FEAC2025FEA1C1CC0D14B
:102EC00011F4801F0BD141EA00014FF000004FF0D8
:102ED000004CB6E711F4801F04BF01430020B4F199
:102EE000FD0C88BFBCF5E06F3FF6AFAEB5EB030C51
:102EF00004BFB6EB020C5FEA500C50F1000041EB4E
:102F0000045170BD0EF0004E4EEA113114EB5C041A
:102F1000C2BFD4EB0C0541EA045170BD41F48011ED
:102F20004FF0000E013C90E645EA060E8DE60CEAF5
:102F3000135594EA0C0F08BF95EA0C0F3FF43BAF12
:102F400094EA0C0F0AD150EA01347FF434AF95EAC9
:102F50000C0F7FF425AF104619462CE795EA0C0FAD
:102F600006D152EA03353FF4FDAE1046194622E77A
:102F700050EA410618BF52EA43067FF4C5AE50EA54
:102F800041047FF40DAF52EA43057FF4EBAE12E744
:102F90004FF0FF3C06E000BF4FF0010C02E000BF25
:102FA0004FF0010C4DF804CD4FEA410C7FEA6C5C08
:102FB0004FEA430C18BF7FEA6C5C1BD001B050EAAB
:102FC000410C0CBF52EA430C91EA030F02BF90EA96
:102FD000020F0020704710F1000F91EA030F58BF55
:102FE000994208BF90422CBFD8176FEAE37040F0B7
:102FF000010070474FEA410C7FEA6C5C02D150EA55
:10300000013C07D14FEA430C7FEA6C5CD6D152EA0F
:10301000033CD3D05DF8040B704700BF84461046D4
:1030200062468C461946634600E000BF01B5FFF7D3
:10303000B7FF002848BF10F1000F01BD4DF808EDA3
:10304000FFF7F4FF0CBF012000205DF808FB00BF74
:103050004DF808EDFFF7EAFF34BF012000205DF8CE
:1030600008FB00BF4DF808EDFFF7E0FF94BF01201B
:1030700000205DF808FB00BF4DF808EDFFF7CEFF1C
:1030800094BF012000205DF808FB00BF4DF808ED5B
:10309000FFF7C4FF34BF012000205DF808FB00BF2C
:1030A0004FEA410C7FEA6C5C02D150EA013C0AD144
:1030B0004FEA430C7FEA6C5C02D152EA033C02D136
:1030C0004FF0000070474FF0010070474FEA410297
:1030D00012F5001215D211D56FF47873B3EB62526A
:1030E00012D94FEAC12343F0004343EA505311F091
:1030F000004F23FA02F018BF404270474FF0000023
:10310000704750EA013005D111F0004008BF6FF060
:10311000004070474FF00000704700BF4A0011D2D6
:1031200012F5001211D20DD56FF47873B3EB625221
:103130000ED44FEAC12343F0004343EA505323FA2D
:1031400002F070474FF00000704750EA013002D1A2
:103150004FF0FF3070474FF00000704780F00040A4
:1031600002E000BF81F0004142001FBF5FEA41035F
:1031700092EA030F7FEA226C7FEA236C6AD04FEA5F
:103180001262D2EB1363C1BFD218414048404140A4
:10319000B8BF5B42192B88BF704710F0004F40F456
:1031A000000020F07F4018BF404211F0004F41F472
:1031B000000121F07F4118BF494292EA030F3FD03E
:1031C000A2F1010241FA03FC10EB0C00C3F1200351
:1031D00001FA03F100F0004302D5494260EB4000E0
:1031E000B0F5000F13D3B0F1807F06D340084FEA4B
:1031F000310102F10102FE2A51D2B1F1004F40EB40
:10320000C25008BF20F0010040EA030070474900A7
:1032100040EB000010F4000FA2F10102EDD1B0FA72
:1032200080FCACF1080CB2EB0C0200FA0CF0AABF67
:1032300000EBC25052421843BCBFD0401843704705
:1032400092F0000F81F4000106BF80F4000001320B
:10325000013BB5E74FEA41037FEA226C18BF7FEAE2
:10326000236C21D092EA030F04D092F0000F08BF24
:103270000846704790EA010F1CBF0020704712F00B
:103280007F4F04D1400028BF40F00040704712F14A
:1032900000723CBF00F50000704700F0004343F0AF
:1032A000FE4040F4000070477FEA226216BF0846E5
:1032B0007FEA23630146420206BF5FEA412390EAA8
:1032C000010F40F4800070474FF0000304E000BF9E
:1032D00010F0004348BF40425FEA000C08BF70474F
:1032E00043F0964301464FF000001CE050EA010213
:1032F00008BF70474FF000030AE000BF50EA010228
:1033000008BF704711F0004302D5404261EB410114
:103310005FEA010C02BF84460146002043F0B64339
:1033200008BFA3F18053A3F50003BCFA8CF2083A5E
:10333000A3EBC25310DB01FA02FC634400FA02FC67
:10334000C2F12002BCF1004F20FA02F243EB02006E
:1033500008BF20F00100704702F1200201FA02FCD0
:10336000C2F1200250EA4C0021FA02F243EB0200C3
:1033700008BF20EADC7070474FF0FF0C1CEAD05207
:103380001EBF1CEAD15392EA0C0F93EA0C0F6FD0C8
:103390001A4480EA010C400218BF5FEA41211ED0A6
:1033A0004FF0006343EA501043EA5111A0FB013192
:1033B0000CF00040B1F5000F3EBF490041EAD37167
:1033C0005B0040EA010062F17F02FD2A1DD8B3F1E3
:1033D000004F40EBC25008BF20F00100704790F052
:1033E000000F0CF0004C08BF49024CEA502040EAA4
:1033F00051207F3AC2BFD2F1FF0340EAC25070476A
:1034000040F400004FF00003013A5DDC12F1190FA7
:10341000DCBF00F000407047C2F10002410021FA19
:1034200002F1C2F1200200FA02FC5FEA310040F131
:10343000000053EA4C0308BF20EADC70704792F0AA
:10344000000F00F0004C02BF400010F4000F013AE2
:10345000F9D040EA0C0093F0000F01F0004C02BFDD
:10346000490011F4000F013BF9D041EA0C018FE74C
:103470000CEAD15392EA0C0F18BF93EA0C0F0AD052
:1034800030F0004C18BF31F0004CD8D180EA010078
:1034900000F00040704790F0000F17BF90F0004F11
:1034A000084691F0000F91F0004F14D092EA0C0FF3
:1034B00001D142020FD193EA0C0F03D14B0218BF86
:1034C000084608D180EA010000F0004040F0FE40CC
:1034D00040F40000704740F0FE4040F44000704768
:1034E0004FF0FF0C1CEAD0521EBF1CEAD15392EAE7
:1034F0000C0F93EA0C0F69D0A2EB030280EA010CD7
:1035000049024FEA402037D04FF0805343EA11116F
:1035100043EA10130CF000408B4238BF5B0042F1CD
:103520007D024FF4000C8B4224BF5B1A40EA0C0072
:10353000B3EB510F24BFA3EB510340EA5C00B3EBA4
:10354000910F24BFA3EB910340EA9C00B3EBD10F92
:1035500024BFA3EBD10340EADC001B0118BF5FEAE4
:103560001C1CE0D1FD2A3FF650AF8B4240EBC2500D
:1035700008BF20F0010070470CF0004C4CEA5020CE
:103580007F32C2BFD2F1FF0340EAC250704740F41D
:1035900000004FF00003013A37E792F0000F00F00F
:1035A000004C02BF400010F4000F013AF9D040EA8D
:1035B0000C0093F0000F01F0004C02BF490011F421
:1035C000000F013BF9D041EA0C0195E70CEAD15319
:1035D00092EA0C0F08D142027FF47DAF93EA0C0F00
:1035E0007FF470AF084676E793EA0C0F04D14B02E4
:1035F0003FF44CAF08466EE730F0004C18BF31F096
:10360000004CCAD130F000427FF45CAF31F000438F
:103610007FF43CAF5FE700BF7BB972B90029BEBF42
:1036200000204FF0004106E008BF00281CBF6FF0EB
:1036300000414FF0FF3000F0B5B9ADF1080C6DE975
:1036400004CE002909DB002B1ADB00F035F8DDF889
:1036500004E0DDE9022304B07047404261EB410120
:10366000002B1BDB00F028F8DDF804E0DDE9022385
:1036700004B0404261EB4101524263EB43037047A7
:10368000524263EB430300F017F8DDF804E0DDE994
:10369000022304B0404261EB41017047524263EBA8
:1036A000430300F009F8DDF804E0DDE9022304B08B
:1036B000524263EB430370472DE9F04F8C460C46B2
:1036C0000546099E002B4FD18A4217466BD9B2FAA4
:1036D00082FEBEF1000F0BD0CEF1200520FA05F5D9
:1036E00001FA0EF345EA030C02FA0EF700FA0EF5A2
:1036F000390CBCFBF1F0BAB201FB10C300FB02F8BD
:103700004FEA154C4CEA0344A04509D9E41900F1ED
:10371000FF3380F02881A04540F2258102383C44E7
:10372000C8EB0404B4FBF1F301FB134C03FB02F2FE
:10373000ACB244EA0C418A4209D9C91903F1FF34F9
:1037400080F00F818A4240F20C81023B39448A1A90
:1037500043EA00400021002E63D022FA0EF200233B
:1037600086E80C00BDE8F08F8B4207D9002E56D0BA
:10377000002186E811000846BDE8F08FB3FA83F116
:10378000002940F09380A34202D3824200F2FE80DF
:10379000851A64EB03039C460120002E41D086E885
:1037A0002010BDE8F08F12B90127B7FBF2F7B7FA86
:1037B00087FEBEF1000F36D1E41B4FEA17481FFA0F
:1037C00087F90121B4FBF8F308FB134409FB03F26A
:1037D0004FEA154C4CEA0444A24207D9E41903F11C
:1037E000FF3002D2A24200F2D3800346A41AB4FBF7
:1037F000F8F008FB104809FB00F9ACB244EA0842B3
:10380000914507D9D21900F1FF3402D2914500F257
:10381000BA802046C9EB020240EA03409BE73146EA
:103820003046BDE8F08F07FA0EF7CEF1200C24FAEF
:103830000CF34FEA1748B3FBF8FA1FFA87F908FBB5
:103840001A3520FA0CFC04FA0EF40AFB09FB4CEAC8
:10385000040C4FEA1C4242EA05439B4500FA0EF570
:103860000AD9DB190AF1FF3280F08B809B4540F2C8
:103870008880AAF1020A3B44CBEB0303B3FBF8F0C8
:1038800008FB103300FB09F41FFA8CFC4CEA0343DD
:103890009C4207D9DB1900F1FF326ED29C426CD9F1
:1038A00002383B441C1B40EA0A418BE7C1F1200E61
:1038B0008B4022FA0EFC4CEA030C24FA0EF74FEA76
:1038C0001C49B7FBF9FA1FFA8CF309FB1A7720FAA7
:1038D0000EF88C400AFB03F548EA04044FEA14484A
:1038E00048EA0747BD4202FA01F200FA01FB09D992
:1038F00017EB0C070AF1FF3041D2BD423FD9AAF1C4
:10390000020A67447F1BB7FBF9F509FB157705FB36
:1039100003F3A4B244EA0747BB4208D917EB0C07EC
:1039200005F1FF3027D2BB4225D9023D674445EA65
:103930000A40A0FB0289FF1A4F4545464C4614D366
:1039400029D066B3BBEB050367EB040707FA0EFE4D
:10395000CB40CF404EEA030386E888000021BDE853
:10396000F08F2346F3E61846DAE6B8EB020569EB7A
:103970000C040138E5E70546D9E7104692E7824690
:10398000C0E7924678E702383A4443E7084604E73E
:10399000023B3C442AE7C345E7D33C46D1E73146E6
:1039A000BDE8F08F704700BF10B5054C13462CB131
:1039B0000A4601460220AFF3008010BD204610BD2C
:1039C0000000000010B5431E0A44914204D011F8D3
:1039D000014B03F8014FF8E710BD03460244934240
:1039E00002D003F8011BFAE77047000038B5124B0C
:1039F00005461C68A36BD3B91820FDF7E7FB43F21B
:103A00000E33A06303804AF6CD33438041F2342362
:103A100083804EF26D63C3804DF6EC630381052312
:103A200043810B23838101220023C0E90423A36B7C
:103A300000221D615A6138BD64000020034611F860
:103A4000012B03F8012B002AF9D17047034613F824
:103A5000012B002AFBD1181A0138704721000A08EF
:103A600061000A088D000A0891000A0800000000A1
:103A70002F6170692F76312F644E4546524732359B
:103A800043464A674D584B6B765638322F74656CF7
:103A9000656D65747279004169725120002C004394
:103AA0002000252000685061000000000000000098
:103AB0004000000010000000500000000000000066
:103AC000400000001400000054000000000102014A
:103AD00003010101040101010101010105000000D0
:103AE000000000000000000015120A085F120A081A
:103AF00037120A0817120A083F120A0847120A0862
:103B00004F120A0857120A080000000000000000C7
:103B10002D130A081D130A081F130A086261756431
:103B20000053657269616C00555342536572696157
:103B30006C31007479706500706172616D00636D45
:103B40006400696400686E64007374726D00666975
:103B50006C74006C766C0061646448616E646C65C2
:103B6000720072656D6F766548616E646C65720097
:103B7000656E756D48616E646C657273004A534F73
:103B80004E53747265616D4C6F6748616E646C650D
:103B9000720061707000253031307520005D2000AA
:103BA0002564002C200028293A2000205B00636F48
:103BB0006465203D200025690064657461696C734B
:103BC000203D20000D0A006C6E00666E00636F647D
:103BD000650064657461696C006E6F6E6500747277
:103BE00061636500696E666F007761726E00657271
:103BF000726F720070616E696300616C6C0000002E
:103C00000000000000000000FD130A0807140A0865
:103C100011140A081B140A0825140A0831140A088A
:103C20003D140A0849140A0851140A085B140A08CA
:103C300065140A086E616E006F7666002E00696E6C
:103C4000660000081018202830380000000000002E
:103C500000000000411A0A08471A0A085F1E0A08F5
:103C6000551A0A08431A0A08000000000000000064
:103C7000E1000A0821010A08FD190A08171A0A08B2
:103C80005D1B0A08C71A0A08991A0A083F1A0A0887
:103C9000091C0A08791E0A08FB1A0A08D51B0A081B
:103CA000571D0A08A91D0A08271A0A081B1D0A0819
:103CB000791A0A08776972696E6700544350436C39
:103CC00069656E7420736F636B65743D2578005A67
:103CD00000252B3033643A253032750025592D25C7
:103CE0006D2D25645425483A254D3A2553257A00F3
:103CF00061736374696D65000000000000000000DE
:103D0000F91E0A08491F0A08571F0A08E1140A0881
:103D10000D1F0A082F1F0A081B1F0A08431F0A0845
:103D2000FB1E0A08FF1E0A08000000000000000039
:103D300049200A0899200A08A7200A08E1140A085D
:103D400085200A084B200A0861200A0893200A08E7
:103D500077200A0845200A08000000000000000043
:103D600053220A0849220A083F220A08B1210A08F8
:103D700033220A0827220A081B220A0813220A08EB
:103D800009220A08FF210A08BB210A0800000000D6
:103D90000000000000000000000000000000000023
:103DA0000000000000000000000000000000000013
:103DB0000000000000000000000000000000000003
:103DC00000000000000000000000000000000000F3
:103DD00000000000000000000000000000000000E3
:103DE00000000000000000000000000000000000D3
:103DF0004300000041030A08ED030A08DD040A0835
:103E0000290D0A08ED130A08CD140A0821170A081B
:103E1000C9190A08E51E0A085D220A08F9240A08D9
:103E20006D250A0831260A08B5260A0839270A0826
:083E300088F8FF7F010000008B
:043E38000000000086
:103E3C00F03C0A0800000000903D0A08B03D0A085A
:103E4C00D03D0A0800000000000000000000000047
:103E5C0000000000F03D0A08000000000000000017
:103E6C000000000000000000000000000000000046
:103E7C000000000000000000000000000000000036
:103E8C000000000000000000000000000000000026
:083E9C000000000004000020FA
:103EA400FFFFFFFF00000102030405060708090ADB
:103EB4000B0C0D0E0F101112131415161718191AD6
:083EC4001B1C1D1E1F2028001D
:043ECC0078563412DE
:04000005080A0020C5
:00000001FF
