:02000002D0002C
:1040000000400D00BCA00D00000006000C000501E2
:084010000401DB0700000000C1
:04401800A8960D0059
:1040200009480A49884208B505D0094A824202D0A7
:10403000121A05F0BDFA0748074A0021121A05F0C6
:10404000DFFA014808BD00BFA4E303202CA00D0047
:104050000CE403200CE40320F0E7032070B5074EC6
:10406000074C03F031FFA41BA4080025A54200D192
:1040700070BD56F8043B98470135F7E7F49F0D00F3
:1040800018A00D0000F07ABA08B500F001FBBDE8F9
:10409000084003F0DBBE02F0A3B802F0A1B802F0C2
:1040A000A7B80078B0FA80F0400970470123037088
:1040B000704710B50446006808B102F099F8204630
:1040C00010BD13B50446084659B1019105F0D6FA62
:1040D00023680199DB680246204602B0BDE8104023
:1040E000184702B010BD89B203F081BD10B58AB087
:1040F0006C4684E80F00BDF80030ADF81030BDF814
:104100000430ADF81230BDF80630ADF81630BDF809
:104110000830ADF81830BDF80230ADF81A30002480
:10412000039B089304A923460C220748ADF81440CA
:104130000794099402F05CFB23460C2207A903486C
:1041400002F056FB0AB010BDA0E60320A8E603204B
:1041500084B084B00DF1100C8CE80F009FED217A33
:10416000DDED047ADFED206A67EE877A9DED067A51
:10417000FCEEE77A27EE267A17EE903ABCEEC77A85
:10418000DDED077AADF8003067EEA67A17EE103A4B
:10419000DFED166A9DED087AADF80430FCEEE77AA3
:1041A00027EE267A17EE903ABCEEC77AADF80630C5
:1041B000DDED097A17EE103A9DED057AADF808307D
:1041C000BCEEC77A67EEA67A17EE103AFCEEE77AF5
:1041D000ADF80230CDED037A1CE90F0004B004B055
:1041E000FFF784BF00007A440000C84200401C462C
:1041F00008B503F0FFFC4FF4165103F0F5FCFA206C
:1042000002F016F803F0F6FC7C21FFF76CFF03F0D8
:10421000F1FC2D21FFF767FF03F0ECFC7C21FFF799
:1042200062FF03F0E7FC8021FFF75DFF03F0E2FC93
:104230007C21FFF758FF03F0DDFC9E21FFF753FFC1
:1042400003F0D8FC7C21FFF74EFF03F0D3FCCB2119
:10425000FFF749FF03F0CEFC7C21FFF744FF03F09A
:10426000C9FC2D21FFF73FFF03F0C4FC0449FFF711
:1042700028FFBDE808404FF47A7001F0D9BF00BFB5
:10428000BC960D0010B59AB002F0BEFB022102F000
:1042900024FC02F0B9FB02F001FC02F0B5FB6D4A10
:1042A000014611A802F070FF11A802F0AFFC02F065
:1042B000ABFB694A014611A802F066FF11A802F0A3
:1042C000A5FC02F0A1FB654A014611A802F05CFFC3
:1042D00011A802F09BFC02F097FB614A014611A86D
:1042E00002F052FF11A802F091FC02F08DFB5D4A32
:1042F000014611A802F048FF11A802F087FC02F065
:1043000083FB594A014611A802F03EFF11A802F0B2
:104310007DFC02F079FB554A014611A802F034FFFA
:1043200011A802F073FC02F06FFB514A014611A87C
:1043300002F02AFF11A802F069FC02F065FB4D4A69
:10434000014611A802F020FF11A802F05FFC02F064
:104350005BFB494A014611A802F016FF11A802F0C2
:1043600055FC02F051FB454A014611A802F00CFF32
:1043700011A802F04BFC424903A803F08EFB41490F
:104380003548002202F099FA002203A9334802F0CE
:104390008FFA3D493248002202F08FFA3B492D48FE
:1043A000002202F08AFA3A492E48002202F085FAE9
:1043B00038492D48002202F080FA37492B48002264
:1043C00002F07BFA00223049294802F076FA11A85F
:1043D00002F064F9314911A802F079F9304907A8CF
:1043E00002F008F807A90CA802F004F80CA802F0E3
:1043F00047F804460CA82CBB02F061F80094ADF815
:104400000A0002230DF10A02032111A802F0FEF8AE
:10441000059A039911A802F0A3F902F0F5FA03A98D
:1044200002F058FB02F0F0FA002102F05AFB02F011
:10443000EBFA002211A902F09AFB03A803F0E2FABA
:104440001AB010BD02F040F800230093024610237A
:104450000721DAE718E70320CCE60320B4E60320BF
:10446000E8E5032028E70320C4E60320BCE6032098
:1044700030E70320A0E60320A8E60320F0E50320B0
:10448000DB960D00EA960D000B970D00F8960D00D7
:10449000E2960D0000970D0008970D000D970D0096
:1044A000A8E4032013B503F0D9FD03F003F803F0EB
:1044B000D5FD1F4C009000224FF0FF3311462046DF
:1044C00000F01EFF00221146204600F033FE0022BD
:1044D0001146204600F02EFE00220121204600F069
:1044E00029FE00220121204600F024FE00220221A4
:1044F000204600F01FFE00220221204600F01AFE96
:1045000007220221204600F015FE0022022120464B
:1045100000F010FE00220421204600F00BFE0022D5
:104520000521204602B0BDE8104000F003BE00BFE8
:10453000D4E6032007B50021022003F035FD022256
:104540000023009304494FF0FF33104602F0F0FFC0
:1045500003B05DF804FB00BFBD490D0005484FF4F2
:10456000EE4303800323C370034B436001230372B4
:1045700001F016BAF8E503200000010108B503F0C8
:10458000DBFB4FF4E13103F0CBFB03F0D5FB074934
:1045900003F03FF9FFF776FEFFF72AFEFFF782FFF1
:1045A000FFF7C8FFBDE80840FFF7D8BF12970D001E
:1045B00010B5044603F01EFB7C21FFF794FD03F0C9
:1045C00019FB2D21FFF78FFD03F014FB2146FFF7A8
:1045D00078FD10BD0000000007B53621284800F026
:1045E000AFFC4FF4FA7001F023FE6A46244806211E
:1045F00000F0C9FCFF2802460AD12249224801F0F6
:1046000007FE2148FFF7D4FF4FF47A7001F010FE47
:10461000BDF9023000EE903ABDF804305B421BB2A7
:1046200000EE103AF8EEE00AB8EEC00A03F0B2FE6F
:10463000B5EEC00AF1EE10FA10EE100A08D504F03B
:1046400097F90BA3D3E9002304F034F804F082FCBB
:1046500004F08EF908A3D3E9002304F0E1F904F093
:1046600079FC00EE100A03B05DF804FBAFF30080A4
:104670006E861BF0F9211940E8C35CB0DDA54C4003
:10468000D4E6032032970D003CE603200000000032
:104690002DE9F0412DED028B94B001F041FD28B1E0
:1046A00001F072FBB44B186001F032FDB34CB44D15
:1046B00001F062FB2368B34AC01A904200F2BD8049
:1046C0002868181A07EE900AF8EE677A17EE900A33
:1046D00004F04EF99AA3D3E9002304F0CBFA04F0D6
:1046E00039FC07EE100AF3EE047AB4EEE77AF1EE45
:1046F00010FA40F1A68004F03BF993A3D3E900231C
:1047000004460D4604F01CFC002800F09A802B465D
:1047100022468FA1D1E9000104F0ACFA0022002367
:1047200003F0C8FF04F016FC0546FFF755FFF0EE56
:10473000400A9FED950A03F0F3FD212010EE106A68
:1047400003F05CFC04F002F983A3D3E9002304F036
:1047500067F904F0FFFB07EE100AF0EE087A77EE37
:10476000677A17EE900A04F003F9884B002204F0F0
:1047700057F97BA3D3E9002304F07CFA04F0EAFBA9
:104780009FED830A00EE900A03F0ACFDF0EE400AC4
:104790009FED800A03F0C4FDFCEEC07A4FF4FA707E
:1047A00017EE903AB0EE408A8DF8373001F040FDB8
:1047B00002F02AF902F0F8F980B3284604F0D8F89C
:1047C00069A3D3E9002304F02BF904F0C3FB0E9096
:1047D000714800F07BFF70488DED100A00F030FF4B
:1047E0006D488DED110A00F055FE9FED6C7A6C4B13
:1047F0001393C0EE077A14AB0F96CDED127A13E93E
:1048000003008DE803000EAB0FCBFFF7A1FC65485A
:10481000002301220DF1370101F0EAFF624C236809
:10482000002BB8BF03339B100DD0012B41D05F4943
:104830005F4804F01BFF002339E001F09DFA286077
:104840002060002571E7544800F078FF524810EED0
:10485000107A00F0F5FE284610EE108A04F088F871
:1048600043A3D3E9002304F0DBF804F073FB04F066
:104870007FF802460B464046CDE90A2304F078F85B
:10488000DF25CDE908013846069504F071F8CDE939
:1048900004013046029504F06BF8DDE90A23CDE906
:1048A00000014449424801F0B3FC2368013323600E
:1048B00037E0394800F0EEFD2846F0EE408A04F07B
:1048C00057F82BA3D3E9002304F0AAF804F042FB25
:1048D00004F04EF802460B4618EE100ACDE90A2302
:1048E00004F046F8DFED2B7AC8EEA77ACDE9060191
:1048F00017EE900A04F03CF8CDE90401DF213046C0
:10490000029104F035F8DDE90A23CDE900012A49D6
:10491000274801F07DFC2368072B03F101028AD0B0
:10492000226003F009FA224902F073FF2048FFF7E2
:104930003FFE14B0BDEC028BBDE8F081AFF3008008
:104940000000000080842E419A9999999999B93F65
:1049500048E17A14AE4723409402C1D2AF63523F7C
:1049600000000000CDCCF03F0F0BB5A679C7D13FBA
:104970003480B74082E2E33FD4E70320B0E603206F
:1049800020E70320FF2C31010080B3430000594091
:10499000000000000000C842F8E503200050C347B3
:1049A000F2D2BD3FF0E5032024E703208D970D00F0
:1049B0003CE603203F970D0065970D0038B5074D85
:1049C000074C2B6823B901F0D7F92860206038BD67
:1049D00023682B6001F0D0F9F8E700BF20E703203F
:1049E000B0E60320F0B5164691B00022C0E90022DF
:1049F00004460D460BAF194606A801F0FBFC1699BC
:104A0000384601F0F7FC33788DF81430189B029388
:104A1000179B2046CDE9007305AA06AB294602F094
:104A200049F9204611B0F0BD2DE9F04F002191B0B9
:104A3000C34DC44EDFF8F483DFF8F493DFF8F4A33A
:104A4000C14F0120002401F047FBC04BAB602C603C
:104A5000AC80AC71032001F02FFB3246BC492846E4
:104A600003F024FBBB49BC48BC4D01F0C3FDBC496D
:104A7000404601F0BFFDBB49BB4801F0BBFDBB494F
:104A8000484601F0B7FDBA49284601F0B3FDB949DF
:104A9000504601F0AFFDB849B84801F0ABFDB84948
:104AA000B84801F0A7FDB849B84801F0A3FDB849DE
:104AB000B84801F09FFDB849B84801F09BFDB849DE
:104AC000B84801F097FDB849B84801F093FDB849DE
:104AD000B84801F08FFDB849B84801F08BFDB849DE
:104AE000B84801F087FDB849B84801F083FDB849DE
:104AF000B84801F07FFDB849B84801F07BFDB849DE
:104B0000B84801F077FDB849B84801F073FDB849DD
:104B1000B84801F06FFDB849B8484FF0020B01F0FA
:104B200069FD29460BA806AD8DF814B001F062FCB2
:104B30004146284601F05EFC0BAB05AACDE90144D5
:104B4000AF490095AF48FFF74DFF32463946AD48B3
:104B500003F0ACFA51460BA8DFF8DCA28DF814B0D4
:104B600001F048FC4146284601F044FC0BAB05AA85
:104B7000CDE90144A44900955046FFF733FF324682
:104B80003946504603F092FA49460BA8DFF8AC923A
:104B90008DF814B001F02EFC4146284601F02AFCA5
:104BA0000BAB05AACDE90144984900954846FFF7AB
:104BB00019FF32463946484603F078FADFF880920A
:104BC00076498DF814B00BA801F014FC4146284634
:104BD00001F010FC0BAB05AACDE901448C4900950E
:104BE0004846FFF7FFFE32463946484603F05EFA74
:104BF000DFF8509261498DF814B00BA801F0FAFB70
:104C00004146284601F0F6FB0BAB05AACDE901446D
:104C1000804900954846FFF7E5FE3246394648464A
:104C200003F044FADFF8209256498DF814B00BA82F
:104C300001F0E0FB4146284601F0DCFB0BAB05AA86
:104C4000CDE90144744900954846FFF7CBFE324652
:104C50003946484603F02AFADFF8F0914B498DF8BF
:104C600014B00BA801F0C6FB4146284601F0C2FB78
:104C70000BAB05AACDE90144684900954846FFF70A
:104C8000B1FE32463946484603F010FA41498DF8E4
:104C900014B00BA801F0AEFB4146DFF8B481DFF899
:104CA000B491284601F0A6FB0BAB05AACDE901445F
:104CB0005B4900954046FFF795FE3246394640462F
:104CC00003F0F4F94FF0120836498DF814800BA860
:104CD00001F090FB2049284601F08CFB0BAB05AAA4
:104CE000CDE901444F4900954846FFF77BFE324627
:104CF0003946484603F0DAF9DFF85C912B498DF824
:104D000014800BA801F076FB1349284601F072FBD2
:104D10000BAB05AACDE90144434900954846FFF78E
:104D200061FE32463946484603F0C0F98DF81480DA
:104D30003249DFF828810BA801F05CFB90E000BF4E
:104D400010E403200CE403200D6C0D000000FFFFB5
:104D5000B3400D00A1970D00A8E4032044E4032014
:104D6000C6970D00EB970D0094E4032010980D00FA
:104D700035980D005A980D007F980D0080E40320AF
:104D8000A4980D00D0E40320C9980D00BCE40320D2
:104D9000EE980D00E4E4032013990D0058E403207D
:104DA00038990D000CE503205D990D0020E50320E6
:104DB00082990D0034E50320A7990D0048E50320F2
:104DC000CC990D005CE50320F1990D0070E50320FE
:104DD000169A0D0084E503203B9A0D0098E5032008
:104DE000609A0D00ACE50320859A0D00C0E5032014
:104DF000AA9A0D00D4E50320CF9A0D006CE403209D
:104E0000F49A0D00B4E60320009B0D000B9B0D00EF
:104E1000249B0D00389B0D004D9B0D00669B0D00E3
:104E20007F9B0D00989B0D00AE9B0D00F8E40320C6
:104E30001CE4032030E40320E8E50320CCE6032053
:104E400018E7032028E70320C4E60320BCE603207C
:104E500030E70320A0E60320A8E60320F0E50320C6
:104E60000D49284601F0C6FA0BAB05AACDE901446D
:104E70000A4900954046FFF7B5FD3246394640469F
:104E800003F014F9064800F015F8064800F078FA27
:104E900011B0BDE8F08F00BF94E40320C49B0D0067
:104EA000D4E60320F8E50320FFF7BEBD0368C9B2CE
:104EB0009B68184700228270082202720D4A026124
:104EC0004FF0814242610C4A82610C4AC2614FF04C
:104ED000804202620A4A42620A4A82624FF07E526D
:104EE000C262094A0263094A4263094A8263094A63
:104EF000C26370470000A040000040400000204016
:104F00005555D53FABAAAA3F39B4483EC1CAA13EC8
:104F10009A99193ED9CE773E01238B40017A03F04E
:104F200008030B4303727047022908D800EB4103C2
:104F30005A8101238B40017A21EA030101727047F3
:104F400038B504460D468178006C02F0E5FA206C15
:104F5000036829469B6898470128054601D0FF2031
:104F600038BD206C02F0E0FA0028F8D1A178206C5E
:104F70002A4602F0CEFA0128F1D1206C03685B6961
:104F80009847C0B2ECE72DE9FF4781460C4681788F
:104F9000006C164602F0C0FAD9F84000036804F02D
:104FA0000F019B6841F040019847012803D0FF2082
:104FB00004B0BDE8F087D9F8400002F0B5FA8046A9
:104FC0000028F4D104F00207A5107B1C05F00205AF
:104FD0001D44631003F002031D44630003F0020349
:104FE0001D4499F80210D9F840002A4602F091FABF
:104FF0008542DCD10DF1040AD9F8400003681B6931
:1050000098470028D3D0D9F8400003685B699847D7
:1050100008F101085FFA88F845450AF8010BEBD161
:1050200014F001021DBF9DF805309DF8062042EAEC
:105030000322012318BF032332803FB304AAD118EF
:10504000023311F80C0C11F80B2CDBB242EA0022EF
:10505000728014F0040209D004AAD118023311F8A6
:105060000C0C11F80B2CDBB242EA002214F00804FD
:10507000B28007D004AA134413F80C1C13F80B4C8D
:1050800044EA01249DF80400F48091E73A46DFE702
:105090002DE9F04104460E468178006C174602F077
:1050A0003BFA206C5021FFF701FF012803D0FF25B8
:1050B0002846BDE8F081B100206C01F0FC01FFF74B
:1050C000F5FE0128F3D1206C02F02EFA0028EED173
:1050D000A178206C032202F01CFA0328E7D1206C8F
:1050E00003681B6998470028E1D0206C03685B695E
:1050F00098470546206C03681B6998470028D6D05E
:10510000206C03685B6998478046206C03681B69C4
:1051100098470028CBD0206C03685B699847C3B2DE
:1051200043EA082082B23A8031462046EDB2FFF7CA
:10513000FBFEBDE7F8B5044615460E46FFF7ECFE4C
:105140008178006C02F0E8F9206C6021FFF7AEFE78
:10515000012802D0FF273846F8BD206C290AFFF746
:10516000A5FE0128F6D1206CE9B2FFF79FFE0128C9
:10517000F0D1B100206C01F0FC01FFF797FE01288F
:105180000746E7D1206C02F0CFF90028E2D1A178E0
:10519000206C3A4602F0BDF90128DBD1206C03688F
:1051A0001B6998470028D5D0206C03685B69984735
:1051B000C306C7B2CFD42A4631462046FFF7B4FE15
:1051C000C9E7082310B5F0210372FFF7B9FE0446C2
:1051D000022001F02DF8204610BD73B50D460DF1EB
:1051E000060200210646FFF753FFBDF806202D01F9
:1051F00005F0700522F070022A43044692B20021A5
:105200003046FFF797FF204340F30010C0B202B0D2
:1052100070BD73B50D460DF1060202210646FFF77B
:1052200037FFBDF8062005F0030522F003022A43EC
:10523000044692B202213046FFF77CFF204340F340
:105240000010C0B202B070BD73B50D460DF106027C
:1052500002210646FFF71CFFBDF80620AD0005F051
:105260001C0522F01C022A43044692B20221304659
:10527000FFF760FF204340F30010C0B202B070BDE2
:1052800073B5920002F00C0501F0030129431D01E2
:1052900005F030050D430DF1060202210646FFF729
:1052A000F7FEBDF8062022F4FC6242EA45120446ED
:1052B00092B202213046FFF73DFF204340F3001039
:1052C000C0B202B070BD73B50D460DF106020121EA
:1052D0000646FFF7DDFEBDF80620003D18BF01259C
:1052E00022F4806242EA8522044692B201213046CD
:1052F000FFF720FF204340F30010C0B202B070BDA2
:10530000002914BF0E210C21002A0CBF0A4641F0CF
:105310000102002B2DE9F84304468270436003DB51
:10532000002198B202F040FE089B23642046FFF75C
:1053300048FF072105462046FFF74FFF00231A4686
:10534000194680462046FFF79BFF032181462046F1
:10535000FFF75FFF072107462046FFF775FF002193
:1053600006462046FFF7AFFF48EA09033B433343B5
:10537000034345F300101843C0B2BDE8F8830000B2
:1053800038B50023C3630B4B036401254FF4EE4390
:10539000044680F83850038002F060FE40F20A3381
:1053A0006380054B63600023E0632572E360204661
:1053B00038BD00BF80E6C5470000010113B50B4CA6
:1053C0002178BFF35B8F11F001010BD120460191D1
:1053D000FEF767FE019928B1054802F05DFA204604
:1053E000FEF764FE024802B010BD00BF38E703209C
:1053F0003CE7032007B50190FFF7E0FF019903B0F8
:105400005DF804EB02F0F8BAF8B51E4603780446DE
:105410000D46174613B1012B25D0F8BD90F8383052
:10542000012BFAD14178C06B02F076F8E06B03688B
:1054300039469B689847E06B02F076F8324661780F
:10544000E06B02F066F82E44E06B03681B69984736
:105450000028E2D0B542E0D0E06B03685B69984772
:1054600005F8010BF0E78078002102F0AEFD47F06F
:105470008000FFF7BFFF2E44B54205D00020FFF7A4
:10548000B9FF05F8010BF7E7A0780121BDE8F84066
:1054900002F09BBD2DE9F74304460323F72201A93F
:1054A000FFF7B2FF606BB4F91860B0F5FA334FEA5A
:1054B000E07141F1FF32A3FB038903FB02F109EB29
:1054C0004109F71706FB02F103FB0711A6FB03676F
:1054D0000F44390341EA16513503B4F91A60F7173E
:1054E00006FB09F008FB0700A6FB08670744300A23
:1054F00040EA0760E68A4FEA272C40194CEB010C82
:1055000000304CF5004CA0FB060106FB0C114E10C0
:10551000CF1756EA070100F08C80B4F9200000FB99
:1055200009F5C11708FB0155A0FB0801B4F91E805D
:105530004FEAE87908FB02F203FB0922A8FB038982
:10554000914429444FEA48424FEA4945121845EA36
:10555000D8359DF80630B4F91C8041EB05059DF85F
:1055600005101B0943EA01139DF8041043EA0133B7
:10557000C3F58013D9174FEAC17C4CEA530CD80706
:1055800000239A184FEAC80141EB050540F6354360
:10559000801A6CEB050CA0FB030103FB0C113246D7
:1055A0003B4603F035FEB4F926204D13460B46EA80
:1055B000C14602FB05F7D31706FB0377A2FB0623C0
:1055C0003B44554306FB0355A2FB06232B44550ED3
:1055D00045EAC315B4F92420B4F922402D184FEA46
:1055E000636641EB0606D317514300FB0311A2FB90
:1055F00000230B44D10C41EA43316D184FEAE340DC
:1056000046EB00032A0AE51742EA03621912200159
:105610002B0143EA1473801843EB010103F0BAFD38
:105620009FED050A07EE900A27EE800A03B0BDE859
:10563000F0839FED020AF9E70000803B00000000C4
:1056400013B50223044601A9FD22FFF7DDFEBDF8D4
:105650000410B4F92E30626B49BA1B0589B2C3EB52
:105660008131B4F93030A2F5963202FB131303F501
:105670008043D91394F82C305343DB1203F50040D8
:1056800094F9323053439B1243439B1203F50012AB
:10569000B4F92A30534303F500539B134B43DA13F9
:1056A00094F828105243D2114A43A3EB221323EA61
:1056B000E373B3F1C85FA8BF4FF0C8531B1300EEEC
:1056C000103ABAEECB0A02B010BD000013B50323A6
:1056D00001A9FA220446FFF797FE9DF805209DF8E0
:1056E00004309FED157A120142EA03329DF806302C
:1056F00042EA1311238AC3EB12125B00C3EBD103FE
:10570000B4F9121052435943B4F9143012135343ED
:105710009B1303EBE123636303EB830380331B12CF
:1057200007EE903AF8EEE77A87EE870AD4ED037A2F
:1057300030EE270A02B010BD0000C84208B5FFF7DE
:10574000C5FFF2EE027A20EE270AF1EE047A80EE2F
:10575000277A9FED020A37EE000A08BD00000042DA
:10576000F8B5057804460E4625B1012D23D0002555
:105770002846F8BD90F83870012FF9D14178C06BF8
:1057800001F0CAFEE06B036831469B689847E06B06
:1057900001F0CAFE6178E06B3A4601F0BAFEE06BB8
:1057A00003681B6998470028E2D0E06B03685B69D7
:1057B0009847C5B2F3E70021807802F006FC46F076
:1057C0008000FFF717FE0020FFF714FE01210546B9
:1057D000A07802F0FAFBCBE708B5F421FFF7C0FF91
:1057E00000F0030008BDF8B5077804460E461546DC
:1057F00017B1012F17D0F8BD90F83830012BFAD12E
:105800004178C06B01F088FEE06B036831469B680D
:105810009847E06B036829469B689847E06BBDE8B2
:10582000F84001F081BE0021807802F0CEFB06F046
:105830007F00FFF7DFFD2846FFF7DCFDA078394643
:10584000BDE8F84002F0C1BB38B5032994BF0C464F
:105850000024F4210546FFF783FF00F0FC0044EA32
:105860000002F4212846BDE83840FFF7BCBF38B538
:10587000072994BF0C460024F5210546FFF770FF69
:1058800000F01F0242EA44122846D2B2BDE8384076
:10589000F521FFF7A8BF38B5072994BF0C460024AF
:1058A000F5210546FFF75CFF20F01C0242EA840266
:1058B0002846D2B2BDE83840F521FFF794BF00007A
:1058C000102998BF104B70B598BF5E5C044688BF26
:1058D0000126FFF781FF002105462046FFF7B4FFB0
:1058E000F4212046FFF73CFF00F01F0242EA461277
:1058F0002046F421D2B2FFF776FF29462046BDE8C4
:105900007040FFF7A1BF00BFD29B0D00102998BFC8
:10591000104B70B598BF5E5C044688BF0126FFF748
:105920005BFF002105462046FFF78EFFF42120464D
:10593000FFF716FF20F01C0242EA86022046F421FF
:10594000D2B2FFF750FF29462046BDE87040FFF76E
:105950007BBF00BFD29B0D00102998BF0F4B70B5C5
:1059600098BF5E5C044688BF0126FFF735FF002123
:1059700005462046FFF768FFF2212046FFF7F0FEBC
:1059800000F0F80040EA0602F2212046FFF72BFF64
:1059900029462046BDE87040FFF756BFD29B0D0058
:1059A00038B50446022000F043FC2578002D00F0B5
:1059B000F380012D00F0F980D0212046FFF7D0FEC2
:1059C000582802D0602840F00C8189212046FFF73A
:1059D000C7FE882105462046FFF7C2FE00EB0520E2
:1059E00020828B212046FFF7BBFE8A2105462046F8
:1059F000FFF7B6FE00EB052060828D212046FFF701
:105A0000AFFE8C2105462046FFF7AAFE00EB0520DD
:105A1000A0828F212046FFF7A3FE8E210546204657
:105A2000FFF79EFE00EB0520E08291212046FFF764
:105A300097FE902105462046FFF792FE00EB0520D9
:105A4000208393212046FFF78BFE922105462046B6
:105A5000FFF786FE00EB0520608395212046FFF7C7
:105A60007FFE942105462046FFF77AFE00EB0520D5
:105A7000A08397212046FFF773FE96210546204616
:105A8000FFF76EFE00EB0520E08399212046FFF72B
:105A900067FE982105462046FFF762FE00EB0520D1
:105AA00020849B212046FFF75BFE9A210546204675
:105AB000FFF756FE00EB052060849D212046FFF78E
:105AC0004FFE9C2105462046FFF74AFE00EB0520CD
:105AD000A0849F212046FFF743FE9E2105462046D5
:105AE000FFF73EFE00EB0520E084A1212046FFF7F2
:105AF00037FEE22184F828002046FFF731FEE1213D
:105B000005462046FFF72CFE00EB05206085E321CB
:105B10002046FFF725FEE42184F82C002046FFF7FD
:105B20001FFEE52105462046FFF71AFE00F00F0391
:105B300003EB0510E085E6212046FFF711FEE52185
:105B400005462046FFF70CFE031103EB05102086E7
:105B5000E7212046FFF704FE217984F83200204631
:105B6000FFF785FE61792046FFF795FEE179204633
:105B7000FFF7CCFE217A2046FFF7EEFEA179204602
:105B8000FFF79EFE20460321FFF75EFE2046D02150
:105B9000BDE83840FFF7E4BD94F83830012B7FF4BE
:105BA0000BAFE06B01F086FC06E7FFF707FC01F0A6
:105BB0007DFEFFF703FC202101F0F8FEFFF7FEFB5E
:105BC000294601F084FEFFF7F9FB032101F092FE64
:105BD000A078294602F0E8F9A078294602F0F5F904
:105BE000EAE638BD08B5024B1B689B68019308BD07
:105BF0007802030008B5024B1B681B69019308BDBE
:105C00007802030008B5024B1B681B6A019308BDAC
:105C10007802030008B5024B1B689B6C019308BD1A
:105C20007802030008B5024B1B68DB6C019308BDCA
:105C30007802030008B5024B1B681B6D019308BD79
:105C40007802030008B5024B1B689B6D019308BDE9
:105C50007802030008B5024B1B681B6E019308BD58
:105C60007802030008B5034B1B68D3F89830019302
:105C700008BD00007802030008B5034B1B68D3F889
:105C8000A830019308BD00007802030008B5034B5B
:105C90001B68D3F8B430019308BD000078020300FC
:105CA00008B5034B1B68D3F8D830019308BD00003A
:105CB0007802030008B5034B1B68D3F8DC3001936E
:105CC00008BD00007802030008B5034B1B68D3F839
:105CD000EC30019308BD00007802030008B5034BC7
:105CE0001B68D3F8F030019308BD00007802030070
:105CF00008B5034B1B68D3F80031019308BD0000C1
:105D00007802030008B5034B1B68D3F804310193F4
:105D100008BD00007802030008B5024B1B685B6CED
:105D2000019308BD4802030008B5024B1B689B6C39
:105D3000019308BD4802030008B5024B1B68DB6CE9
:105D4000019308BD4802030008B5024B1B685B6D58
:105D5000019308BD4802030008B5024B1B685B684D
:105D6000019308BD1802030008B5024B1B68DB68ED
:105D7000019308BD1802030008B5024B1B681B699C
:105D8000019308BD1802030008B5024B1B685B694C
:105D9000019308BD1802030008B5024B1B685B683D
:105DA000019308BD2C02030008B5024B1B689B68D9
:105DB000019308BD2C02030008B5024B1B68DB6889
:105DC000019308BD2C02030008B5024B1B681B6938
:105DD000019308BD2C02030008B5024B1B689B69A8
:105DE000019308BD2C02030008B5024B1B68DB6958
:105DF000019308BD2C02030008B5024B1B681B6B06
:105E0000019308BD2C02030008B5024B1B68DB6838
:105E1000019308BD2802030008B5024B1B689B696B
:105E2000019308BD2802030008B5024B1B68DB691B
:105E3000019308BD2802030008B5024B1B681B6ACA
:105E4000019308BD2802030008B5024B1B685B6A7A
:105E5000019308BD2802030008B5024B1B689B6A2A
:105E6000019308BD2802030008B5024B1B68DB6ADA
:105E7000019308BD2802030008B5024B1B681B6B89
:105E8000019308BD2802030008B5024B1B685B6B39
:105E9000019308BD2802030008B5024B1B681B6C68
:105EA000019308BD2802030008B5024B1B681B6D57
:105EB000019308BD2802030008B5024B1B685B690B
:105EC000019308BD6402030008B5024B1B689B6880
:105ED000019308BD6802030008B5024B1B68DB682C
:105EE000019308BD6802030008B5024B1B681B68DC
:105EF000019308BD3002030008B5024B1B689B6884
:105F0000019308BD3002030008B5024B1B68DB6833
:105F1000019308BD3002030008B5024B1B681B69E2
:105F2000019308BD3002030008B5024B1B685B6992
:105F3000019308BD3002030008B5024B1B68DB6902
:105F4000019308BD3002030008B5024B1B681B6AB1
:105F5000019308BD3002030008B5024B1B685B6A61
:105F6000019308BD3002030008B5024B1B681B6C8F
:105F7000019308BD3002030008B5024B1B685B6C3F
:105F8000019308BD3002030008B5024B1B681B6873
:105F9000019308BD3C02030008B5024B1B68DB6897
:105FA000019308BD3C02030008B5024B1B681B6946
:105FB000019308BD3C02030008B5024B1B685B69F6
:105FC000019308BD3C02030008B5024B1B689B69A6
:105FD000019308BD3C02030008B5024B1B68DB6956
:105FE000019308BD3C02030008B5024B1B681B6A05
:105FF000019308BD3C02030008B5024B1B689B6A75
:10600000019308BD3C02030008B5024B1B68DB6A24
:10601000019308BD3C02030008B5024B1B681B6BD3
:10602000019308BD3C02030008B5024B1B681B68C6
:10603000019308BD4C02030008B5024B1B685B6866
:10604000019308BD4C02030008B5024B1B681B6995
:10605000019308BD4C02030008B5024B1B685B6945
:10606000019308BD4C02030008B5024B1B689B69F5
:10607000019308BD4C02030008B5024B1B68DB69A5
:10608000019308BD4C02030008B5024B1B681B6A54
:10609000019308BD4C02030008B5024B1B685B6B03
:1060A000019308BD6002030008B5024B1B681B6D1D
:1060B000019308BD6002030008B5024B1B685B68D2
:1060C000019308BD2002030008B5024B1B685B6901
:1060D000019308BD2002030008B5024B1B68DB6A70
:1060E000019308BD2002030008B5034B1B68D3F8D9
:1060F0008830019308BD00002002030008B5034B5F
:106100001B68D3F89430019308BD000020020300FF
:1061100008B5024B1B689B68019308BD440203004D
:1061200008B5024B1B685B69019308BD440203007C
:1061300008B5024B1B68DB6B019308BD44020300EA
:1061400008B5024B1B685B68019308BD4002030061
:1061500008B5024B1B689B68019308BD4002030011
:1061600008B5024B1B68DB68019308BD40020300C1
:1061700008B5024B1B681B69019308BD4002030070
:1061800008B5024B1B685B69019308BD4002030020
:1061900008B5024B1B689B69019308BD40020300D0
:1061A00008B5024B1B68DB69019308BD4002030080
:1061B00008B5024B1B681B6A019308BD400203002F
:1061C00008B5024B1B681B6B019308BD400203001E
:1061D00008B5024B1B685B6B019308BD40020300CE
:1061E00008B5024B1B681B68019308BD1C02030025
:1061F00008B5024B1B685B68019308BD1C020300D5
:1062000008B5024B1B689B68019308BD1C02030084
:1062100008B5024B1B68DB68019308BD1C02030034
:1062200008B5024B1B685B6C019308BD1C020300A0
:106230000021FFF749BF7047704770477047000063
:10624000064B994210B500F10C0405D0084601F048
:1062500037FF002808BF0024204610BD2C9D0D00EC
:10626000064B994210B500F10C0405D0084601F028
:1062700027FF002808BF0024204610BD2C9D0D00DC
:10628000064B994210B500F10C0405D0084601F008
:1062900017FF002808BF0024204610BD2C9D0D00CC
:1062A000483001F0AFBB10B56021044601F003FF98
:1062B000204610BD10B52421044601F0FCFE204606
:1062C00010BD10B53021044601F0F5FE204610BD8A
:1062D000FDF7E5BEFDF7E3BEFDF7E1BE10B50368CF
:1062E00004469B689847A368013BA3602BB92368C9
:1062F0002046DB68BDE81040184710BD10B50446C5
:10630000006808B1FFF710FD204610BDF0B500256C
:10631000EC1C8C420DD86E1C445D875D974205D104
:106320002644B14205D31D60601CF0BD01342544F4
:10633000EEE70020F9E70000024A00210A20FFF7FB
:10634000ABBE00BF695D0D00A0F13003DAB2092ACF
:1063500001D818467047A0F16103052B01D85738C2
:106360007047A0F14103052B94BF37384FF0FF3041
:106370007047000010B500230370044B04461868F2
:10638000FFF7DAFC01232370204610BD4CE7032001
:1063900010B5037804461BB1024B1868FFF7D4FC14
:1063A000204610BD4CE7032000224260026082714B
:1063B000704708B582798B799A4206D1062203F09C
:1063C000E9F8B0FA80F0400908BD0020FCE70000C1
:1063D00001220261064A1168016051684160118919
:1063E000927A827200220181C0F80B20C27370473A
:1063F000349D0D0010B50B69036101F110020346D5
:1064000051F8044B43F8044B9142F9D110BD10B53B
:106410000B460446B1B1012A01F110020AD101462E
:1064200053F8040B41F8040B9342F9D10123236183
:10643000204610BD411E12F8010D01F8010F9A42CD
:10644000F9D1F3E7102203F0DBF8F1E738B50446A1
:1064500015461A46FFF7DBFFA581204638BD000030
:1064600008B5026922B98089003818BF012008BD2B
:106470000249102203F08EF8F6E700BF549D0D008C
:106480000069704738B50C4614220021054603F018
:10649000B7F823693BB9627B2B74237B43EA022361
:1064A0002B80284638BD01232B7404F110022B46A3
:1064B00054F8041B43F8041B9442F9D1F1E7427BE2
:1064C000007B40EA02207047704710B50B690361FA
:1064D00001F11002034651F8044B43F8044B91427A
:1064E000F9D110BD10B586B00446012201A8FFF70E
:1064F0008EFF01A92046FFF7E8FF06B010BD08B5E2
:1065000002690B699A4206D1102203F043F8B0FAEF
:1065100080F0400908BD0020FCE7000001232DE9C0
:10652000F3410361324B1A6802605A6842600025E9
:106530001A899B7A028104468372C0F80B50C57396
:106540000E4621B32421304603F0A0F8042821D1BF
:10655000ADF8045001AFB51C063615F8020CFFF774
:10656000F3FEB0F1000810DB15F8010CFFF7ECFEAC
:1065700000280ADB023540EA0810AE4207F8010B9A
:10658000EBD1BDF804305BBAA3810023236102B0D4
:10659000BDE8F08110272421304603F077F8A842A7
:1065A00006D827440023BC42F1D007F8013DFAE7A2
:1065B000002FECD0705DFFF7C7FE030615D4000175
:1065C000013F5FFA80F804F807802421304603F089
:1065D0005DF80135A84208D9705DFFF7B5FE40B2FD
:1065E0000028A4BF40EA0800E0550135D3E700BF0A
:1065F000349D0D0013B504460191FFF7E9FE2046D6
:106600000199FFF78BFF204602B010BD2DE9F3473B
:1066100089469DF82870016A04461E46904632B3AA
:1066200001AB4A46FFF772FE256AB31C1FBB10B3CD
:10663000EF183F1A1F2F19D8DDF8049009F1020A4C
:10664000A5EB0902121A00EB090106EB0A0092B24F
:106650002144204402F0BAFF731C04F8093032468A
:10666000414604EB0A0002F0A3FF2762216A0846B4
:1066700002B0BDE8F0872B441F2BF7D8731C63557D
:10668000A81C25442062324685F8019041462044EA
:1066900002F08EFF236A33442362E7E71FB5044606
:1066A000024600F11F01002302F8013B9142FBD199
:1066B00023620093062201238DF80F2019460DF165
:1066C0000F022046FFF7A2FF204604B010BD1FB501
:1066D0000A46044614211046039202F0D7FF002117
:1066E00003460091039A09212046FFF78FFF04B06B
:1066F00010BD73B50A460E4601AB016A0446FFF7AA
:1067000005FE054678B10198226A4119121A214402
:10671000521B204402F04CFF206A401B206231468D
:106720002046FFF7E6FF02B070BDF7B515461F46DD
:106730000A4601AB016A0646FFF7E8FD30F00204A5
:106740000BD0841EBC4228BF3C4635B101990231B2
:1067500022463144284602F02BFF204603B0F0BD0C
:1067600037B513460C4601920A4608210546FFF745
:10677000DCFF40B9019B22460921284603B0BDE851
:106780003040FFF7D2BF03B030BD000038B54FF640
:10679000FF730025044643800E22294605700571CB
:1067A000063002F02DFF04F11400FFF711FE04F192
:1067B0002800FFF70DFE044904F13C0001F06DF9DB
:1067C000C4E91355204638BD219C0D0010B5D0E911
:1067D000063203EBC2029342184606D004682488AE
:1067E0008C4203F10803F6D110BD0020FCE7000045
:1067F000F0B5064685B01F460D46002950D0002A48
:106800004ED004682378F42A28BFF42243B32379B6
:10681000980709D5A08903920023FFF737FA0028CB
:10682000039A03DA05B0F0BD6FF07700346823797E
:10683000D90609D5012F07D0A0890023294605B024
:10684000BDE8F040FFF754BA9B06EBD5022FE9D024
:10685000A0890023294605B0BDE8F040FFF752BAF1
:1068600060884FF6FF7188421CD021794E0701D510
:10687000012F04D10B0709D46FF07700D2E7A1896B
:10688000009313462A46FFF715FACBE7022FF3D001
:106890000023A189009313462A46FFF701FAC1E7B6
:1068A0000248BFE76FF0D100BCE700BFF2FEFFFF78
:1068B00013468A680968FFF79BBF37B50C46054643
:1068C000F4212046019202F0E1FE019B024621469E
:1068D000284603B0BDE83040FFF78ABF2DE9F041FC
:1068E0004FF00008C0F80080054624200F46FDF751
:1068F000D2FB041E04F10C060DD00123C4E90133C0
:10690000074B23603046FFF763FDC4F8208039460B
:106910003046FFF7DAFDC5E900642846BDE8F0819E
:10692000FC9C0D0038B50024046005463020FDF7BE
:10693000B2FB034688B10122C0E90122094A026084
:106940004FF6FF7282810E30FFF72EFDC3E9064439
:10695000C3E90844C3E90A44DC826B600C332B6052
:10696000284638BD189D0D00096851F8022F0260B5
:106970004A68426070471FB50B4601681A6809886B
:10698000128891420CD101466846FFF7EDFF02A83C
:106990001946FFF7E9FF02A96846FFF70AFD00B9AB
:1069A000002005B05DF804FB10B504463420FDF767
:1069B00072FB014668B10023C0E90033C0E902332D
:1069C000C0E90433C0E90633C0E90833C0E90A333B
:1069D0000363216019B90A4A0A20FFF75DFB002012
:1069E000FFF700F920B1064A00210A20FFF754FB07
:1069F000216804480022FFF771F9204610BD00BF4E
:106A0000695D0D00856E0D0010B50B4C2378BFF34A
:106A10005B8FDB070ED42046FDF743FB50B10748E0
:106A2000FFF7C2FF2046FDF741FB054A0549034831
:106A300001F03CFB014810BD44E7032050E7032070
:106A40000CE40320776C0D0070B50368093B012B43
:106A50008AB004460D4612D8FFF7D6FFA188006819
:106A6000FFF7B4FE024660B92023CDE90230094B9E
:106A700000930949034602AA3220FFF715FB0AB02A
:106A800070BDEE6C002EFAD0D4E903102B6DB04728
:106A9000F5E700BF0A9C0D00E39B0D0013B501A8AC
:106AA000FFF768FC0020FFF79DF8044601A8FFF7F8
:106AB0006FFC04EAE47002B010BD10B50C4620462D
:106AC000142102F0E3FD002201462046BDE81040FB
:106AD000FFF798B80968FFF7F0BF08460021FFF7F5
:106AE00089B87FB5002568460E46FFF743FC0C23A6
:106AF000294601A8CDE901550395ADF80630FFF709
:106B000091F8041E06DB294601A88DF80C60FFF7FA
:106B100081F804466846FFF73BFC204604B070BD90
:106B2000084611B90A46FFF785B8096A0022FAE754
:106B300007B5084629B90A4603B05DF804EBFFF72C
:106B400081B801210190FFF7D4FD01980022016A6C
:106B5000F2E713B501A8FFF70DFC0020FFF77AF864
:106B6000044601A8FFF714FC204602B010BD7FB513
:106B7000054603A801911646FFF7FCFB019928463C
:106B8000FFF7CEFF041E09DB31462846FFF7D0FF92
:106B9000041E03DB2846FFF7DCFF044603A8FFF7CB
:106BA000F7FB204604B070BD0368D8690028D4BF45
:106BB0000020012070470B68036013B15A6801324E
:106BC0005A60704710B551F8043B044640F8043B46
:106BD000FFF7F1FF23680BB9FFF7AEFB204610BDAE
:106BE00010B551F8043B044640F8043BFFF7E3FFBF
:106BF000204610BD10B50446006828B14368013B2B
:106C000043600BB9FFF76AFB204610BD10B5044680
:106C10000430FFF7EFFF204610BD70B5D0E90053F8
:106C2000044605EBC306AE4204D0281DFFF7E2FF81
:106C30000835F8E72068FFF7DBFA204670BD70B52D
:106C4000D0E90053044605EBC306AE4204D0281D2C
:106C5000FFF7D0FF0835F8E72068FFF7C9FA2046AC
:106C600070BD10B504462430FFF7E9FF04F11800A9
:106C7000FFF7D3FF10BDF8B504680646C4B1D4E9E8
:106C8000065305EBC307AF4204D0281DFFF7B2FF40
:106C90000835F8E7A069FFF7ABFA04F10C00FFF73D
:106CA000CEFF2046FFF7B9FF3421204601F003FA5A
:106CB0003046F8BD2DE9F04385B080469946602006
:106CC00000230D4616460093FDF7E5F9041E04F176
:106CD0000C071CD01C4B23600122C4E9012236782A
:106CE0003846FFF753FD2946267404F1480000F0AA
:106CF000E8FE0D9BA3650E9BE365494604F1200069
:106D0000FFF7E3FB0C9904F13400FFF7DEFB0023EF
:106D1000CDE90033D8F800300293C8F80070D8F8F5
:106D20000430C8F8044003A80393FFF763FF01A8E9
:106D3000FFF760FFD8F8001019B9044A0A20FFF7DE
:106D4000ABF905B0BDE8F083E09C0D00695D0D0076
:106D50008842F8B506460C46154618D9904217D217
:106D6000A2F10805A1F10807691A4418AF4220D022
:106D70002E1D34B120462B6840F8043B3146FFF706
:106D80001AFF3046FFF736FF083D083CEEE710D00B
:106D9000AC420ED0271D36B13046236840F8043B84
:106DA0003946FFF708FF3846FFF724FF0834083656
:106DB000EEE7F8BD2DE9F041D0E9004305468846ED
:106DC00004EBC307A7421AD041462046FFF7D3FD84
:106DD000064608B90834F5E79CB1201DFFF70AFF05
:106DE000D5E9003204F1080103EBC2022046FFF7A7
:106DF000AFFF6B68013B6B603046BDE8F081002659
:106E0000FAE72646F8E7F7B5044651F8043B476829
:106E1000009301A8FFF7CFFED4E901639E4212DB85
:106E20000136002E2CDDF000FFF7DAF9054608B335
:106E3000D4E9001201EBC202FFF78AFF2068FFF7D6
:106E4000D7F92560A6602668626806EBC70506EBE1
:106E5000C202294605F10800FFF77AFF35B1009B11
:106E600046F8373001A9281DFFF7A5FE63680133F6
:106E70006360012501A8FFF7BDFE284603B0F0BD01
:106E80000025DBE72DE9F04104468EB003A80D464E
:106E9000FFF770FA2368032B07D0042B48D003A810
:106EA000FFF776FA0EB0BDE8F08104A8FFF73AFDCF
:106EB000049B22891A806268049952F8083FC1F83D
:106EC00002305368C1F8063007A8049B069305A951
:106ED000FFF771FE06A905F11800FFF794FF0446BD
:106EE00007A8FFF787FE202306938CB9334B34495C
:106EF00000933220234606AA0794FFF7D5F8049B97
:106F000021461888FEF7AEFE05A8FFF773FEC6E718
:106F10002C4A009200232A49079306AA0120FFF772
:106F2000C3F86B6A002BEFD0E96A04A89847EBE737
:106F300021892846FFF74AFC06460028AFD004689E
:106F4000D4E906314FF6FF72228003EBC10199426A
:106F500003D053F8080B4280F9E7D4E9037307EB39
:106F6000C308B84504D0381DFFF744FE0837F8E7DA
:106F700000232361D4E9067307EBC308B84504D0A6
:106F8000381DFFF737FE0837F8E70023E361638118
:106F9000AB6A13B1296B3046984700232022CDE914
:106FA0000623094A0092064906AA0120FFF77CF849
:106FB000314605F11800FFF7FDFE70E7229C0D0039
:106FC000E39B0D00489C0D00659C0D008842F8B5C0
:106FD00004460D46164614D9904213D2A2F1080673
:106FE000751AA1F108072C44B74218D01CB13146DC
:106FF0002046FFF7F5FD301DFFF7FCFD083E083C7D
:10700000F2E70CD0B5420AD01CB129462046FFF762
:10701000E7FD281DFFF7EEFD08350834F2E7F8BD5F
:1070200070B50E1E054611DDF000FFF7D9F80446D5
:1070300058B1D5E9001201EBC202FFF7C7FF28687B
:10704000FFF7D6F82C60AE60012070BD0024F6E793
:1070500073B5044645686846FFF7C2FDD4E90113DD
:10706000994210DA2368626803EBC50503EBC2029C
:10707000294605F10800FFF7A9FF8DB963680133C0
:107080006360012606E001312046FFF7C9FF06468E
:107090000028E7D101A8FFF7ADFD304602B070BD72
:1070A00069462846FFF79CFDE8E78842F8B50446A4
:1070B0000D46164614D9904213D2A2F10806751A4D
:1070C000A1F108072C44B74218D01CB13146204624
:1070D000FFF778FD301DFFF78DFD083E083CF2E715
:1070E0000CD0B5420AD01CB129462046FFF76AFDF4
:1070F000281DFFF77FFD08350834F2E7F8BD70B5AD
:107100000E1E054611DDF000FFF76AF8044658B17F
:10711000D5E9001201EBC202FFF7C7FF2868FFF7AD
:1071200067F82C60AE60012070BD0024F6E773B5EF
:10713000044645686846FFF745FDD4E901139942C6
:1071400010DA2368626803EBC50503EBC202294627
:1071500005F10800FFF7A9FF8DB96368013363608B
:10716000012606E001312046FFF7C9FF0646002848
:10717000E7D101A8FFF73EFD304602B070BD694679
:107180002846FFF71FFDE8E72DE9F04F1646A1B0AE
:1071900080460AA80D46FFF7EDF83468237953B905
:1071A00031464046FFF70EFD0AA8FFF7F1F84046CA
:1071B00021B0BDE8F08F2B68D3E9037307EBC3035D
:1071C000039304F1280904F1140B039B9F4221D07F
:1071D000D7F800A058460AF11401FFF790F9B8B1AA
:1071E0000AF128014846FFF78AF988B12368DAF8DE
:1071F0000020534033F47F430AD12022CDE91523E8
:10720000584A009215AA58493220FEF74DFFC7E7A9
:107210000837DAE74846FFF723F918B953494846D3
:10722000FFF760F92B68D3E9007307EBC30B5F45E9
:10723000BA4649466AD057F8080BFFF760F90028AC
:10724000F5D004F114073846FFF70AF968B9484B3E
:1072500046491A88013292B21A8015A80123FFF715
:10726000F5F815A93846FFF730F92822002116A8AD
:1072700002F0C6F93F4B1593394604A8FFF702F90F
:1072800004AB18AA0DF1200C18685968174603C7FB
:10729000083363453A46F7D11868386023798DF88A
:1072A0005830DAF800309B8AADF87430E36B1793EE
:1072B000314B0022A11D15A8CDE91E34FEF704FDB7
:1072C00000287FF46DAF012323702C6831460C3405
:1072D0000DA8FFF777FC20460DA9FFF728FF04460D
:1072E0000EA8FFF787FC002C7FF45AAF2023CDE9CE
:1072F0000D34224B00930DAA234684E731464046C5
:10730000FFF760FC0CA8FFF775FC4DE70BA8FFF733
:10731000E5FA494615A8FFF7B5F80B9A0023143291
:1073200015A90120FEF7A8FC0028E7D12F680BA9BA
:107330000DA8FFF755FC38460DA9FFF789FE074653
:107340000EA8FFF757FC002FD8D02A6853681268A0
:1073500003F10053013B0CA802EBC30AFFF74AFC00
:107360006FE700BF849C0D00E39B0D00449D0D0062
:1073700048E7032001002C00496A0D00AF9C0D0076
:1073800010B5064C002320462360FEF7C5FC2046BE
:10739000034A0449BDE8104000F088BE4CE70320D2
:1073A0000CE40320FD620D0010B58368044613B1A0
:1073B000032201469847204610BD0022406811462E
:1073C000FEF7F6BE002240681146FEF701BF406896
:1073D0000022FEF7F5BE4068002281F00101FEF7B1
:1073E000DFBE002340681A461946FEF7D1BE0023CF
:1073F00040681A461946FEF7C3BE0022406811468F
:10740000FEF7B6BE002240681146FEF7A1BE4068F6
:1074100000220221FEF7A4BE002340681A46FEF7B0
:107420008FBE0000024B03225A60024A1A60704766
:1074300054E703206C9D0D007047F8B506461546CD
:107440000C468F18BC4206D0336814F8011B9B68A9
:1074500030469847F6E72846F8BD007C0022FEF744
:10746000EBBC007C0021FEF7EFBC007C0021FEF7A6
:10747000F3BC007C0021FEF7F7BC007C0021FEF786
:10748000FBBC10B51421044600F015FE204610BDCB
:1074900010B54FF47A73044608460021C4E901137D
:1074A000034B236020741146FEF7F6FC204610BD06
:1074B000A09D0D000023007C1A461946FEF7A4BCCF
:1074C0007FB500221423CDE90122ADF804300B78FA
:1074D0008DF808304B680393CB680493007C0B7ADB
:1074E000059301A9FEF7E0FC07B05DF804FB1FB5AA
:1074F000003B8DF800104FF06401039118BF012389
:10750000694601928DF80830FFF7DAFF05B05DF8A3
:1075100004FB0123FFF7EBBF007C0022FEF77CBCDD
:10752000007C0022FEF780BC0121FFF7F9BF004775
:107530002DE9FF4100241D460F4690460646FEF702
:1075400053FCA5424FF00403ADF80D408DF80C300C
:107550008DF80F40A2BF9DF828308DF80E3003AC97
:107560000749009443463A463046A8BF8DF80D506F
:10757000FEF732FCB0FA80F0400904B0BDE8F081BB
:107580002F750D00704710B51821044600F093FDCB
:10759000204610BDF0B5037D062B8DB00E4600F1E0
:1075A00004074FF0000412D000F1080515F8011D82
:1075B0000A22304600F037F9AF42044419D0002CBB
:1075C000F4D02E21304600F015F90444EEE72F23C5
:1075D0006A4639460A208DF80040FEF76DFC684681
:1075E00002F04CF833680246DB686946304698473B
:1075F000044620460DB0F0BD10B5054B04461122DF
:1076000040F8043B002101F0FBFF204610BD00BF05
:10761000C89D0D000346074A10B543F8042B01F13D
:10762000100251F8044B43F8044B9142F9D10A7807
:107630001A7010BDC89D0D0010B59DF8084044EAB1
:10764000032343EA024242EA0161042341600375D5
:1076500010BD13B5CB7800938B784A780978FFF783
:10766000EBFF02B010BD0000014B024A1A607047E8
:107670005CE70320D49D0D00002340681A46FEF706
:107680005FBD406800220221FEF76ABD002240680B
:107690001146FEF75DBD002240681146FEF768BD49
:1076A000002340681A461946FEF76ABD0023406869
:1076B0001A461946FEF76CBD4068002281F00101B0
:1076C000FEF76EBD40680022FEF77ABD00224068DA
:1076D0001146FEF77DBD002240681146FEF768BDE9
:1076E0002DE9F043002495B016460D460746FFF7F6
:1076F00083FF214618220EA8009401F081FF402349
:10770000CDE90C3421466B460CAA3046FEF7E4FB6B
:107710000446002846D1024601216868FEF728FD8C
:107720000221804622466868FEF722FD009E8146BF
:107730002146002E36D0002934D17368022B03D0A5
:107740000A2B0BD0F669F4E7B8F1000F04D0716989
:1077500038460431FFF77DFF4146F3E7B9F1000FEA
:1077600001D14946EEE77469102201A801F048FFF3
:1077700006238DF8143001AD04F10803183418689D
:1077800059682A4603C20833A3421546F7D101A916
:1077900006A807ADFFF73EFF0FCD3C1D0FC42B68B9
:1077A0002370DEE70098FEF78FFB384615B0BDE882
:1077B000F0830000024B034A1A6000225A607047AF
:1077C00060E70320E09D0D00F8B506460D468F18D2
:1077D0000024BD420CD0336815F8011B9B6830466D
:1077E0009847031E01DB1C44F3E7002C08BF1C462E
:1077F0002046F8BD03689B68184738B50D2105463B
:10780000FFF7F8FF0A2104462846FFF7F3FF20445C
:1078100038BD38B50546FCF754FC04462846FFF74A
:10782000ECFF204438BD30B58BB000238DF82430F8
:10783000012A98BF0A2209AC0D46B1FBF2F101FB07
:10784000125303F0FF03092B94BF30333733DBB2FD
:10785000AA4204F8013DEFD92146FCF732FC0BB0F7
:1078600030BD10B50446FFF79FFD204610BD000057
:107870000348044A04490023836000F017BC00BF9A
:1078800068E703200CE4032063780D000021FEF775
:107890006BBB0021FEF770BB10B504460846217093
:1078A000FEF74AFB00236360204610BD10B5044676
:1078B0000078FFF7EBFF48B920784FF6FF71FEF72D
:1078C00013FB2078BDE81040FFF7E3BF10BD13B5F0
:1078D000044600780191FFF7D9FF019940B920785B
:1078E000FEF70AFB207802B0BDE81040FFF7D1BFD9
:1078F00002B010BD13B5044600780191FFF7C6FF32
:10790000019940B92078FEF7FFFA207802B0BDE86F
:107910001040FFF7BEBF02B010BD0000400830B5F8
:107920001860002418688842E5B206D90134082C92
:1079300002D040081860F5E70725024B5B5D137025
:1079400030BD00BF0C9E0D002DE9F04188B0002332
:107950000446007802930E461746FFF797FF054648
:1079600000BB94F800800146142203A801F048FEF1
:107970000B232A4603A94046ADF80C30FEF7ECFA7B
:1079800004988DF8075002AB0DF1070207FB06F1D2
:10799000FFF7C4FF20789DF80710FEF7BDFA2078A6
:1079A000FFF777FF029808B0BDE8F08138B50446CC
:1079B00000780D46FFF76AFF0346D0B9616899B1B8
:1079C0000C4A12F8010B854202D00133082BF8D182
:1079D0000133DBB20122D9402046FFF7B5FF207802
:1079E000BDE83840FFF755BF20782946FEF794FAE6
:1079F000F5E738BD0C9E0D0008B50078FEF794FA47
:107A0000C0B208BD10B504460068FEF7F1FB204681
:107A100010BD10B50446006808B1FEF7E9FB00236D
:107A2000C4E90133236010BD38B504460D46006833
:107A30000131FEF7E5FB10B1C4E90005012038BDB6
:107A400010B50368044623B143688B4201D301207B
:107A500010BD2046FFF7E8FF0028F9D0A368002BEF
:107A6000F5D122681370F2E737B50D461146019241
:107A70000446FFF7E5FF019A28B92046FFF7C9FF42
:107A8000204603B030BDA2602946206801F090FD79
:107A90002268A3680021D154F2E7002313B5C0E99E
:107AA000003304468360037341B10846019101F03D
:107AB000E5FD019902462046FFF7D6FF204602B0B9
:107AC00010BD13B5044659B10846019101F0D6FD29
:107AD000019902462046FFF7C7FF204602B010BDBD
:107AE000FFF797FFF9E7000010B5094B094C022298
:107AF00000201A60084B2060A080A071A360FEF7F0
:107B0000DBFA2046054A0649BDE8104000F0CEBA2F
:107B100084E7032078E703200000FFFF0CE4032044
:107B2000B3400D00024B1A68024B1A60704700BF49
:107B3000A4E3032088E7032070474174704708B529
:107B4000007CFEF759FA20EAE07008BD08B5007C19
:107B5000FEF72AFA20EAE07008BD08B5007CFEF7BF
:107B600033FA40EAE07008BD08B5007CFEF724FA5D
:107B700040EAE07008BD007CFEF72EBA37B5457CC0
:107B800004462DB1207C03B0BDE83040FEF704BAB6
:107B9000007C0191FEF730FA00280199F2DC2846BA
:107BA00003B030BD10B51421044600F084FA20461D
:107BB00010BD000010B54FF0000C044608461146F9
:107BC0004FF47A72C4E901C2044A2260012220748F
:107BD00062741A46FEF7D8F9204610BD389E0D0093
:107BE000007C0023FEF710BA0022FFF7F9BF007CEB
:107BF000FEF712BAF7B51B4C26684EB98420FCF785
:107C00004AFA054618B18422314601F0F9FC256094
:107C1000154D2F684FB98420FCF73DFA064618B180
:107C20008422394601F0ECFC2E60104E3178BFF30F
:107C30005B8F11F0010112D130460191FCF731FA4E
:107C4000019960B122682B680948FFF7B3FF3046FD
:107C5000FCF72CFA074A0849054800F027FA0448BF
:107C600003B0F0BD90E7032094E703208CE70320E6
:107C700098E703200CE40320397B0D004174704722
:107C8000704708B50021007CFEF7EEF940EAE0708D
:107C900008BD08B50121007CFEF7E6F940EAE07076
:107CA00008BD08B5007CFEF7D7F920EAE07008BDF2
:107CB00008B5007CFEF7C8F920EAE07008BD13B5EE
:107CC0000446007C0191FEF7C7F90028019901DC08
:107CD000607C20B1207CFEF7CFF920EAE07002B092
:107CE00010BD007CFEF7D0B910B51421044600F099
:107CF000E2F9204610BD000010B54FF47A73044637
:107D000008460021C4E90113044B236001232074B9
:107D100063741146FEF788F9204610BD689E0D0079
:107D2000007C0022FEF788B910B514220446002119
:107D300001F066FC204610BD10B5104C88B003A8B9
:107D4000FFF7F2FF2178BFF35B8F11F0010111D132
:107D500020460191FCF7A5F9019958B103AA0848FA
:107D6000FFF7CAFF2046FCF7A1F9064A0649044876
:107D700000F09CF9024808B010BD00BFACE703203A
:107D8000B0E703200CE40320817C0D000022406852
:107D90001146FEF7EDB9002240681146FEF708BA19
:107DA000002240681146FEF713BA40680022FEF731
:107DB00007BA4068002281F00101FEF7F1B9002303
:107DC00040681A461946FEF7E3B9002340681A4690
:107DD0001946FEF7D5B9002240681146FEF7B8B93A
:107DE000406800220221FEF7BBB9002340681A4612
:107DF000FEF7A6B9024B04225A60024A1A60704785
:107E0000C4E70320989E0D00014B1860704700BF27
:107E1000A8E3032008B50B4B43B1FFF78DFF0368C0
:107E20001B699847002801DDAFF30080064B43B182
:107E3000FFF7E0FE03681B699847002801DDAFF3F8
:107E4000008008BD000000000000000008B5FFF73A
:107E5000E1FFFDF799FF014B186008BDD4E703204F
:107E60000248034A0349121A01F0A2BB00F403209E
:107E700004F4032028A00D0007B5002300931A4640
:107E80006FF07701FEF73AF903B05DF804FB0000EC
:107E900007B543880A2B08D0502B0BD1094B1B6820
:107EA0004BB103B05DF804EB1847FFF7E5FF03B0F3
:107EB0005DF804FB002300931A466FF07701FEF78C
:107EC0001DF9F4E7D0E7032038B5124C1248134DE2
:107ED0000021FEF7A5F92368AB42114B0CBF01222C
:107EE00000221A7002D0FFF7BBFF2560FDF734FFB8
:107EF000044601F08DFB0B4B13B12046AFF300801D
:107F000000210848FEF714F9BDE838400648002172
:107F1000FEF7EAB800F40320097E0D001E1C279A24
:107F2000CCE7032000000000917E0D00232813B54C
:107F300002D9002002B010BDA0F10B03022B1AD809
:107F4000174C2178BFF35B8F11F001010BD1204654
:107F50000191FCF7A6F8019928B11248FFF79CFCA3
:107F60002046FCF7A3F80F4B1878FDF7EDFF00282B
:107F7000DFD10120DEE7012809D800F06FF80021E9
:107F8000007CFDF781FF80F00100C0B2D2E7093824
:107F90000128EED8FFF72EFE007CFEF725F8F2E769
:107FA00038E703203CE70320232838B504460D4674
:107FB0000AD8FF2908D0FFF7B9FF28B12946204683
:107FC000BDE83840FDF7F0BE38BD38B504460D4673
:107FD000FDF7F2FEFF2810D0062804D84D2323FA1F
:107FE00000F0C30709D42046FFF7A0FF28B12946B7
:107FF0002046BDE83840FDF7E7BE38BD0D2810B576
:1080000004469CBF0E34A4B22046FFF78FFF50B148
:1080100003212046FDF7C0FE032804D12046BDE819
:108020001040FDF7E9BE002010BD000038B5002368
:10803000202543801423044603808560056106499A
:10804000284600F03AF804496060284600F035F808
:10805000E060204638BD00BFC49E0D0030B50F4D16
:108060002978BFF35B8F11F0010487B013D1284644
:10807000FCF717F878B101A8FFF7D8FF01AA21464D
:108080000748FFF705FA2846FCF710F8054A0649A5
:10809000034800F00BF8024807B030BDD8E70320D2
:1080A000DCE703200CE4032039740D000B46014685
:1080B000184601F061BAFBF7F2BFFBF7EEBF000014
:1080C000014900F0F9B800BFE09E0D007FB5002423
:1080D0001023CDE90234036800949E698DF80440B2
:1080E00015466B461268B0479DF8043003F006034E
:1080F000062B03BF009B2B600120204604B070BDFF
:108100000098904214BF01200620704710B5034B21
:108110000360044600F0CDF8204610BD209F0D00FE
:1081200010B50446FFF7F2FF20460821FFF7C3FF12
:10813000204610BD2DE9F0411F46DDE90834DDF889
:10814000188098450646154607D1079900F0B4F8FF
:1081500018B165710020BDE8F0813946304600F065
:10816000ABF80028F6D00123C4F800802571A37174
:10817000F0E738B515461C4600F09EF820B10823FC
:10818000E36006232560237138BD73B505460C46B0
:1081900001921E4600F090F850B9032E08D82368CB
:1081A000019A5B692946204602B0BDE87040184735
:1081B00002B070BD10B5034B03600446FFF7A6FF85
:1081C000204610BD809F0D0010B50446FFF7F2FF5A
:1081D00020460C21FFF76FFF204610BDF7B5089F22
:1081E000974205460E4614460AD0A86802680897CA
:1081F000156A31462246AC4603B0BDE8F040604700
:108200001946019300F058F8019B0028EDD0062094
:1082100003B0F0BD2DE9F14F0D461946DDE90A4BDB
:10822000DDE90CA681461746984600F045F890B166
:10823000002D3460377109DB61198A450CBF0621B6
:108240000121B171002001B0BDE8F08F0235F9D1F4
:108250000123B371F6E7544506D15946484600F06C
:108260002BF808B17771EDE7D9F808000368CDE97C
:108270000CA6CDE90A4BDC693A4643462946A4469A
:1082800001B0BDE8F04F60472DE9F04107460C46CC
:1082900015461E46FFF76DFF48B9B86803689F6929
:1082A0002A4633462146BC46BDE8F0416047BDE85A
:1082B000F081704700207047814208B50ED04068B9
:1082C00003782A2B0CD049680B782A2B08BF013180
:1082D00001F0C2F9B0FA80F0400908BD0120FCE7C6
:1082E0000020FAE708B52DED028BF0EE408AB0EEE3
:1082F000608A00F033F820B9B0EE480ABDEC028B7A
:1083000008BDB0EE480A00F029F820B1F4EEC88AA2
:10831000F1EE10FAF0DDB0EE680ABDEC028B08BD9C
:1083200008B52DED028BF0EE408AB0EE608A00F0C9
:1083300015F820B9B0EE480ABDEC028B08BDB0EECE
:10834000480A00F00BF820B1F4EEC88AF1EE10FAFA
:10835000F0D5B0EE680ABDEC028B08BD10EE103A05
:1083600033F000400ED0A0F50003B3F1FE4F0DD363
:10837000074B421E9A4207D9A0F1FF40B0FA80F0A5
:10838000400970470220704703207047042070475F
:10839000FEFF7F0000F000B810B582B0CDED010AFD
:1083A000019B23F00042B2F1FF4FF0EE407A30DC47
:1083B00010EE100A20F00041B1F1FF4F29DCB3F1BB
:1083C0007E5F42D09C1704F0020444EAD07431B3BB
:1083D0007AB3B2F1FF4F40D0B1F1FF4F29D08A1AE2
:1083E000B2F1F45F4FEAE25134DA002B42DA3C3169
:1083F00040DA9FED340A012C4ED0022C43D064B1F8
:108400009FED317ADFED317A30EE070A30EE670A00
:1084100003E09DED017A37EE270A02B010BD022C71
:1084200010D09FED2B0A032C18BFB0EE670A02B0E4
:1084300010BD9FED280ADFED287A0028B8BFB0EE06
:10844000670AEAE79FED210AE7E702B0BDE81040BE
:1084500000F04AB89FED1F0ACDE7B1F1FF4F04F1DC
:10846000FF3420D0022C26D81C4B03EB840494ED5F
:10847000000AD2E79DED017A87EE870A00F00CF939
:1084800000F032F8B7E79FED107ADFED107A30EEAA
:10849000070A37EEC00AC0E710EE103A03F10043B6
:1084A00000EE103AB9E7022C08D80D4B03EB840418
:1084B00094ED000AB1E79FED030AAEE79FED090ACC
:1084C000ABE700BF000000002EBDBB33DB0F49400F
:1084D000DB0F49C0DB0FC93FDB0FC9BFC89F0D00D1
:1084E000BC9F0D00DB0F493F38B510EE105A25F048
:1084F0000044B4F1A14FF0EE407A0BDBB4F1FF4F32
:1085000059DCDFED527A9FED520A002DC8BFB0EE64
:10851000670A38BD4F4B9C425CDCB4F1445F4DDBD5
:108520004FF0FF3327EEA76A9FED4B1A9FED4B2AC2
:108530009FED4B3ADFED4B1ADFED4B2A9FED4B4A97
:10854000DFED4B3A9FED4B5ADFED4B4ADFED4B6AC7
:10855000DFED4B5A26EE067A5A1CA7EE012AE7EE0B
:10856000212AA2EE073AE2EE873AA3EE074AE3EEAB
:10857000874AA4EE075AE4EE875AE5EE076A25EE2D
:10858000877A66EE866A3AD03E493F4A01EB83011C
:1085900076EE876A91ED000A96EEA70A02EB830356
:1085A000002D93ED007A70EE677A37EE670AB0DA45
:1085B000B1EE400A38BD30EE000A38BD9FED337A87
:1085C00030EE077AF7EE006AB4EEE67AF1EE10FAD2
:1085D000A6DD38BD00F060F82D4B9C4216DCA3F5FB
:1085E000D0039C4227DCF0EE007ABFEE007AA0EECA
:1085F000277A002330EE270AC7EE007A92E776EE5C
:10860000876AE6EEE77AB0EE670A38BD214B9C42F6
:108610000BDCF7EE087AB7EE007AA0EE277A022399
:1086200030EE670AC0EE077A7CE7BFEE007AC7EE4D
:10863000007A032376E7F7EE007A30EE677A30EEC1
:10864000270A0123C7EE007A6CE700BFDB0FC93FA2
:10865000DB0FC9BFFFFFDF3ED769853C59DA4B3DD1
:10866000356B883D21A215BD6BF16EBD6E2EBA3DF6
:1086700095879DBD2549123E388EE3BDABAAAA3E23
:10868000CDCC4CBEE49F0D00D49F0D00CAF24971C1
:10869000FFFF973FFFFF1B4010EE103A23F000430F
:1086A00000EE103A704700BF81F0004102E000BFC9
:1086B00083F0004330B54FEA41044FEA430594EAA2
:1086C000050F08BF90EA020F1FBF54EA000C55EADD
:1086D000020C7FEA645C7FEA655C00F0E2804FEAAE
:1086E0005454D4EB5555B8BF6D420CDD2C4480EA90
:1086F000020281EA030382EA000083EA010180EAC0
:10870000020281EA0303362D88BF30BD11F0004F0D
:108710004FEA01314FF4801C4CEA113102D0404243
:1087200061EB410113F0004F4FEA03334CEA13337E
:1087300002D0524263EB430394EA050F00F0A78096
:10874000A4F10104D5F1200E0DDB02FA0EFC22FA91
:1087500005F2801841F1000103FA0EF2801843FA85
:1087600005F359410EE0A5F120050EF1200E012A76
:1087700003FA0EFC28BF4CF0020C43FA05F3C018B4
:1087800051EBE37101F0004507D54FF0000EDCF12D
:10879000000C7EEB00006EEB0101B1F5801F1BD3D6
:1087A000B1F5001F0CD349085FEA30004FEA3C0CDA
:1087B00004F101044FEA445212F5800F80F09A80D0
:1087C000BCF1004F08BF5FEA500C50F1000041EBD4
:1087D000045141EA050130BD5FEA4C0C404141EBD8
:1087E0000101013C28BFB1F5801FE9D291F0000FD3
:1087F00004BF01460020B1FA81F308BF2033A3F182
:108800000B03B3F120020CDA0C3208DD02F1140C78
:10881000C2F10C0201FA0CF021FA02F10CE002F1B3
:108820001402D8BFC2F1200C01FA02F120FA0CFCAC
:10883000DCBF41EA0C019040E41AA2BF01EB0451F5
:10884000294330BD6FEA04041F3C1CDA0C340EDCF3
:1088500004F11404C4F1200220FA04F001FA02F336
:1088600040EA030021FA04F345EA030130BDC4F1F4
:108870000C04C4F1200220FA02F001FA04F340EAE9
:108880000300294630BD21FA04F0294630BD94F09A
:10889000000F83F4801306BF81F480110134013D81
:1088A0004EE77FEA645C18BF7FEA655C29D094EAF2
:1088B000050F08BF90EA020F05D054EA000C04BF70
:1088C0001946104630BD91EA030F1EBF002100205B
:1088D00030BD5FEA545C05D14000494128BF41F0FA
:1088E000004130BD14F580043CBF01F5801130BD5E
:1088F00001F0004545F0FE4141F470014FF00000E9
:1089000030BD7FEA645C1ABF194610467FEA655C99
:108910001CBF0B46024650EA013406BF52EA03353B
:1089200091EA030F41F4002130BD00BF90F0000F29
:1089300004BF0021704730B54FF4806404F1320465
:108940004FF000054FF0000150E700BF90F0000F1E
:1089500004BF0021704730B54FF4806404F1320445
:1089600010F0004548BF40424FF000013EE700BF15
:1089700042004FEAE2014FEA31014FEA02701FBFA5
:1089800012F07F4393F07F4F81F06051704732F0D7
:108990007F4208BF704793F07F4F04BF41F400212E
:1089A000704730B54FF4607401F0004521F000418C
:1089B0001CE700BF50EA010208BF704730B54FF016
:1089C00000050AE050EA010208BF704730B511F017
:1089D000004502D5404261EB41014FF4806404F14F
:1089E00032045FEA915C3FF4D8AE4FF003025FEAD5
:1089F000DC0C18BF03325FEADC0C18BF033202EB59
:108A0000DC02C2F1200300FA03FC20FA02F001FAB2
:108A100003FE40EA0E0021FA02F11444BDE600BF55
:108A200070B54FF0FF0C4CF4E06C1CEA11541DBF04
:108A30001CEA135594EA0C0F95EA0C0F00F0DEF8CF
:108A40002C4481EA030621EA4C5123EA4C5350EAB4
:108A5000013518BF52EA033541F4801143F4801305
:108A600038D0A0FB02CE4FF00005E1FB02E506F096
:108A70000042E0FB03E54FF00006E1FB03569CF0EB
:108A8000000F18BF4EF0010EA4F1FF04B6F5007FF1
:108A900064F5407404D25FEA4E0E6D4146EB060663
:108AA00042EAC62141EA55514FEAC52040EA5E50EC
:108AB0004FEACE2EB4F1FD0C88BFBCF5E06F1ED896
:108AC000BEF1004F08BF5FEA500E50F1000041EBCD
:108AD000045170BD06F0004646EA010140EA02007A
:108AE00081EA0301B4EB5C04C2BFD4EB0C0541EA9C
:108AF000045170BD41F480114FF0000E013C00F3B1
:108B0000AB8014F1360FDEBF002001F0004170BDD4
:108B1000C4F10004203C35DA0C341BDC04F11404ED
:108B2000C4F1200500FA05F320FA04F001FA05F279
:108B300040EA020001F0004221F0004110EBD37046
:108B400021FA04F642EB06015EEA430E08BF20EA72
:108B5000D37070BDC4F10C04C4F1200500FA04F315
:108B600020FA05F001FA04F240EA020001F00041A7
:108B700010EBD37041F100015EEA430E08BF20EA1A
:108B8000D37070BDC4F1200500FA05F24EEA020E62
:108B900020FA04F301FA05F243EA020321FA04F091
:108BA00001F0004121FA04F220EA020000EBD37048
:108BB0005EEA430E08BF20EAD37070BD94F0000F48
:108BC0000FD101F00046400041EB010111F4801F7C
:108BD00008BF013CF7D041EA060195F0000F18BF2D
:108BE000704703F00046520043EB030313F4801F69
:108BF00008BF013DF7D043EA0603704794EA0C0F23
:108C00000CEA135518BF95EA0C0F0CD050EA410638
:108C100018BF52EA4306D1D181EA030101F00041B5
:108C20004FF0000070BD50EA410606BF10461946DD
:108C300052EA430619D094EA0C0F02D150EA0136E9
:108C400013D195EA0C0F05D152EA03361CBF10462A
:108C500019460AD181EA030101F0004141F0FE41C9
:108C600041F470014FF0000070BD41F0FE4141F44D
:108C7000780170BD70B54FF0FF0C4CF4E06C1CEA4D
:108C800011541DBF1CEA135594EA0C0F95EA0C0F02
:108C900000F0A7F8A4EB050481EA030E52EA0335BD
:108CA0004FEA013100F088804FEA03334FF08055DE
:108CB00045EA131343EA12634FEA022245EA11150B
:108CC00045EA10654FEA00260EF000419D4208BFBC
:108CD000964244F1FD0404F5407402D25B084FEA69
:108CE0003202B61A65EB03055B084FEA32024FF415
:108CF00080104FF4002CB6EB020E75EB030E22BF72
:108D0000B61A754640EA0C005B084FEA3202B6EB31
:108D1000020E75EB030E22BFB61A754640EA5C00E0
:108D20005B084FEA3202B6EB020E75EB030E22BF70
:108D3000B61A754640EA9C005B084FEA3202B6EB71
:108D4000020E75EB030E22BFB61A754640EADC0030
:108D500055EA060E18D04FEA051545EA16754FEA92
:108D600006164FEAC30343EA52734FEAC2025FEAB0
:108D70001C1CC0D111F4801F0BD141EA00014FF03F
:108D800000004FF0004CB6E711F4801F04BF014310
:108D90000020B4F1FD0C88BFBCF5E06F3FF6AFAE2C
:108DA000B5EB030C04BFB6EB020C5FEA500C50F1BC
:108DB000000041EB045170BD0EF0004E4EEA11313F
:108DC00014EB5C04C2BFD4EB0C0541EA045170BD46
:108DD00041F480114FF0000E013C90E645EA060E8A
:108DE0008DE60CEA135594EA0C0F08BF95EA0C0FB8
:108DF0003FF43BAF94EA0C0F0AD150EA01347FF400
:108E000034AF95EA0C0F7FF425AF104619462CE7D6
:108E100095EA0C0F06D152EA03353FF4FDAE104639
:108E2000194622E750EA410618BF52EA43067FF48A
:108E3000C5AE50EA41047FF40DAF52EA43057FF41A
:108E4000EBAE12E74FF0FF3C06E000BF4FF0010C25
:108E500002E000BF4FF0010C4DF804CD4FEA410C89
:108E60007FEA6C5C4FEA430C18BF7FEA6C5C1BD056
:108E700001B050EA410C0CBF52EA430C91EA030FD7
:108E800002BF90EA020F0020704710F1000F91EA34
:108E9000030F58BF994208BF90422CBFD8176FEA02
:108EA000E37040F0010070474FEA410C7FEA6C5CD0
:108EB00002D150EA013C07D14FEA430C7FEA6C5CD7
:108EC000D6D152EA033CD3D05DF8040B704700BF03
:108ED0008446104662468C461946634600E000BF51
:108EE00001B5FFF7B7FF002848BF10F1000F01BD23
:108EF0004DF808EDFFF7F4FF0CBF012000205DF8EE
:108F000008FB00BF4DF808EDFFF7EAFF34BF012072
:108F100000205DF808FB00BF4DF808EDFFF7E0FF0B
:108F200094BF012000205DF808FB00BF4DF808ED5C
:108F3000FFF7CEFF94BF012000205DF808FB00BFC3
:108F40004DF808EDFFF7C4FF34BF012000205DF8A5
:108F500008FB00BF4FEA4102B2F1E04324BFB3F582
:108F6000001CDCF1FE5C0DD901F0004C4FEAC002A0
:108F70004CEA5070B2F1004F40EB830008BF20F084
:108F80000100704711F0804F21D113F13872BCBF3E
:108F900001F00040704741F480114FEA5252C2F193
:108FA0001802C2F1200C10FA0CF320FA02F018BFDC
:108FB00040F001004FEAC1234FEAD32303FA0CFC2F
:108FC00040EA0C0023FA02F34FEA4303CCE77FEABE
:108FD000625307D150EA01331EBF4FF0FE4040F408
:108FE0004000704701F0004040F0FE4040F40000B7
:108FF000704700BF80F0004002E000BF81F00041F8
:1090000042001FBF5FEA410392EA030F7FEA226C2E
:109010007FEA236C6AD04FEA1262D2EB1363C1BFBE
:10902000D218414048404140B8BF5B42192B88BF2D
:10903000704710F0004F40F4000020F07F4018BF50
:10904000404211F0004F41F4000121F07F4118BF70
:10905000494292EA030F3FD0A2F1010241FA03FC18
:1090600010EB0C00C3F1200301FA03F100F0004300
:1090700002D5494260EB4000B0F5000F13D3B0F1C8
:10908000807F06D340084FEA310102F10102FE2A37
:1090900051D2B1F1004F40EBC25008BF20F00100A7
:1090A00040EA03007047490040EB0000013A28BF46
:1090B000B0F5000FEDD2B0FA80FCACF1080CB2EBC9
:1090C0000C0200FA0CF0AABF00EBC2505242184347
:1090D000BCBFD0401843704792F0000F81F40001EC
:1090E00006BF80F400000132013BB5E74FEA4103BF
:1090F0007FEA226C18BF7FEA236C21D092EA030F2B
:1091000004D092F0000F08BF0846704790EA010FA4
:109110001CBF0020704712F07F4F04D1400028BFD1
:1091200040F00040704712F100723CBF00F50000B3
:10913000704700F0004343F0FE4040F400007047E9
:109140007FEA226216BF08467FEA23630146420295
:1091500006BF5FEA412390EA010F40F480007047A8
:109160004FF0000304E000BF10F0004348BF40424E
:109170005FEA000C08BF704743F0964301464FF08A
:1091800000001CE050EA010208BF70474FF00003E6
:109190000AE000BF50EA010208BF704711F0004327
:1091A00002D5404261EB41015FEA010C02BF8446F7
:1091B0000146002043F0B64308BFA3F18053A3F556
:1091C0000003BCFA8CF2083AA3EBC25310DB01FA9D
:1091D00002FC634400FA02FCC2F12002BCF1004F21
:1091E00020FA02F243EB020008BF20F001007047B2
:1091F00002F1200201FA02FCC2F1200250EA4C0006
:1092000021FA02F243EB020008BF20EADC7070474B
:109210007BB972B90029BEBF00204FF0004106E0C3
:1092200008BF00281CBF6FF000414FF0FF3000F076
:10923000A1B9ADF1080C6DE904CE002909DB002BC2
:109240001ADB00F035F8DDF804E0DDE9022304B0B4
:109250007047404261EB4101002B1BDB00F028F816
:10926000DDF804E0DDE9022304B0404261EB410196
:10927000524263EB43037047524263EB430300F0F7
:1092800017F8DDF804E0DDE9022304B0404261EBA9
:1092900041017047524263EB430300F009F8DDF8E7
:1092A00004E0DDE9022304B0524263EB430370475C
:1092B0002DE9F047089D04468C46002B40F0838042
:1092C0008A42174647D9B2FA82F242B1C2F120006F
:1092D00024FA00F09140974040EA010C94404FEA94
:1092E0001748230CBCFBF8F61FFA87FE08FB16C1D3
:1092F00043EA014306FB0EF1994209D9FB1806F136
:10930000FF3080F01981994240F21681023E3B44C1
:109310005B1AA4B2B3FBF8F008FB103344EA034431
:1093200000FB0EFEA64509D93C1900F1FF3380F081
:109330000581A64540F2028102383C4440EA0640DD
:10934000A4EB0E0400261DB1D4400023C5E9004360
:109350003146BDE8F08702B9FFDEB2FA82F2002A98
:1093600050D1CB1B4FEA174E1FFA87F80126B3FBEB
:10937000FEFC210C0EFB1C3341EA034108FB0CF3FD
:109380008B4207D979180CF1FF3002D28B4200F2E0
:10939000E9808446C91AA3B2B1FBFEF00EFB10119E
:1093A00043EA014408FB00F8A04507D93C1900F145
:1093B000FF3302D2A04500F2D9801846A4EB08047E
:1093C00040EA0C40BFE78B4209D9002D00F0B18084
:1093D0000026C5E9000130463146BDE8F087B3FA02
:1093E00083F6002E4AD18B4202D3824200F2B8802B
:1093F000841A61EB030101208C46002DA8D0C5E939
:10940000004CA5E7C2F1200320FA03F6974001FAC9
:1094100002F04FEA174ED9403043030CB1FBFEF681
:109420001FFA87F80EFB161143EA014306FB08F109
:10943000994204FA02F409D9FB1806F1FF3C80F0C6
:109440008D80994240F28A80023E3B445B1A81B291
:10945000B3FBFEF00EFB103341EA034100FB08F3BF
:109460008B4207D9791800F1FF3C73D28B4271D936
:1094700002383944CB1A40EA064678E7C6F1200C98
:1094800003FA06F422FA0CF31C4320FA0CF701FA53
:1094900006F34FEA144E21FA0CF11F433B0CB1FBCB
:1094A000FEF91FFA84F80EFB191143EA014109FB8A
:1094B00008FA8A4502FA06F200FA06F308D961189A
:1094C00009F1FF3048D28A4546D9A9F10209214461
:1094D000A1EB0A01BFB2B1FBFEF00EFB101147EA8F
:1094E000014700FB08F8B84507D9E71900F1FF313B
:1094F0002ED2B8452CD90238274440EA0940A7EBC0
:109500000807A0FB02894F45C64649461AD317D023
:109510005DB1B3EB0E0267EB010707FA0CFCF240FA
:109520004CEA0202F740C5E9002700263146BDE8B3
:10953000F0872E4628460BE70646E9E61846FDE684
:109540004345E5D2B8EB020E69EB04010138DFE7D1
:109550000846D2E760468DE78146B9E7664675E77B
:1095600030464AE7ACF1020C394413E702383C4478
:1095700024E700BF704700BF10B5054C13462CB15F
:109580000A4601460220AFF3008010BD2046FCE7EA
:109590000000000030B501390024A24201D10020B2
:1095A00005E0035D01340D5DAB42F6D0581B30BDC4
:1095B0000A44914200F1FF3300D1704710B511F811
:1095C000014B03F8014F9142F9D110BD884210B50B
:1095D00001EB020402D98442234607D8431EA1426C
:1095E00008D011F8012B03F8012FF8E702440146D7
:1095F0008A4200D110BD13F8014D02F8014DF7E782
:1096000002440346934200D1704703F8011BF9E777
:1096100038B50D4B1D68AB6B04467BB91820FCF7C1
:10962000DFFD0A4A0A4BA863C0E90023094B8360A7
:109630000B23838101220023C0E90423AB6B0022AA
:109640001C615A6138BD00BFA8E303200E33CDABC7
:1096500034126DE6ECDE050010F8012B11F8013B29
:10966000012A28BF9A42F7D0D01A7047034611F852
:10967000012B03F8012B002AF9D17047034613F898
:10968000012B002AFBD1181A0138704710B5024689
:1096900001448A42134601D1181A10BD1C780132C8
:1096A000002CF6D1F8E7000021400D005D400D00D0
:1096B00085400D0089400D00000000004A6F686E73
:1096C000205A656865746E657220202020204661EE
:1096D0006B65204B65737472656C0046495245207A
:1096E0002D2032333334333539004B657374726552
:1096F0006C206279204E4B003535303046574C0097
:109700005265762031314200312E323100464952C5
:1097100045000A0A46616B65204B65737472656C7F
:109720000A426567696E6E696E672073657475704D
:109730002E00537461747573203D20253058002528
:10974000342E3166204D5048202025332E3066259A
:1097500063202025342E3166256346202025322EB5
:10976000306625250025342E3166204D50482020B6
:1097700025332E30662563202025352E31666D4237
:10978000202042617425332E306625250057726FE4
:109790006E672073637265656E206E756D626572AB
:1097A0000030333239303030302D454142342D4491
:1097B0004541312D423234452D3434454330323326
:1097C00038373444420030303030313830612D3059
:1097D0003030302D313030302D383030302D303089
:1097E00038303566396233346662003030303031BB
:1097F0003830662D303030302D313030302D38302B
:1098000030302D303038303566396233346662009E
:1098100030303030326132392D303030302D31300F
:1098200030302D383030302D3030383035663962B8
:10983000333466620030303030326130302D3030B9
:1098400030302D313030302D383030302D30303810
:109850003035663962333466620030303030326120
:1098600030312D303030302D313030302D383030F7
:10987000302D30303830356639623334666200302E
:10988000303030326132352D303030302D313030A3
:10989000302D383030302D30303830356639623345
:1098A0003466620030303030326132372D30303043
:1098B000302D313030302D383030302D30303830A0
:1098C00035663962333466620030303030326132AE
:1098D000362D303030302D313030302D3830303082
:1098E0002D303038303566396233346662003030BE
:1098F0003030326132382D303030302D3130303030
:109900002D383030302D30303830356639623334D0
:1099100066620030303030326132342D30303030D9
:109920002D313030302D383030302D30303830352A
:109930006639623334666200303332393033313065
:109940002D454142342D444541312D423234452D7F
:1099500034344543303233383734444200303332C4
:1099600039303332302D454142342D444541312D7B
:10997000423234452D343445433032333837344461
:10998000420030333239303130312D454142342DAF
:10999000444541312D423234452D34344543303233
:1099A0003338373444420030333239303130322D9D
:1099B000454142342D444541312D423234452D3408
:1099C000344543303233383734444200303332394F
:1099D000303130332D454142342D444541312D4203
:1099E0003234452D343445433032333837344442F1
:1099F0000030333239303130342D454142342D443A
:109A00004541312D423234452D34344543303233D3
:109A100038373444420030333239303130352D4517
:109A20004142342D444541312D423234452D3434A8
:109A300045433032333837344442003033323930E2
:109A40003230302D454142342D444541312D423292
:109A500034452D34344543303233383734444200B2
:109A600030333239303330302D454142342D444586
:109A700041312D423234452D343445433032333870
:109A8000373444420030333239303333302D45419E
:109A900042342D444541312D423234452D34344534
:109AA0004330323338373444420030333239303384
:109AB00034302D454142342D444541312D4232341C
:109AC000452D343445433032333837344442003046
:109AD000303030326131392D303030302D3130304E
