:02000002D0002C
:1040000000400D00ECA00D00000006000C000501B2
:084010000401E80500000000B6
:0440180054970D00AC
:1040200009480A49884208B505D0094A824202D0A7
:10403000121A05F01CFB0748074A0021121A05F066
:104040003CFB014808BD00BFE4E103205CA00D007B
:104050004CE203204CE20320F0E7032070B503F0AC
:1040600033FF074C074BE41AA40800251E46A5425F
:1040700004D056F8253098470135F8E770BD00BFE9
:104080004CA00D000CA00D0001F01EB908B501F008
:10409000A3F9BDE8084003F0D9BE02F017B802F05A
:1040A0001DB802F01BB80078B0FA80F040097047E4
:1040B0000123037070470368C9B29B68184700006A
:1040C00000228270082202720D4A02614FF0814282
:1040D00042610C4A82610C4AC2614FF08042026226
:1040E0000A4A42620A4A82624FF07E52C262094A1A
:1040F0000263094A4263094A8263094AC2637047FC
:104100000000A04000004040000020405555D53F31
:10411000ABAAAA3F39B4483EC1CAA13E9A99193EFA
:10412000D9CE773E012303FA01F1037A01F00801A9
:10413000194301727047022909D800EB41035A81E3
:10414000012303FA01F1037A23EA010101727047A6
:1041500038B504460D468178006C03F042F9206CB6
:10416000036829469B6898470128054601D0FF202F
:1041700038BD206C03F03DF90028F8D12A46A1781B
:10418000206C03F02BF90128F1D1206C03685B69E6
:104190009847C0B238BD2DE9F04F804685B00D4636
:1041A0008178006C164603F01CF9D8F840000368CB
:1041B00005F00F019B6841F04001984701282CD180
:1041C000D8F8400003F015F9834630BB05F008032A
:1041D00005F0020A03F0FF075FFA8AFA002B14BF0A
:1041E0000223002305F004045344013304F0FF09C3
:1041F000002C14BF0224002415F0010514BF022274
:1042000000221C441444E4B2224698F80210D8F864
:10421000400003F0E3F884420FD0FF2051E0D8F8CB
:10422000400003685B69984701AB03F80B000BF192
:10423000010B5FFA8BF3A34207D2D8F84000036862
:104240001B6998470028EAD1E7E745B19DF80520AA
:104250009DF8063043EA02233380032301E03580D2
:104260000123BAF1000F0BD004AAD118023311F8C0
:104270000C0C11F80B2C42EA00227280DBB201E038
:10428000A6F802A0B9F1000F0BD004AAD11802338E
:1042900011F80C0C11F80B2C42EA0022B280DBB2B0
:1042A00001E0A6F804904FB104AA134413F80C2CB3
:1042B00013F80B3C43EA0223F38000E0F7809DF8FB
:1042C000040005B0BDE8F08F2DE9F04104460F462B
:1042D0008178006C904603F084F85021206CFFF741
:1042E000EAFE012802D0FF20BDE8F081B90001F00C
:1042F000FC01206CFFF7DFFE0128F4D1206C03F0F5
:1043000078F80028EFD10322A178206C03F066F83A
:104310000328E8D1206C03681B6998470028E2D085
:10432000206C03685B699847C6B2206C03681B6900
:1043300098470028D7D0206C03685B6998470546EA
:10434000206C03681B6998470028CCD0206C036858
:104350005B6998472D0205F47F45C0B240EA05022B
:10436000A8F8002020463946FFF7E5FE3046BDE8B4
:10437000F081F8B5044616460F46FFF7D3FE817864
:10438000006C03F02EF86021206CFFF794FE0128EA
:1043900001D0FF20F8BD310A206CFFF78CFE012808
:1043A000F7D1F1B2206CFFF786FE0128F1D1B900F8
:1043B00001F0FC01206CFFF77EFE01280546E8D1E4
:1043C000206C03F016F80028E3D12A46A178206C6F
:1043D00003F004F80128DCD1206C03681B699847BE
:1043E0000028D6D0206C03685B699847C5B2EB06FD
:1043F00004D4324639462046FFF79DFE2846F8BDD4
:10440000082310B5F0210372FFF7A2FE0446022034
:1044100001F07CFE204610BD73B50C460DF106027E
:1044200000210646FFF750FFBDF80620240104F0E6
:10443000700422F070022243054692B200213046F9
:10444000FFF797FF284340F30010C0B202B070BDE1
:1044500073B50D460DF1060202210646FFF734FF43
:10446000BDF8062022F0030305F003021A430446B8
:1044700092B202213046FFF77CFF204340F3001048
:10448000C0B202B070BD73B50C460DF10602022138
:104490000646FFF719FFBDF80620A40004F01C042F
:1044A00022F01C022243054692B202213046FFF759
:1044B00060FF284340F30010C0B202B070BD73B576
:1044C000920001F0030102F00C021B0103F0300323
:1044D0000A4342EA030502210DF106020646FFF7F0
:1044E000F3FEBDF8062022F4FC6242EA45120446BF
:1044F00092B202213046FFF73CFF204340F3001008
:10450000C0B202B070BD73B50D460DF106020121B7
:104510000646FFF7D9FEBDF80630002D14BF4FF454
:104520008062002223F480631A43044692B2012180
:104530003046FFF71EFF204340F30010C0B202B028
:1045400070BD002914BF0E210C21002A0CBF0A46A1
:1045500041F00102002B2DE9F843054682704360CB
:1045600003DB002198B203F011FD089B2B64284661
:10457000FFF746FF072106462846FFF74DFF0023B9
:104580001A46194681462846FFF799FF032104463B
:104590002846FFF75DFF072180462846FFF773FF97
:1045A000002107462846FFF7AEFF49EA040348EA20
:1045B00003043C43204346F300163043C0B2BDE839
:1045C000F88301F06FBB00000D4B70B5012500268C
:1045D00003647723044680F83850C663067043703E
:1045E00003F030FD0A23A3700323E3700023E0638C
:1045F00026716671A571E5712572E360204670BD74
:1046000080E6C54738B5094D296811F001040AD183
:104610002846FFF748FD30B12146054803F04AF926
:104620002846FFF745FD024838BD00BF50E2032091
:1046300054E2032010B50446FFF7E4FF2146BDE82D
:10464000104003F0E1B9F8B51E46037804460D4664
:10465000174613B1012B1ED0F8BD90F83830012B4E
:1046600037D14178C06B02F0BCFEE06B036839467D
:104670009B689847E06B02F0BCFE32466178E06BC5
:1046800002F0ACFE2E44E06B03681B69984700B350
:10469000B54217D1F8BD0021807803F088FC47F0BF
:1046A0008000FFF7C7FF2E44B54205D00020FFF77A
:1046B000C1FF05F8010BF7E7A0780121BDE8F8403C
:1046C00003F075BCE06B03685B69984705F8010B64
:1046D000D9E7F8BD2DE9F74F04460323F72201A9D6
:1046E000FFF7B1FF606BB4F91820C117B0F5FA30CD
:1046F00041F1FF31A0FB006700FB01F307EB43072B
:1047000002FB01F5D31700FB0355A2FB00232B444A
:104710004FEA033B4BEA125B4FEA023AB4F91A2024
:10472000D31702FB07F506FB0355A2FB06232B4418
:104730004FEA122848EA03684FEA23291AEB080ACD
:10474000E28A4BEB090B1AF1000A4BF5004BAAFB6E
:10475000028902FB0B994FEA69024FEAE97352EAB8
:10476000030500F08780B4F920A0B4F91E804FEA59
:10477000EA7B0AFB07F506FB0B55AAFB06672F44ED
:104780004FEAE87908FB01F500FB0955A8FB000199
:1047900029449DF80650B4F91C804FEA414B9DF81E
:1047A00005102D0945EA01159DF804104FEA404A0D
:1047B00045EA0135C5F580151AEB060A4BEAD03BF0
:1047C0004BEB070B0026EF17E807F90716EB0A0675
:1047D0004FEAC80741EA550147EB0B0740F635455C
:1047E000861B61EB0707A6FB050105FB071104F01B
:1047F0005DFDB4F926204D13460B46EAC14602FB87
:1048000005F7D31706FB0377A2FB06233B4455436A
:1048100006FB0355A2FB06232B44560E46EAC3169D
:10482000B4F92420B4F9224036184FEA63674F41A7
:10483000D317514300FB0313A2FB00011944C20C20
:1048400042EA413292194FEAE1437B41100AE517EF
:1048500040EA0360191222012B0143EA1473801805
:10486000594104F0E5FC9FED060A07EE900A27EE99
:10487000800A01E09FED030A03B0BDE8F08F00BF9E
:104880000000803B0000000013B5022301A9FD22B7
:104890000446FFF7D8FEBDF80430626B94F932008D
:1048A0005BBA99B2B4F92E301B05C3EB8133B4F96E
:1048B0003010A2F5963202FB113303F58043D91371
:1048C00094F82C305343DB124243921203F5004319
:1048D00053439B12B4F92A2003F50013534303F505
:1048E00000539B134B43DA1394F828105243D21110
:1048F0004A43A3EB221323EAE373B3F1C85FA8BFD3
:104900004FF0C8531B1300EE103ABAEECB0A02B0B8
:1049100010BD000013B5032301A9FA220446FFF7D6
:1049200092FE9DF805209DF804309FED167A120145
:1049300042EA03339DF8062043EA1212238AC3EBAE
:1049400012115B00C3EBD202B4F91230494303FBEE
:1049500002F0B4F914200B1353439B1303EBE02331
:10496000636303EB830380331B1207EE903AF8EE88
:10497000E77A87EE870AD4ED037A30EE270A02B091
:1049800010BD00BF0000C84208B5FFF7C3FFF2EE3C
:10499000027A60EE277AB1EE047A87EE870ADFEDBD
:1049A000027A30EE270A08BD00000042F8B506780A
:1049B00004460D4696B1012E31D10021807803F0D6
:1049C000F6FA45F08000FFF735FE0020FFF732FED3
:1049D00031460546A07803F0EAFA23E090F83870F3
:1049E000012F1ED14178C06B02F0FBFCE06B036825
:1049F00029469B689847E06B02F0FBFC3A466178D9
:104A0000E06B02F0EBFC3546E06B03681B699847EE
:104A100040B1E06B03685B699847C5B2F4E70025D5
:104A200000E035462846F8BD08B5F421FFF7BEFF83
:104A300000F0030008BDF8B5057804460F46164699
:104A400015B1012D17D0F8BD90F83830012B23D1C6
:104A50004178C06B02F0C5FCE06B036839469B6887
:104A60009847E06B036831469B689847E06BBDE868
:104A7000F84002F0BEBC0021807803F098FA07F0FD
:104A80007F00FFF7D7FD3046FFF7D4FD2946A07819
:104A9000BDE8F84003F08BBAF8BD38B5032994BFE0
:104AA0000D460025F4210446FFF780FF00F0FC00CE
:104AB00045EA0002F4212046BDE83840FFF7BBBFBD
:104AC00038B5072994BF0D460025F5210446FFF7A8
:104AD0006DFF00F01F0040EA4512D2B22046F521DA
:104AE000BDE83840FFF7A7BF38B5072994BF0D468A
:104AF0000025F5210446FFF759FF20F01C0040EA8D
:104B00008502D2B22046F521BDE83840FFF793BFB9
:104B1000102998BF104B70B598BF5D5C044688BFE4
:104B20000125FFF781FF002106462046FFF7B5FF6C
:104B3000F4212046FFF73AFF00F01F0040EA45123B
:104B4000F4212046D2B2FFF776FF31462046BDE879
:104B50007040FFF7A2BF00BF68970D00102998BFF3
:104B6000104B70B598BF5D5C044688BF0125FFF708
:104B70005BFF002106462046FFF78FFFF421204609
:104B8000FFF714FF20F01C0040EA8502F4212046C4
:104B9000D2B2FFF750FF31462046BDE87040FFF724
:104BA0007CBF00BF68970D00102998BF0F4B70B5F0
:104BB00098BF5D5C044688BF0125FFF735FF0021E3
:104BC00006462046FFF769FFF2212046FFF7EEFE7A
:104BD00000F0F8022A432046F221FFF72CFF31466D
:104BE0002046BDE87040FFF758BF00BF68970D0032
:104BF00038B50446022001F089FA2578EDB1012D7F
:104C000022D1FFF7FFFC02F05FFEFFF7FBFC202143
:104C100002F0D6FEFFF7F6FC294602F066FEFFF72B
:104C2000F1FC032102F072FE2946A07803F0AEF9F0
:104C30002946A07803F0BBF906E094F83830012B40
:104C400002D1E06B02F096FBD0212046FFF7AEFECA
:104C5000582802D0602840F0E88089212046FFF7DC
:104C6000A5FE882105462046FFF7A0FE00EB0520A3
:104C700020828B212046FFF799FE8A210546204697
:104C8000FFF794FE00EB052060828D212046FFF7A0
:104C90008DFE8C2105462046FFF788FE00EB05209F
:104CA000A0828F212046FFF781FE8E2105462046F7
:104CB000FFF77CFE00EB0520E08291212046FFF704
:104CC00075FE902105462046FFF770FE00EB05209B
:104CD000208393212046FFF769FE92210546204656
:104CE000FFF764FE00EB0520608395212046FFF767
:104CF0005DFE942105462046FFF758FE00EB052097
:104D0000A08397212046FFF751FE962105462046B5
:104D1000FFF74CFE00EB0520E08399212046FFF7CA
:104D200045FE982105462046FFF740FE00EB052092
:104D300020849B212046FFF739FE9A210546204614
:104D4000FFF734FE00EB052060849D212046FFF72D
:104D50002DFE9C2105462046FFF728FE00EB05208E
:104D6000A0849F212046FFF721FE9E210546204674
:104D7000FFF71CFE00EB0520E084A1212046FFF791
:104D800015FEE22184F828002046FFF70FFEE121FE
:104D900005462046FFF70AFE00EB05206085E3216B
:104DA0002046FFF703FEE42184F82C002046FFF79D
:104DB000FDFDE52105462046FFF7F8FD00F00F0058
:104DC00000EB0510E085E6212046FFF7EFFDE52129
:104DD00005462046FFF7EAFDC0F3071000EB05107B
:104DE0002086E7212046FFF7E1FD217984F8320093
:104DF0002046FFF765FE61792046FFF775FEE179F1
:104E00002046FFF7ABFE217A2046FFF7CDFEA179C1
:104E10002046FFF77DFE20460321FFF73EFE204699
:104E2000D021BDE83840FFF7C1BD38BD00F03ABF22
:104E300010B50446006808B101F050F9204610BDD5
:104E400070B505460C46084649B104F06FFC2B6866
:104E5000024621462846DB68BDE87040184770BD11
:104E600089B202F0C8BE000010B58AB08DE80F000C
:104E7000BDF80030ADF81030BDF80430ADF8123098
:104E80000024BDF806300594ADF81630BDF80830A2
:104E9000ADF81830BDF80230ADF81A30039B089316
:104EA00004A923460C2206480794099401F0A8FBA4
:104EB00023460C2207A9034801F0A2FB0AB010BD4B
:104EC00054E303208CE2032084B01FB50DF1180ECB
:104ED0008EE80F009FED237ADDED067ADFED226A82
:104EE00067EE877A9DED087AFCEEE77A27EE267A60
:104EF00017EE903AFCEEC77AADF8003017EE903A14
:104F0000DDED097A9DED0A7AADF8043067EEA67AF8
:104F1000DFED166AFCEEE77A27EE267A17EE903A76
:104F2000FCEEC77A9DED077AADF8063017EE903AA1
:104F3000FCEEC77AADF8083017EE903ADDED0B7A4B
:104F4000ADF8023067EEA67A04ABFCEEE77ACDED61
:104F5000037A13E90F00FFF787FF05B05DF804EB54
:104F600004B0704700007A440000C84200401C466C
:104F700008B502F047FE4FF4165102F039FEFA2050
:104F800001F0C4F802F03EFE7C21FFF769FF02F059
:104F900039FE2D21FFF764FF02F034FE7C21FFF77C
:104FA0005FFF02F02FFE8021FFF75AFF02F02AFE7A
:104FB0007C21FFF755FF02F025FE9E21FFF750FFF1
:104FC00002F020FE7C21FFF74BFF02F01BFECB21FD
:104FD000FFF746FF02F016FE7C21FFF741FF02F0CB
:104FE00011FE2D21FFF73CFF02F00CFE0449FFF7F4
:104FF00027FF40F6B830BDE8084001F087B800BF91
:1050000079970D0010B596B001F0BCFB01F000FCE3
:1050100001F0B8FB614A01460DA802F00BF80DA89B
:1050200001F07BFC01F0AEFB5D4A01460DA802F0E9
:1050300001F80DA801F071FC01F0A4FB594A0146EA
:105040000DA801F0F7FF0DA801F067FC01F09AFB35
:10505000554A01460DA801F0EDFF0DA801F05DFCD9
:1050600001F090FB514A01460DA801F0E3FF0DA8A5
:1050700001F053FC01F086FB4D4A01460DA801F0FA
:10508000D9FF0DA801F049FC01F07CFB494A01461B
:105090000DA801F0CFFF0DA801F03FFC01F072FB5D
:1050A000454A01460DA801F0C5FF0DA801F035FCE9
:1050B00001F068FB414A01460DA801F0BBFF0DA8B5
:1050C00001F02BFC01F05EFB3D4A01460DA801F00A
:1050D000B1FF0DA801F021FC01F054FB394A014653
:1050E0000DA801F0A7FF0DA801F017FC002236491A
:1050F0002B4801F0E7FA002234492A4801F0E2FA8D
:1051000000223349284801F0DDFA002231492348C2
:1051100001F0D8FA00223049244801F0D3FA0022E5
:105120002E49234801F0CEFA00222D49214801F0F2
:10513000C9FA00222649204801F0C4FA0DA801F05E
:10514000E5F928490DA801F0FBF9274903A801F06A
:1051500075F803A908A801F071F808A801F0B8F8DB
:10516000044608A844B901F0D1F816AA022322F88F
:105170004E0D0321009406E001F0CDF800230093CA
:105180000246102307210DA801F079F901F0FAFA7F
:1051900000220DA901F072FB16B010BDE8E3032058
:1051A000F0E3032098E4032084E20320A0E403203A
:1051B00088E403209CE3032090E4032054E30320CD
:1051C0008CE2032094E2032098970D00A6970D002F
:1051D000179E0D00B5970D00AD970D00BD970D0002
:1051E000C5970D00CA970D0040E3032013B502F0E8
:1051F00029FF02F0BFF802F025FF1F4C00900022AB
:105200004FF0FF3311462046FFF79BF9002211466D
:105210002046FFF7AEF8002211462046FFF7A9F816
:10522000002201212046FFF7A4F800220121204698
:10523000FFF79FF8002202212046FFF79AF800228C
:1052400002212046FFF795F8072202212046FFF7AA
:1052500090F8002202212046FFF78BF8002204215B
:105260002046FFF786F800220521204602B0BDE85F
:105270001040FFF77EB800BFA4E3032007B500216C
:10528000022002F083FE02220023009304494FF023
:10529000FF33104602F0B6F803B05DF804FB00BF20
:1052A000AD560D00074800230370037143710123BD
:1052B00077228371C371037203234270C370FFF7B7
:1052C00097BC00BFE8E2032008B502F03DFD4FF4B3
:1052D000165102F02DFDFFF74BFEFFF793FEFFF78F
:1052E00085FFFFF7CBFFBDE80840FFF7DBBF10B538
:1052F000044602F087FC7C21FFF7B2FD02F082FC3D
:105300002D21FFF7ADFD02F07DFC2146FFF798FD52
:1053100010BD00000000000007B536212A48FEF746
:1053200017FF4FF4FA7000F0F1FE6A460621264896
:10533000FEF731FFFF2802460AD12449244800F035
:10534000DDFE2348FFF7D3FF4FF47A7000F0DEFE56
:10535000BDF9023000EE903ABDF804305B421BB25A
:1053600000EE103AF8EEE00AB8EEC00A03F052F888
:10537000B5EEC00AF1EE10FA0CD510EE100A03F0EB
:1053800049FB0DA3D3E9002303F0E6F903F030FE57
:1053900000EE100A10EE100A03F03CFB08A3D3E95C
:1053A000002303F08BFB03F023FE00EE100A03B092
:1053B0005DF804FBAFF300806E861BF0F921194005
:1053C000E8C35CB0DDA54C40A4E30320CF970D00FB
:1053D000FCE30320000000002DE9F0432DED048BD9
:1053E000A14DA24E95B000F04DFC2C68001B03F0BF
:1053F000EFFA93A3D3E9002303F0D2FDF8B13368A9
:105400009FED9B7AE41A07EE904AF8EE677AC7EEB2
:10541000878AF3EE047AF4EEE78AF1EE10FA12D5F9
:1054200018EE900A03F0F6FA87A3D3E9002303F0FD
:10543000D5FD40B1F3EE0D7A87EEA88A05E000F0C5
:1054400021FC306028609FED8B8AFFF765FFF0EE4E
:10545000400A9FED890A02F0A3FF212010EE105AA6
:1054600002F0BEFD03F0C4FA79A3D3E9002303F0F0
:1054700025FB03F0BDFD07EE100AF0EE087A77EE8B
:10548000677A17EE900A03F0C5FA00227B4B03F00F
:1054900015FB00227A4B03F03BFC03F0A9FD9FEDC6
:1054A000750A00EE900A02F05DFFFCEEC07A4FF440
:1054B000FA7017EE903AF0EE408A8DF8373000F02F
:1054C00025FE01F05FF901F0F6F988B318EE100A35
:1054D00003F0A0FA60A3D3E9002303F0EFFA03F08E
:1054E00087FD0E906748FFF715FA66488DED100AA4
:1054F000FFF7CAF963488DED110AFFF7EBF8DFED0E
:10550000627A624B139380EE270A14AB0F958DEDF0
:10551000120A13E903008DE803000EAB0FCBFFF76F
:10552000D3FC002301220DF13701594801F068F83E
:10553000584C2368032B73D8DFE803F00202393993
:105540005048FFF721FA4F4810EE107AFFF79CF908
:1055500018EE100A8DED0B0A03F05CFA40A3D3E9B4
:10556000002303F0ABFA03F043FD03F053FA9DED83
:105570000B0A804610EE100A894603F04BFADF262C
:10558000CDE908013846069603F044FACDE9040156
:105590002846029603F03EFA4B46CDE9000142460A
:1055A0003D493E4800F0AAFD236801333DE03548FF
:1055B000FFF790F818EE100AB0EE409A03F02AFABE
:1055C00027A3D3E9002303F079FA03F011FD03F0D8
:1055D00021FA064618EE900A0F4603F01BFADFED9B
:1055E000307A89EE277ACDE9060117EE100A03F02A
:1055F00011FADF23CDE904012846029303F00AFAE9
:105600003246CDE900013B462649244800F076FDAC
:105610002368204A0133042B08BF0023136005E0F0
:1056200021491E4804F07AF8002323601B48FFF745
:105630005EFE15B0BDEC048BBDE8F083AFF30080D7
:1056400000000000D01273419A9999999999B93F35
:105650001172DEFFC709533F0F0BB5A679C7D13FC3
:105660003480B74082E2E33F9CE2032098E30320CA
:1056700000247449000000000080B343000059403A
:105680003333F33FE8E203200050C347F2D2BD3F7B
:1056900094E20320F8E30320DC970D00FCE30320F1
:1056A0000000C84202980D002A980D0038B5074D39
:1056B000074C2B681BB900F0E5FA286003E023686B
:1056C0002B6000F0DFFA206038BD00BF98E30320B4
:1056D0009CE20320F0B50E4691B000210446016023
:1056E00041600BAD194606A8174600F0A7FD1699B4
:1056F000284600F0A3FD10AA3B7802F82C3D189B29
:105700000293179B01932046009506AB314601F0AA
:10571000DDFB204611B0F0BD2DE9F04FBE4DBF4E70
:10572000DFF8A0B3DFF8A093DFF8A0A3BC4F91B0DF
:10573000002400F0B7FA4FF6FF736B812C60AC8049
:10574000AC712C81032000F045FC3246B549284657
:1057500002F09EFCB449B54D584600F06DFEB449C8
:10576000484600F069FEB349B34800F065FEB3490E
:10577000B34800F061FEB349284600F05DFEB2492F
:10578000504600F059FEB149B14800F055FEB1490C
:10579000B14800F051FEB149B14800F04DFEB149A9
:1057A000B14800F049FEB149B14800F045FEB149A9
:1057B000B14800F041FEB149B14800F03DFEB149A9
:1057C000B1484FF0020800F037FE29460BA806AD9D
:1057D0008DF8148000F032FD5946284600F02EFD69
:1057E0000BAB05AA029401940095A849A848FFF7BD
:1057F00071FF32463946A64802F04AFC51460BA8D2
:10580000DFF8CCA28DF8148000F018FD5946284628
:1058100000F014FD0BAB05AA0294019400959D497C
:105820005046FFF757FF32463946504602F030FCEB
:10583000DFF8A0A282498DF814800BA800F0FEFCCE
:105840004946284600F0FAFC0BAB05AA02940194E5
:10585000009591495046FFF73DFF32463946504684
:1058600002F016FCDFF870A281498DF814800BA8B5
:1058700000F0E4FC4946284600F0E0FC0BAB05AA2A
:1058800002940194009585495046FFF723FF324664
:105890003946504602F0FCFBDFF840A26C498DF817
:1058A00014800BA800F0CAFC4946284600F0C6FC4C
:1058B0000BAB05AA02940194009579495046FFF775
:1058C00009FF32463946504602F0E2FBDFF810A2EB
:1058D00061498DF814800BA800F0B0FC49462846B9
:1058E00000F0ACFC0BAB05AA0294019400956D4945
:1058F0005046FFF7EFFE32463946504602F0C8FBED
:10590000DFF8E0A156498DF814800BA800F096FC52
:105910004946284600F092FC0BAB05AA029401947C
:10592000009561495046FFF7D5FE3246394650464C
:1059300002F0AEFB8DF814804B49DFF8AC810BA868
:1059400000F07CFC4946284600F078FC0BAB05AA29
:105950000294019400955549DFF890914046FFF775
:10596000B9FE32463946404602F092FB4FF012082B
:1059700041498DF814800BA800F060FC5946284678
:1059800000F05CFC0BAB05AA029401940095484919
:105990004846FFF79FFE32463946484602F078FBFC
:1059A000DFF84C9136498DF814800BA800F046FCC6
:1059B0005946284600F042FC0BAB05AA029401941C
:1059C00000953C494846FFF785FE32463946484631
:1059D00002F05EFB8DF814802B49DFF818810BA8CC
:1059E00000F02CFC1449284600F028FC0BAB05AA5B
:1059F00002940194009530494046FFF76BFE324611
:105A00003946404602F044FB2C48FEF759FB2C482F
:105A1000FEF7DAFD11B06FE0DCE203204CE2032078
:105A20001B690D00314E0D003E980D0070E3032000
:105A300063980D0088980D0084E30320AD980D0055
:105A4000C8E20320D2980D00F7980D001C990D00B4
:105A50005CE2032041990D005CE3032066990D0090
:105A60002CE303208B990D0070E20320B0990D0008
:105A7000B4E20320D5990D00A0E20320FA990D00AD
:105A800060E403201F9A0D00A8E40320449A0D004F
:105A900098E40320509A0D005B9A0D00649A0D0063
:105AA000719A0D007F9A0D00909A0D00A19A0D0039
:105AB000B29A0D00C89A0D00DE9A0D00A4E30320EF
:105AC000E8E2032040E30320BCE4032074E4032065
:105AD00084E20320F0E30320E8E30320A0E40320B2
:105AE00088E403209CE3032090E4032054E3032094
:105AF0008CE2032094E20320BDE8F08FFFF70CBE98
:105B000008B5024B1B689B68019308BD780203002F
:105B100008B5024B1B681B6D019308BD780203009A
:105B200008B5024B1B689B6D019308BD780203000A
:105B300008B5024B1B681B6E019308BD7802030079
:105B400008B5034B1B68D3F89830019308BD0000DB
:105B50007802030008B5034B1B68D3F8A830019303
:105B600008BD00007802030008B5034B1B68D3F89A
:105B7000B430019308BD00007802030008B5034B60
:105B80001B68D3F8D830019308BD000078020300E9
:105B900008B5034B1B68D3F8DC30019308BD000047
:105BA0007802030008B5034B1B68D3F8EC3001936F
:105BB00008BD00007802030008B5034B1B68D3F84A
:105BC000F030019308BD00007802030008B5034BD4
:105BD0001B68D3F80031019308BD00007802030070
:105BE00008B5034B1B68D3F80431019308BD0000CE
:105BF0007802030008B5024B1B689B68019308BD3F
:105C00004802030008B5024B1B681B69019308BDDD
:105C10004802030008B5024B1B685B69019308BD8D
:105C20004802030008B5024B1B685B6C019308BD7A
:105C30004802030008B5024B1B689B6C019308BD2A
:105C40004802030008B5024B1B68DB6C019308BDDA
:105C50004802030008B5024B1B685B6D019308BD49
:105C60004802030008B5024B1B685B68019308BD3E
:105C70001802030008B5024B1B68DB68019308BDDE
:105C80001802030008B5024B1B681B69019308BD8D
:105C90001802030008B5024B1B685B69019308BD3D
:105CA0001802030008B5024B1B681B68019308BD6E
:105CB0002C02030008B5024B1B685B68019308BD0A
:105CC0002C02030008B5024B1B689B68019308BDBA
:105CD0002C02030008B5024B1B68DB68019308BD6A
:105CE0002C02030008B5024B1B681B69019308BD19
:105CF0002C02030008B5024B1B689B69019308BD89
:105D00002C02030008B5024B1B68DB69019308BD38
:105D10002C02030008B5024B1B681B6B019308BDE6
:105D20002C02030008B5024B1B68DB68019308BD19
:105D30002802030008B5024B1B689B69019308BD4C
:105D40002802030008B5024B1B68DB69019308BDFC
:105D50002802030008B5024B1B681B6A019308BDAB
:105D60002802030008B5024B1B685B6A019308BD5B
:105D70002802030008B5024B1B689B6A019308BD0B
:105D80002802030008B5024B1B68DB6A019308BDBB
:105D90002802030008B5024B1B681B6B019308BD6A
:105DA0002802030008B5024B1B685B6B019308BD1A
:105DB0002802030008B5024B1B681B6C019308BD49
:105DC0002802030008B5024B1B681B6D019308BD38
:105DD0002802030008B5024B1B685B69019308BDEC
:105DE0006402030008B5024B1B689B68019308BD61
:105DF0006802030008B5024B1B68DB68019308BD0D
:105E00006802030008B5024B1B681B68019308BDBC
:105E10003002030008B5024B1B689B68019308BD64
:105E20003002030008B5024B1B68DB68019308BD14
:105E30003002030008B5024B1B681B69019308BDC3
:105E40003002030008B5024B1B685B69019308BD73
:105E50003002030008B5024B1B68DB69019308BDE3
:105E60003002030008B5024B1B681B6A019308BD92
:105E70003002030008B5024B1B685B6A019308BD42
:105E80003002030008B5024B1B681B6C019308BD70
:105E90003002030008B5024B1B685B6C019308BD20
:105EA0003002030008B5024B1B681B68019308BD54
:105EB0003C02030008B5024B1B68DB68019308BD78
:105EC0003C02030008B5024B1B681B69019308BD27
:105ED0003C02030008B5024B1B685B69019308BDD7
:105EE0003C02030008B5024B1B689B69019308BD87
:105EF0003C02030008B5024B1B68DB69019308BD37
:105F00003C02030008B5024B1B681B6A019308BDE5
:105F10003C02030008B5024B1B689B6A019308BD55
:105F20003C02030008B5024B1B68DB6A019308BD05
:105F30003C02030008B5024B1B681B6B019308BDB4
:105F40003C02030008B5024B1B681B68019308BDA7
:105F50004C02030008B5024B1B685B68019308BD47
:105F60004C02030008B5024B1B681B69019308BD76
:105F70004C02030008B5024B1B685B69019308BD26
:105F80004C02030008B5024B1B689B69019308BDD6
:105F90004C02030008B5024B1B68DB69019308BD86
:105FA0004C02030008B5024B1B681B6A019308BD35
:105FB0004C02030008B5024B1B685B6B019308BDE4
:105FC0006002030008B5024B1B681B6D019308BDFE
:105FD0006002030008B5024B1B685B68019308BDB3
:105FE0002002030008B5024B1B685B69019308BDE2
:105FF0002002030008B5034B1B68D3F888300193D7
:1060000008BD00002002030008B5034B1B68D3F84D
:106010009430019308BD00002002030008B5024B34
:106020001B68DB6B019308BD4402030008B5024BFB
:106030001B685B68019308BD4002030008B5024B72
:106040001B689B68019308BD4002030008B5024B22
:106050001B68DB68019308BD4002030008B5024BD2
:106060001B681B69019308BD4002030008B5024B81
:106070001B685B69019308BD4002030008B5024B31
:106080001B689B69019308BD4002030008B5024BE1
:106090001B68DB69019308BD4002030008B5024B91
:1060A0001B681B6A019308BD4002030008B5024B40
:1060B0001B681B6B019308BD4002030008B5024B2F
:1060C0001B685B6B019308BD4002030008B5024BDF
:1060D0001B681B68019308BD1C02030008B5024B36
:1060E0001B685B68019308BD1C02030008B5024BE6
:1060F0001B689B68019308BD1C02030008B5024B96
:106100001B68DB68019308BD1C0203000021FFF738
:1061100069BF704700207047704700207047704784
:106120000020704710B51421044601F0B6FF204648
:1061300010BD10B51421044601F0AFFF204610BD7C
:1061400010B51421044601F0A8FF204610BDFDF74C
:10615000A6BFFDF7A4BFFDF7A2BF10B504460068B7
:1061600008B1FFF767FD204610BD000008B50A2002
:10617000024A0021FFF71EFF08BD00BF755C0D003D
:1061800010B5036804469B689847A368013BA36069
:106190002BB923682046DB68BDE81040184710BDC6
:1061A000A0F13003DAB2092A01D818467047A0F1ED
:1061B0006103052B01D857387047A0F14103052B27
:1061C00094BF37384FF0FF307047000010B5002300
:1061D0000370044B04461868FFF734FD0123237055
:1061E000204610BDDCE4032010B5037804461BB143
:1061F000024B1868FFF72EFD204610BDDCE403209B
:1062000008B582798B799A4206D1062203F020FAEA
:10621000B0FA80F0400908BD002008BD10B5012388
:106220000361054B024603F1100153F8044B42F899
:10623000044B8B42F9D110BDF09C0D0010B50B69D9
:10624000036101F11002034651F8044B43F8044B7B
:106250009142F9D110BD10B50B460446B9B1012ADF
:1062600009D1034601F1100251F8040B43F8040B65
:106270009142F9D108E0411E0F22985C01F8010F0C
:10628000013AD2B2FF2AF8D10123236102E01022A1
:1062900003F013FA204610BD38B5054614461A46D9
:1062A000FFF7D9FF2C73240A6C73284638BD000011
:1062B00008B502690AB9808903E01022034903F096
:1062C000C7F9003018BF012008BD00BFF09C0D00C9
:1062D0000069704738B50C4614220021054603F0CA
:1062E000ECF923692BB9627B237B43EA02232B80E1
:1062F0000AE001232B7404F110022B4654F8041B0E
:1063000043F8041B9442F9D1284638BD427B007BF8
:1063100040EA02207047704710B50B69036101F134
:106320001002034651F8044B43F8044B9142F9D153
:1063300010BD10B586B00446012201A8FFF78BFFFF
:1063400001A92046FFF7E8FF06B010BD08B50269B5
:106350000B699A4206D1102203F07AF9B0FA80F064
:10636000400908BD002008BD0123F7B50361314B8A
:106370000E460546024603F1100153F8040B42F89D
:10638000040B8B42F9D1002E51D02421304603F06A
:10639000D5F9042810D0002710242421304603F01A
:1063A000CDF9B84201D944BB41E02C440023A542B9
:1063B0003DD004F8013DFAE73078FFF7F1FE041E06
:1063C00018DB7078FFF7ECFE002813DB40EA0410BE
:1063D0008DF80400B078FFF7E3FE041E0ADBF078C6
:1063E000FFF7DEFE0028A1BF40EA04109DF804304C
:1063F00028736B7300232B6119E0F05DFFF7D0FE6B
:10640000030612D4013C000128552421304603F034
:1064100095F90137874208D2F05DFFF7C1FE40B21F
:106420000028A2BF2B5D184328550137B5E703B0FC
:10643000F0BD00BFF09C0D0038B504460D46FFF7D7
:10644000EDFE20462946FFF78FFF204638BDF0B508
:106450008BB10024E51C8D420FD8661C055D875D5D
:10646000974205D12E44B14207D31C60681CF0BD91
:1064700001352C44EEE71846F0BD0020F0BD2DE9B3
:10648000F74304460E461D461746002A3AD00A46F0
:1064900001AB016AFFF7DBFF9DF82830226A03BBDE
:1064A000F8B1961C2E44361A1F2E2BD8DDF8048026
:1064B00008F10209C8EB0202121A00EB080105EB11
:1064C000090092B22144204403F0DCF86B1C04F86C
:1064D00008302A46394604EB090003F0C8F8266262
:1064E00010E0901C2B181F2B0CD86B1CA3542244BB
:1064F00020623946567020442A4603F0B8F8226AD2
:106500002A442262206A03B0BDE8F0831FB5044626
:10651000034600F11F02002003F8010B93424FF0E5
:106520000001F9D104AA062302F8013D01232162EA
:10653000009120461946FFF7A2FF204604B010BD87
:1065400037B50C4605461421204603F0F7F8002322
:1065500000932246034609212846FFF790FF03B027
:1065600030BD73B50A460E4601AB016A0446FFF71B
:106570006EFF054678B10198226A2918121A521B3B
:106580002144204403F073F8236A5D1B25623146E1
:106590002046FFF7E6FF02B070BD000038B50025C9
:1065A0004FF6FF73044643800E222946057005719D
:1065B000063003F082F804F11400FFF72FFE04F117
:1065C0002800FFF72BFE044904F13C0001F06CFAAF
:1065D000E5642565204638BD179E0D0010B583691A
:1065E000C26903EBC2029342184606D004682488AD
:1065F0008C4203F10803F6D110BD002010BD00004D
:106600002DE9F34180461F460E4669B362B3F42A72
:10661000056828BFF42214462A78A2B12B7998077E
:1066200007D500232246A889FFF79EFA002802DA40
:1066300043E06FF07700D8F800502B79DA0618D5D0
:10664000012F23D115E068884FF6FF7398420DD0D3
:106650002B79590723D5012F21D0A98900922346F0
:106660003246FFF795FA28E0154826E06FF0D10092
:1066700023E09A0621D5022F1FD0A88900232246A5
:10668000314602B0BDE8F041FFF7AABAA88900235D
:106690002246314602B0BDE8F041FFF797BA1B072A
:1066A00001D5022F02D16FF0770006E00023A989FF
:1066B000009332462346FFF761FA02B0BDE8F0814D
:1066C000F2FEFFFF70B50C460546F4212046164643
:1066D00003F034F83346024621462846BDE87040B0
:1066E000FFF78EBF10B50A6852F8023F0360536887
:1066F000436010BD1FB502680B6812881B889A4260
:106700000C460CD101466846FFF7ECFF214602A873
:10671000FFF7E8FF02A96846FFF772FD00B9002005
:1067200004B010BD10B504463420FDF7B6FC014698
:1067300068B10023036043608360C3600361436109
:106740008361C361036243628362C3620363216046
:1067500019B90A4A0A20FFF72DFC0020FFF7D0F9EB
:1067600020B1064A00210A20FFF724FC00222168FC
:106770000348FFF721FA204610BD00BF755C0D00ED
:10678000796B0D0010B50A4C2368DB070ED4204648
:10679000FDF789FC50B10748FFF7C4FF2046FDF71D
:1067A00087FC054A0549034801F072FC014810BD09
:1067B000D4E40320D0E403204CE203208F690D00D1
:1067C00070B50368093B012B8AB004460E4619D800
:1067D000FFF7D8FFA1880068FFF700FF024658B90D
:1067E00020230293084B0390009302AA0346074913
:1067F0003220FFF7E7FB05E0F56C1DB1336DE16872
:106800002069A8470AB070BD9A9B0D00509B0D00EF
:1068100013B501A8FFF7DAFC0020FFF771F9044671
:1068200001A8FFF7E1FC04EAE47002B010BD0846DD
:1068300009B90A4601E0096A0022FFF769B910B5F3
:106840000C4611B90A46084606E001212046FFF72A
:1068500088FE216A00222046BDE81040FFF760B99B
:1068600013B501A8FFF7B2FC0020FFF761F9044659
:1068700001A8FFF7B9FC204602B010BD73B505466C
:106880000C4601A81646FFF7A1FC21462846FFF753
:10689000CEFF002808DB31462846FFF7D0FF00284E
:1068A00002DB2846FFF7DCFF044601A8FFF79CFC4B
:1068B000204602B070BD0368D8690028D4BF00200C
:1068C000012070470B68036013B15A6801325A60A7
:1068D000704710B551F8043B044640F8043BFFF7FD
:1068E000F1FF23680BB9FFF741FC204610BD10B53E
:1068F00051F8043B044640F8043BFFF7E3FF204611
:1069000010BD10B50446006828B14368013B4360E0
:106910000BB9FFF735FC204610BD10B50446043016
:10692000FFF7EFFF204610BD70B5046843680546C9
:1069300004EBC306A64204D0201DFFF7E2FF083493
:10694000F8E72868FFF7CAFB284670BD70B50468F1
:106950004368054604EBC306A64204D0201DFFF79A
:10696000D0FF0834F8E72868FFF7B8FB284670BD69
:1069700010B5046904F11800FFF7E8FF04F10C00FA
:10698000FFF7D2FF2046BDE81040FDF788BBF8B501
:1069900004680746C4B1A569E36905EBC306AE42C6
:1069A00004D0281DFFF7ADFF0835F8E7A069FFF711
:1069B00095FB04F10C00FFF7C9FF2046FFF7B4FF79
:1069C0003421204601F069FB3846F8BD73B5002537
:1069D0000560456006462420FDF75FFB044678B15C
:1069E00003464FF6FF7223F8022BC0F802505D6099
:1069F0008572C572C560056145618561C5610562C5
:106A0000002314200193FDF748FB034628B101221F
:106A100042608260084A0260046102A8726840F81D
:106A2000042D73603460FFF76CFF33680BB9FFF718
:106A30009DFB304602B070BD2C9B0D00884270B5A6
:106A400015461AD9904219D2A1F10806511A0439F3
:106A5000151F44182B1F9E4225D0042C07D055F833
:106A6000043C44F8043C29462046FFF72BFF284607
:106A7000FFF747FF083D083CECE714D00C1D061D4E
:106A8000231F9D420FD0042E07D054F8043C46F833
:106A9000043C21463046FFF715FF2046FFF731FF43
:106AA00008340836ECE770BD2DE9F041046843680E
:106AB0000546884604EBC307A74218D04146204646
:106AC000FFF718FE064608B90834F5E78CB1201D1B
:106AD000FFF717FF2B686A6804F1080103EBC20295
:106AE0002046FFF7ABFF6B68013B6B6002E00026BE
:106AF00000E026463046BDE8F081F7B5044651F87F
:106B0000043B4768009301A8FFF7DCFE6668A368B2
:106B10009E4214DB0136002E0BDDF000FFF7D6FAA3
:106B2000054618B394E8060001EBC202FFF786FFA2
:106B300000E000252068FFF7D1FA2560A6602668EE
:106B4000626806EBC70506EBC202294605F108009C
:106B5000FFF774FF35B1009B46F8373001A9281DB7
:106B6000FFF7B0FE636801336360012501A8FFF7FA
:106B7000C8FE284603B0F0BD2DE9F04104468EB0B2
:106B800003A80D46FFF722FB2368032B02D0042B3A
:106B900042D087E004A8FFF719FF049B22891A80DE
:106BA0006268049952F8083FC1F802305368C1F88E
:106BB000063007A8049B069305A9FFF783FE06A9E4
:106BC00005F11800FFF799FF044607A8FFF799FEA3
:106BD0002023069374B9364B009306AA2346354901
:106BE00007943220FFF7EEF9049B21461888FEF740
:106BF000A7FF0DE0304A0092002306AA2D49079313
:106C00000120FFF7DFF96B6A13B1E96A04A898471E
:106C100005A8FFF776FE45E021892846FFF7DEFC50
:106C2000074600283ED00468A369E1694FF6FF7269
:106C3000228003EBC101994203D053F8080B428034
:106C4000F9E7E668236906EBC308B04504D0301DB8
:106C5000FFF757FE0836F8E700232361A669E369CA
:106C600006EBC308B04504D0301DFFF74AFE0836D6
:106C7000F8E70023E361A372E372AB6A13B1296BF7
:106C80003846984720230D4A06930092002309496D
:106C90000793012006AAFFF795F9394605F1180078
:106CA000FFF702FF03A8FFF79FFA0EB0BDE8F081DF
:106CB000B29B0D00509B0D00D89B0D00F59B0D0065
:106CC0008842F8B506460C46154614D9904213D2B0
:106CD000A2F108056C1AA1F108070444AF4218D0CC
:106CE0001CB129462046FFF702FE281DFFF709FECA
:106CF000083D083CF2E70CD0AC420AD01EB1214658
:106D00003046FFF7F4FD201DFFF7FBFD0834083681
:106D1000F2E7F8BD70B50E1E05460BDDF000FFF77B
:106D2000D5F9044670B195E8060001EBC202FFF701
:106D3000C7FF00E000242868FFF7D0F92C60AE60A0
:106D4000012070BD70BD73B5044645686846FFF705
:106D5000CEFD6168A368994205DB01312046FFF74B
:106D6000D9FF064698B12368626803EBC50503EBBB
:106D7000C202294605F10800FFF7A2FF1DB16946CE
:106D80002846FFF7B4FD636801336360012601A85C
:106D9000FFF7B7FD304602B070BD8842F8B5064631
:106DA0000C46154614D9904213D2A2F108056C1A6C
:106DB000A1F108070444AF4218D01CB1294620466F
:106DC000FFF787FD281DFFF79CFD083D083CF2E713
:106DD0000CD0AC420AD01EB121463046FFF779FDF7
:106DE000201DFFF78EFD08340836F2E7F8BD70B5B8
:106DF0000E1E05460BDDF000FFF768F9044670B182
:106E000095E8060001EBC202FFF7C7FF00E000248F
:106E10002868FFF763F92C60AE60012070BD70BD7B
:106E200073B5044645686846FFF753FD6168A3687B
:106E3000994205DB01312046FFF7D9FF064698B19C
:106E40002368626803EBC50503EBC202294605F11E
:106E50000800FFF7A2FF1DB169462846FFF739FD7C
:106E6000636801336360012601A8FFF74AFD3046DD
:106E700002B070BD10B50446406808B1FDF70FF9C7
:106E8000204610BD07B503690C308DE8090003F1F9
:106E90003C0000F0C2FD6846FFF7ECFF03B05DF870
:106EA00004FB000038B500230446036014200D469F
:106EB000FDF7F3F828B1012343608360024B0360C0
:106EC00005612060204638BDF49A0D002DE9F0419F
:106ED00088B005461E46542000230F469046049372
:106EE0000593FDF7DAF8CDF818D004460790C0B145
:106EF00098F80080FFF752FB394604F13C0084F813
:106F0000048000F0E4FD0F9BE3643146109B236591
:106F100004F11400FFF700FA0E9904F12800FFF7BE
:106F2000FBF92146002601AB02AA03A80796FFF74A
:106F3000B9FF039B059A039203A805930494FFF7F6
:106F4000E0FC06A8FFF796FF049B2968059A2B60D2
:106F500008A86B6806916A6040F8043D059604969F
:106F6000FFF7CFFC05A8FFF7CCFC296819B9034A45
:106F70000A20FFF71FF808B0BDE8F081755C0D002E
:106F800010B50446406808B1FDF789F8204610BDE9
:106F900007B503690C308DE809006846FFF7F0FF7C
:106FA00003B05DF804FB000038B50023044603601D
:106FB00014200D46FDF771F828B10123436083606A
:106FC000024B036005612060204638BD109B0D0018
:106FD000F0B5002687B006604660044618200F46CC
:106FE000FDF75BF8CDF810D00546059038B1FFF7F6
:106FF00015F939462846AE82EE82FFF78DF9002357
:107000002946059302AA01AB03A8FFF7CDFF039B16
:1070100062682560636003A80392FFF772FC04A80E
:10702000FFF7AEFF23680BB9FFF7A0F8204607B0C3
:10703000F0BD00002DE9F04F1746A1B080460AA828
:107040000E46FFF7C3F83C682379002B00F0DE8082
:107050003368DD681B6905EBC303039304F1140A6D
:1070600004F1280B039BAB4223D0D5F80090504687
:1070700009F11401FFF76AF9002800F0CC8009F14A
:1070800028015846FFF762F9002800F0C480236801
:1070900023F47F41D9F8003023F47F43994240F034
:1070A000BA802023604A159300230092169315AAF4
:1070B000A8E004F128094846FFF7FAF818B95B4937
:1070C0004846FFF736F933681D685B6805EBC30A6D
:1070D0005545494605D02868FFF738F958BB0835AB
:1070E000F6E70BA8FFF774FF494615A8FFF7F2F87B
:1070F0000B9A0023143215A90120FEF72BFD00285E
:1071000078D135680BA90DA8FFF7F1FB28460DA92A
:10711000FFF719FE05460EA8FFF7F3FB002D69D017
:107120003268556805F100531568013B0CA805EB62
:10713000C305FFF7E6FB04F114094846FFF7B8F86A
:1071400068B93B4B39491A88013292B21A8015A8A6
:107150000123FFF7A1F815A94846FFF7DDF84FF026
:107160002C0A5246002115A802F0A7FA012349462D
:1071700004A8ADF85430ADF856A0FFF7ABF804AB57
:1071800018AA0DF1200C186859689646AEE803005D
:10719000083363457246F6D11868CEF800002379AB
:1071A0008DF858302B689B8AADF87430E36B1793D9
:1071B0000022204B1E93A11D15A81F94FEF7F2FC80
:1071C00020BB01232370346839460C340DA8FFF727
:1071D00080FB20460DA9FFF723FE04460EA8FFF70B
:1071E00090FB9CB920230D93134B00930E942346E0
:1071F0000DAA07E039464046FFF76BFB0CA8FFF7E6
:1072000080FB0AE00D493220FEF7DCFE394640469D
:10721000FFF75FFB01E0083524E70AA8FEF7E4FF6B
:10722000404621B0BDE8F08FC59C0D00409B0D008D
:10723000D8E40320C1670D009E9C0D00509B0D00FB
:1072400010B5064C002320462360FEF7EBFC2046D9
:10725000034A0449BDE8104000F01ABFDCE40320F3
:107260004CE203205B610D0010B58368044613B146
:10727000032201469847204610BD0022114640686F
:10728000FEF70CBF002211464068FEF717BF002230
:107290004068FEF70BBF002281F001014068FEF755
:1072A000F5BE00231A4619464068FEF7E7BE0023E4
:1072B0001A4619464068FEF7D9BE002211464068BA
:1072C000FEF7CCBE002211464068FEF7B7BE002292
:1072D00002214068FEF7BABE00231A464068FEF756
:1072E000A5BE0000024B03225A60024A1A60704792
:1072F000E0E40320089D0D007047F8B506461546EA
:107300000C468F18BC4206D0336814F8011B9B68EA
:1073100030469847F6E72846F8BD0022007CFEF785
:1073200019BD0021007CFEF71DBD0021007CFEF789
:1073300021BD0021007CFEF725BD0021007CFEF769
:1073400029BD10B51421044600F0A7FE204610BD4B
:1073500010B50446002363604FF47A73A360044BB6
:107360002174084623601146FEF724FD204610BD17
:107370003C9D0D0000231A461946007CFEF7D2BC46
:1073800070B50C4686B0142506462A46002101A891
:1073900002F093F923788DF8083063680393E3686B
:1073A00004930022237A307CADF8045001A90593A0
:1073B000FEF708FD06B070BD1FB500338DF8001054
:1073C0004FF06401039118BF0123694601928DF8C3
:1073D0000830FFF7D5FF05B05DF804FB0123FFF788
:1073E000EBBF0022007CFEF7A5BC0022007CFEF76C
:1073F000A9BC0121FFF7F9BF0021007CFEF7D2BC38
:1074000000470000F0B585B01C460E4617460546FD
:10741000FEF778FC002084424FF0040303908DF8BF
:107420000C30A5BF9DF828308DF80E30034603AB15
:10743000009332463B460649A8BF8DF80D402846CA
:10744000FEF758FCB0FA80F0400905B0F0BD00BF6F
:1074500001740D00704710B51821044600F01DFEA0
:10746000204610BDF0B5037D062B8DB00E4600F111
:1074700004074FF0000402D000F1080518E00CAD3D
:10748000394605F8304D2F232A460A20FEF7A2FC84
:10749000284602F04BF933680246DB68294630463D
:1074A00098470FE024B12E21304600F0C5F904447E
:1074B00015F8011D0A22304600F0C1F9BD4204440E
:1074C000F0D120460DB0F0BD10B5054B0446112299
:1074D00040F8043B002102F0F0F8204610BD00BF48
:1074E000649D0D000346074A10B543F8042B01F1D3
:1074F000100251F8044B43F8044B9142F9D10A7839
:107500001A7010BD649D0D0010B59DF8084044EA46
:10751000032343EA024242EA016104234160037506
:1075200010BD37B50D788B784A78C9780091294617
:10753000FFF7EAFF03B030BD014B024A1A60704703
:10754000E8E40320E39D0D00002211464068FEF7A9
:10755000A5BD002211464068FEF7B0BD002240687C
:10756000FEF7A4BD002281F001014068FEF78EBD48
:1075700000231A4601214068FEF780BD00231A4609
:1075800019464068FEF772BD002211464068FEF7BA
:1075900065BD002211464068FEF750BD0022022161
:1075A0004068FEF753BD00231A464068FEF73EBD13
:1075B00038B5054688B104684CB1A3681BB10322F5
:1075C0002146204698471021204600F066FD2846B7
:1075D0001421BDE8384000F060BD38BD10B103682B
:1075E0005B681847704710B503680446BBB158681C
:1075F000FEF700FB78B923685A7C12B95868FEF789
:1076000001FB23685868FEF705FB20680023236010
:1076100028B1FFF7CDFF206808B1FFF7C9FF20466A
:1076200010BD38B50446D0F8C40108B1FCF739FDE7
:10763000D4F8C00108B1FEF7FDFAD4F8BC5135B159
:107640002846FFF7D0FF0421284600F026FD2068D9
:1076500008B1FFF7C3FF204638BD000010B5044B4A
:10766000044640F8083BFFF7DCFF204610BD00BF92
:107670005C9E0D0038B50E4C0E4B23600025022396
:1076800004F5E4706360A560C4F8C451C4F8C8513F
:10769000FEF7C8FA084BC4F8CC5184F8D0512360E7
:1076A0002046064A0649BDE8384000F0F1BC00BF5C
:1076B000ECE40320909E0D005C9E0D004CE2032044
:1076C0005D760D0000231A464068FEF7AFBC00222D
:1076D00002214068FEF7BABC002211464068FEF75E
:1076E000ADBC002211464068FEF7B8BC00231A4624
:1076F00019464068FEF7BABC00231A46194640688E
:10770000FEF7BCBC002281F001014068FEF7BEBC60
:1077100000224068FEF7CABC002211464068FEF70E
:10772000CDBC002211464068FEF7B8BC2DE9F043FD
:10773000002495B016460D460746FFF7C5FE2146C4
:1077400020220CA8009401F0B8FF40230C9321469E
:107750006B460CAA3046FEF74DFB0446002844D188
:10776000024601216868FEF779FC02218046224624
:107770006868FEF773FC009E81462146002E34D0D7
:10778000002932D17368022B02D00A2B09D02AE0DB
:10779000B8F1000F27D0716938460431FFF7C1FEF8
:1077A00020E0B9F1000F1ED07469112201A801F088
:1077B00084FF06238DF8143001AD04F1080318345A
:1077C000186859682A4603C20833A3421546F7D100
:1077D00001A906A807ADFFF785FE0FCD3C1D0FC41C
:1077E0002B6823700121F669C8E70098FEF7FAFAC2
:1077F000384615B0BDE8F083024B034A1A600022F8
:107800005A607047C0E60320909E0D00F8B506460A
:107810000D468F180024BD420CD0336815F8011BAB
:107820009B6830469847002801DB0444F3E7002CAE
:1078300008BF04462046F8BD03689B68184730B56A
:107840008BB00B4600218DF82410012A98BF0A2224
:107850000DF12304B3FBF2F505FB123303F0FF0334
:10786000092B94BF30333733DBB2214604F801399A
:107870002B46002DEED1FDF7E3FA0BB030BD10B56D
:107880000446FFF7F1FC204610BD00000348044AFF
:1078900004490023836000F0FBBB00BFC8E603205F
:1078A0004CE203207F780D000021FEF7EBBA0021A7
:1078B000FEF7F0BA10B5044601700846FEF7CAFAA2
:1078C00000236360204610BD10B504460078FFF722
:1078D000EBFF48B920784FF6FF71FEF793FA207856
:1078E000BDE81040FFF7E3BF10BD38B5044600788F
:1078F0000D46FFF7D9FF40B920782946FEF78AFAEE
:107900002078BDE83840FFF7D2BF38BD38B504460F
:1079100000780D46FFF7C8FF40B920782946FEF7EA
:1079200081FA2078BDE83840FFF7C1BF38BD0000BC
:10793000400830B51860002418688842E5B206D9BE
:107940000134082C02D040081860F5E70725024BE7
:107950005B5D137030BD00BFBC9E0D002DE9F04192
:1079600088B000230446007802930E461746FFF7BE
:107970009BFF054600BB94F800800146142203A833
:1079800001F09BFE0B232A4603A94046ADF80C30BC
:10799000FEF770FA02AB0DF1070207FB06F104983F
:1079A0008DF80750FFF7C4FF20789DF80710FEF709
:1079B00041FA2078FFF77BFF029808B0BDE8F0811C
:1079C00038B5044600780D46FFF76EFFC8B9616808
:1079D00071B10C4BC25CAA4202D001300828F9D127
:1079E0000130C0B2C14001222046FFF7B7FF03E0DB
:1079F00029462078FEF71EFA2078BDE83840FFF7C8
:107A000056BF38BDBC9E0D0008B50078FEF71AFAC7
:107A1000C0B208BD0078FEF725BA10B5044600686C
:107A2000FEF75CFB204610BD10B50446006808B1A7
:107A3000FEF754FB00232360A360636010BD38B5DC
:107A400004460D4600680131FEF750FB10B184E892
:107A50002100012038BD10B50368044613B1436806
:107A60008B4207D22046FFF7EAFF20B1A3680BB98B
:107A700022681370012010BD70B50E4611460446F1
:107A80001546FFF7E8FF18B92046FFF7CDFF09E0DC
:107A90002A463146A560206801F0E9FD2268A36806
:107AA0000021D154204670BD38B500230446036040
:107AB0004360836003730D4639B1084601F036FE1A
:107AC000294602462046FFF7D7FF204638BD38B585
:107AD00005460C4641B1084601F028FE2146024603
:107AE0002846FFF7C9FF01E0FFF79EFF284638BD93
:107AF00010B5094C00204FF6FF732060A080A071E4
:107B000020816381FEF766FA2046044A0449BDE8F5
:107B1000104000F0BDBA00BFD8E603204CE20320BD
:107B2000314E0D00024B1A68024B1A60704700BFBD
:107B3000E4E10320E4E6032070474174704708B590
:107B4000007CFEF7E7F920EAE07008BD08B5007C8C
:107B5000FEF7B8F920EAE07008BD08B5007CFEF732
:107B6000C1F930EA200028BF4FF0FF3008BD08B54A
:107B7000007CFEF7AFF930EA200028BF4FF0FF305D
:107B800008BD007CFEF7B6B910B51421044600F01C
:107B900084FA204610BD70B5457C04460E4625B9D2
:107BA000007CFEF7B7F9002805DD3146207CBDE8F2
:107BB0007040FEF77FB9284670BD000010B504463E
:107BC00008461146002262604FF47A72A260054AAC
:107BD00022600122207462741A46FEF763F920467F
:107BE00010BD00BFF89E0D000023007CFEF79AB97F
:107BF0000022FFF7F9BF007CFEF79CB9007CFEF77E
:107C000081B90000F8B5194C25684DB98420FCF7FE
:107C100044FA064618B18422294601F04EFD26603A
:107C2000134D2E684EB98420FCF737FA074618B179
:107C30008422314601F041FD2F600E4F396811F06A
:107C4000010611D13846FCF72EFA68B122682B687C
:107C500009483146FFF7B2FF3846FCF729FA074AD0
:107C60000749054800F014FA0348F8BD04E703206B
:107C7000FCE6032000E70320E8E603204CE20320B3
:107C8000397B0D0041747047704708B50021007CB6
:107C9000FEF778F930EA200028BF4FF0FF3008BD2A
:107CA00008B50121007CFEF76DF930EA200028BFFD
:107CB0004FF0FF3008BD08B5007CFEF75BF920EA05
:107CC000E07008BD08B5007CFEF74CF920EAE070D2
:107CD00008BD007CFEF766B910B51421044600F01B
:107CE000DCF9204610BD38B50446007C0D46FEF791
:107CF00041F9002801DC607C28B12946207CFEF790
:107D000049F920EAE07038BD10B5044600236360ED
:107D10004FF47A73A360054B236001230846217456
:107D200063741146FEF70EF9204610BD289F0D0022
:107D30000022007CFEF70EB910B514220446002183
:107D400001F0BBFC204610BD30B50E4D87B001A838
:107D5000FFF7F2FF296811F0010410D12846FCF763
:107D6000A2F960B101AA21460748FFF7CDFF2846D6
:107D7000FCF79EF9054A0649034800F089F90248D4
:107D800007B030BD08E703200CE703204CE20320D6
:107D9000897C0D00002211464068FEF75FB9002281
:107DA00011464068FEF77AB9002211464068FEF796
:107DB00085B900224068FEF779B9002281F00101FF
:107DC0004068FEF763B900231A4619464068FEF77B
:107DD00055B900231A4619464068FEF747B90022F4
:107DE00011464068FEF72AB9002202214068FEF7DA
:107DF0002DB900231A464068FEF718B9024B042239
:107E00005A60024A1A60704720E70320589F0D000D
:107E100008B50C4B33B1FFF797FF03681B69984710
:107E2000002809DC084B63B1FFF7ECFE03681B690F
:107E30009847002803DC08BDAFF30080F2E7AFF3FA
:107E4000008008BD000000000000000008B5FFF73A
:107E5000DFFFFDF71FFF014B186008BD30E703206F
:107E60000248034A0349121A01F001BC00F403203E
:107E700004F4032058A00D0007B5002300931A4610
:107E80006FF07701FEF7C0F803B05DF804FB000067
:107E900007B543880A2B08D0502B09D1094B1B6822
:107EA0003BB103B05DF804EB1847FFF7E5FF06E0D0
:107EB000002300931A466FF07701FEF7A5F803B090
:107EC0005DF804FB28E7032038B5104C104D2368FB
:107ED000AB42104B0CBF012200221A7002D0FFF7F8
:107EE000BFFF2560FDF7BEFE044601F0EFFB0A4B25
:107EF00013B12046AFF3008000210748FEF78EF84B
:107F000000210648BDE83840FEF774B800F40320AD
:107F10001E1C279A2CE7032000000000917E0D0014
:107F200070B5184E316811F0010504460AD130468B
:107F3000FCF7B9F830B129461348FFF7BBFC3046CF
:107F4000FCF7B6F81048FFF765FD28B1A4F10B0364
:107F5000022B01D8002070BD00F074F8FFF74CFA36
:107F600008B1012CF6D9FFF74DFEFFF747FE18B117
:107F7000A4F10903012BEDD9232C8CBF0020012093
:107F800070BD00BF50E2032054E20320232838B51F
:107F900004460D460AD8FF2908D0FFF7C1FF28B1D3
:107FA00029462046BDE83840FDF78CBE38BD38B5BF
:107FB00004460D46FDF78EFEFF2810D0062804D893
:107FC0004D2323FA00F0C30709D42046FFF7A8FF8A
:107FD00028B129462046BDE83840FDF783BE38BDAC
:107FE0000D2810B504469CBF0E34A4B22046FFF7FE
:107FF00097FF50B103212046FDF75CFE032804D112
:108000002046BDE81040FDF785BE002010BD0000F1
:1080100070B5044614252A46094E002101F04DFB97
:10802000258020253146A5602561284600F04FF8BF
:1080300031466060284600F04AF8E060204670BD96
:10804000849F0D0030B50E4D296811F0010487B0F2
:1080500013D12846FCF727F878B101A8FFF7D8FF1D
:1080600001AA21460748FFF773F92846FCF720F8D4
:10807000054A0649034800F00BF8024807B030BD36
:1080800034E7032038E703204CE20320F9720D00A7
:108090000B460146184601F0CDBAFCF700B80000C7
:1080A000024B1868BFF35F8F704700BF4CE7032097
:1080B00010B5002814BF044601242046FEF706F838
:1080C00020B9FFF7EDFF08B18047F6E710BDFFF7D5
:1080D000EFBF0000244B1A68D0075CBF01221A6072
:1080E000224B1A68D1075CBF01221A60204B1A6824
:1080F000D2075CBF01221A601E4B1A68D0075CBF12
:1081000001221A601C4B1A68D1075CBF01221A6059
:108110001A4B1A68D2075CBF01221A60184B1A6802
:10812000D0075CBF01221A60164B1A68D1075CBFEA
:1081300001221A60144B1A68D2075CBF01221A6030
:10814000124B1A68D0075CBF01221A60104B1A68E4
:10815000D1075CBF01221A600E4B1A68D2075CBFC0
:1081600001221A60704700BF7CE7032078E70320F4
:1081700074E7032070E703206CE7032068E703201F
:1081800064E7032060E703205CE7032058E703204F
:1081900054E7032050E70320184B1A68D1075CBF4F
:1081A00001221A60164B1A68D2075CBF01221A60BE
:1081B000144B1A68D0075CBF01221A60124B1A6870
:1081C000D1075CBF01221A60104B1A68D2075CBF4E
:1081D00001221A600E4B1A68D0075CBF01221A6098
:1081E0000C4B1A68D1075CBF01221A600A4B1A684F
:1081F000D2075CBF01221A60704700BF9CE70320D2
:1082000098E7032094E7032090E703208CE70320FE
:1082100088E7032084E7032080E70320184B1A68CF
:10822000D1075CBF01221A60164B1A68D2075CBFE7
:1082300001221A60144B1A68D0075CBF01221A6031
:10824000124B1A68D1075CBF01221A60104B1A68E2
:10825000D2075CBF01221A600E4B1A68D0075CBFC0
:1082600001221A600C4B1A68D1075CBF01221A6008
:108270000A4B1A68D2075CBF01221A60704700BF20
:10828000BCE70320B8E70320B4E70320B0E70320EE
:10829000ACE70320A8E70320A4E70320A0E703201E
:1082A000244B1A68D0075CBF01221A60224B1A685F
:1082B000D1075CBF01221A60204B1A68D2075CBF4D
:1082C00001221A601E4B1A68D0075CBF01221A6097
:1082D0001C4B1A68D1075CBF01221A601A4B1A683E
:1082E000D2075CBF01221A60184B1A68D0075CBF26
:1082F00001221A60164B1A68D1075CBF01221A606E
:10830000144B1A68D2075CBF01221A60124B1A681C
:10831000D0075CBF01221A60104B1A68D1075CBFFE
:1083200001221A600E4B1A68D2075CBF01221A6044
:10833000704700BFECE70320E8E70320E4E70320F1
:10834000E0E70320DCE70320D8E70320D4E703209D
:10835000D0E70320CCE70320C8E70320C4E70320CD
:10836000C0E7032008B52DED028BB0EE608AF0EE79
:10837000408A00F033F820B9B0EE480ABDEC028B19
:1083800008BDB0EE480A00F029F820B1F4EEC88A22
:10839000F1EE10FAF0DDB0EE680ABDEC028B08BD1C
:1083A00008B52DED028BB0EE608AF0EE408A00F049
:1083B00015F820B9B0EE480ABDEC028B08BDB0EE4E
:1083C000480A00F00BF820B1F4EEC88AF1EE10FA7A
:1083D000F0D5B0EE680ABDEC028B08BD10EE103A85
:1083E00033F0004001D102207047A0F50003B3F143
:1083F000FE4F01D204207047054B421E9A4201D81D
:1084000003207047A0F1FF40B0FA80F040097047A8
:10841000FEFF7F0000F000B810B582B0CDED010A7C
:10842000019B23F00042B2F1FF4FF0EE407A19DCDD
:1084300010EE100A20F00041B1F1FF4F12DCB3F151
:108440007E5F49D09C1704F0020444EAD07479B9E5
:10845000022C3ED09FED400A032C18BFB0EE670AF5
:1084600002B010BD9DED017A37EE270A02B010BDB3
:1084700012B3B2F1FF4F34D0B1F1FF4F1CD08A1AC2
:10848000D2153C2A22DC002B4BDB9DED010A87EE46
:10849000800A00F053F900F075F8012C3AD0022C54
:1084A0002FD0002CE2D09FED2D7ADFED2D7A30EE2B
:1084B000070A30EE670AD9E7DFED2A7A9FED2A0A2C
:1084C0000028A8BFB0EE670A02B010BD9FED250AD4
:1084D000E3E79FED230AC9E702B0BDE8104000F0D2
:1084E00051B8B1F1FF4F21D0022CF2D0032C2AD089
:1084F000DFED1E7A9FED1E0A012C08BFB0EE670A61
:10850000B4E79FED167ADFED167A30EE070A37EE04
:10851000C00AABE710EE103A03F1004300EE103A48
:10852000A4E73C32B1DA9FED120AB6E7022C10D074
:10853000032C0BD0DFED0F7A9FED0F0A012C08BF43
:10854000B0EE670A92E79FED040A8FE79FED0B0AF2
:108550008CE79FED0B0A89E7DB0F49C02EBDBB33CB
:10856000DB0F4940DB0FC93FDB0FC9BF00000080B4
:1085700000000000DB0F49BFDB0F493FE4CB16C012
:10858000E4CB164038B510EE105A25F00044B4F193
:10859000A14FF0EE407A0BDBB4F1FF4F58DCDFED7A
:1085A000547A9FED540A002DC8BFB0EE670A38BD5B
:1085B000514B9C425DDCB4F1445F4CDB4FF0FF3328
:1085C00067EEA75A9FED4D1A9FED4D2A9FED4D3A4C
:1085D000DFED4D1ADFED4D2A9FED4D4ADFED4D3AAF
:1085E0009FED4D5ADFED4D4A9FED4D6ADFED4D6A2F
:1085F00025EEA57A5A1CA7EE012AE7EE212AA7EE5E
:10860000023AE7EE223AA7EE034AE7EE234AA7EE44
:10861000045AE7EE246AA7EE056A26EE877A66EE2C
:10862000256A3ED0404A41499B001A4476EE876A4B
:1086300092ED007A97EEA67A0B44002D93ED000A96
:1086400077EE677A70EE677A28DBB0EE670A38BD9E
:1086500030EE000A38BD9FED367A30EE077AF7EE3D
:10866000006AB4EEE67AF1EE10FAA7DDB0EE670A22
:1086700038BD00F063F82F4B9C4219DCA3F5D00302
:108680009C422ADCF0EE007ABFEE007AA0EE277A58
:10869000002330EE270AC7EE007A91E7B1EE670AB1
:1086A00038BD76EE876AB0EE670AA7EEE60A38BDF7
:1086B000214B9C420BDCF7EE087AB7EE007AA0EE75
:1086C000277A022330EE670AC0EE077A78E7BFEE1A
:1086D000007AC7EE007A032372E7F7EE007A30EEF5
:1086E000677A30EE270A0123C7EE007A68E700BFF9
:1086F000DB0FC93FDB0FC9BFFFFFDF3ED769853CFA
:1087000059DA4B3D356B883D21A215BD6BF16EBD2D
:108710006E2EBA3D95879DBD2549123E388EE3BD2C
:10872000ABAAAA3ECDCC4CBE889F0D00989F0D00F1
:10873000CAF24971FFFF973FFFFF1B4010EE103A4E
:1087400023F0004300EE103A704700BF81F0004173
:1087500002E000BF83F0004330B54FEA41044FEA26
:10876000430594EA050F08BF90EA020F1FBF54EAC1
:10877000000C55EA020C7FEA645C7FEA655C00F05D
:10878000E2804FEA5454D4EB5555B8BF6D420CDD2E
:108790002C4480EA020281EA030382EA000083EAB1
:1087A000010180EA020281EA0303362D88BF30BD51
:1087B00011F0004F4FEA01314FF4801C4CEA1131A7
:1087C00002D0404261EB410113F0004F4FEA033306
:1087D0004CEA133302D0524263EB430394EA050F91
:1087E00000F0A780A4F10104D5F1200E0DDB02FA00
:1087F0000EFC22FA05F2801841F1000103FA0EF294
:10880000801843FA05F359410EE0A5F120050EF159
:10881000200E012A03FA0EFC28BF4CF0020C43FA8A
:1088200005F3C01851EBE37101F0004507D54FF097
:10883000000EDCF1000C7EEB00006EEB0101B1F5E7
:10884000801F1BD3B1F5001F0CD349085FEA30002D
:108850004FEA3C0C04F101044FEA445212F5800F38
:1088600080F09A80BCF1004F08BF5FEA500C50F1D5
:10887000000041EB045141EA050130BD5FEA4C0CB8
:10888000404141EB010111F4801FA4F10104E9D141
:1088900091F0000F04BF01460020B1FA81F308BF38
:1088A0002033A3F10B03B3F120020CDA0C3208DD04
:1088B00002F1140CC2F10C0201FA0CF021FA02F1DF
:1088C0000CE002F11402D8BFC2F1200C01FA02F14F
:1088D00020FA0CFCDCBF41EA0C019040E41AA2BF74
:1088E00001EB0451294330BD6FEA04041F3C1CDA3C
:1088F0000C340EDC04F11404C4F1200220FA04F05C
:1089000001FA02F340EA030021FA04F345EA030105
:1089100030BDC4F10C04C4F1200220FA02F001FAC7
:1089200004F340EA0300294630BD21FA04F0294649
:1089300030BD94F0000F83F4801306BF81F48011E2
:108940000134013D4EE77FEA645C18BF7FEA655C55
:1089500029D094EA050F08BF90EA020F05D054EA27
:10896000000C04BF1946104630BD91EA030F1EBF2C
:108970000021002030BD5FEA545C05D14000494130
:1089800028BF41F0004130BD14F580043CBF01F523
:10899000801130BD01F0004545F0FE4141F4700109
:1089A0004FF0000030BD7FEA645C1ABF19461046E4
:1089B0007FEA655C1CBF0B46024650EA013406BFE5
:1089C00052EA033591EA030F41F4002130BD00BFA4
:1089D00090F0000F04BF0021704730B54FF4806461
:1089E00004F132044FF000054FF0000150E700BFE2
:1089F00090F0000F04BF0021704730B54FF4806441
:108A000004F1320410F0004548BF40424FF000012D
:108A10003EE700BF42004FEAE2014FEA31014FEA70
:108A200002701FBF12F07F4393F07F4F81F06051BF
:108A3000704792F0000F14BF93F07F4F704730B52E
:108A40004FF4607401F0004521F0004120E700BFC1
:108A500050EA010208BF704730B54FF000050AE048
:108A600050EA010208BF704730B511F0004502D549
:108A7000404261EB41014FF4806404F132045FEA4B
:108A8000915C3FF4DCAE4FF003025FEADC0C18BFF0
:108A900003325FEADC0C18BF033202EBDC02C2F1E6
:108AA000200300FA03FC20FA02F001FA03FE40EA78
:108AB0000E0021FA02F11444C1E600BF70B54FF078
:108AC000FF0C4CF4E06C1CEA11541DBF1CEA13555A
:108AD00094EA0C0F95EA0C0F00F0DEF82C4481EAC2
:108AE000030621EA4C5123EA4C5350EA013518BFE2
:108AF00052EA033541F4801143F4801338D0A0FBCF
:108B000002CE4FF00005E1FB02E506F00042E0FB7B
:108B100003E54FF00006E1FB03569CF0000F18BF81
:108B20004EF0010EA4F1FF04B6F5007F64F5407429
:108B300004D25FEA4E0E6D4146EB060642EAC621BC
:108B400041EA55514FEAC52040EA5E504FEACE2E29
:108B5000B4F1FD0C88BFBCF5E06F1ED8BEF1004F2C
:108B600008BF5FEA500E50F1000041EB045170BDA8
:108B700006F0004646EA010140EA020081EA0301EC
:108B8000B4EB5C04C2BFD4EB0C0541EA045170BDE8
:108B900041F480114FF0000E013C00F3AB8014F162
:108BA000360FDEBF002001F0004170BDC4F10004AB
:108BB000203C35DA0C341BDC04F11404C4F120052C
:108BC00000FA05F320FA04F001FA05F240EA020087
:108BD00001F0004221F0004110EBD37021FA04F6BD
:108BE00042EB06015EEA430E08BF20EAD37070BD77
:108BF000C4F10C04C4F1200500FA04F320FA05F0D6
:108C000001FA04F240EA020001F0004110EBD370D7
:108C100041F100015EEA430E08BF20EAD37070BD47
:108C2000C4F1200500FA05F24EEA020E20FA04F320
:108C300001FA05F243EA020321FA04F001F00041CF
:108C400021FA04F220EA020000EBD3705EEA430E40
:108C500008BF20EAD37070BD94F0000F0FD101F06F
:108C60000046400041EB010111F4801F08BF013CA8
:108C7000F7D041EA060195F0000F18BF704703F0E6
:108C80000046520043EB030313F4801F08BF013D6D
:108C9000F7D043EA0603704794EA0C0F0CEA135529
:108CA00018BF95EA0C0F0CD050EA410618BF52EAE3
:108CB0004306D1D181EA030101F000414FF00000E9
:108CC00070BD50EA410606BF1046194652EA4306F7
:108CD00019D094EA0C0F02D150EA013613D195EA6B
:108CE0000C0F05D152EA03361CBF104619460AD1B3
:108CF00081EA030101F0004141F0FE4141F47001BD
:108D00004FF0000070BD41F0FE4141F4780170BDAC
:108D100070B54FF0FF0C4CF4E06C1CEA11541DBF11
:108D20001CEA135594EA0C0F95EA0C0F00F0A7F813
:108D3000A4EB050481EA030E52EA03354FEA013140
:108D400000F088804FEA03334FF0805545EA131353
:108D500043EA12634FEA022245EA111545EA10651B
:108D60004FEA00260EF000419D4208BF964244F1B2
:108D7000FD0404F5407402D25B084FEA3202B61AD1
:108D800065EB03055B084FEA32024FF480104FF4A5
:108D9000002CB6EB020E75EB030E22BFB61A754619
:108DA00040EA0C005B084FEA3202B6EB020E75EBAC
:108DB000030E22BFB61A754640EA5C005B084FEA14
:108DC0003202B6EB020E75EB030E22BFB61A7546E1
:108DD00040EA9C005B084FEA3202B6EB020E75EBEC
:108DE000030E22BFB61A754640EADC0055EA060EAD
:108DF00018D04FEA051545EA16754FEA06164FEAF0
:108E0000C30343EA52734FEAC2025FEA1C1CC0D19B
:108E100011F4801F0BD141EA00014FF000004FF028
:108E2000004CB6E711F4801F04BF01430020B4F1E9
:108E3000FD0C88BFBCF5E06F3FF6AFAEB5EB030CA1
:108E400004BFB6EB020C5FEA500C50F1000041EB9E
:108E5000045170BD0EF0004E4EEA113114EB5C046B
:108E6000C2BFD4EB0C0541EA045170BD41F480113E
:108E70004FF0000E013C90E645EA060E8DE60CEA46
:108E8000135594EA0C0F08BF95EA0C0F3FF43BAF63
:108E900094EA0C0F0AD150EA01347FF434AF95EA1A
:108EA0000C0F7FF425AF104619462CE795EA0C0FFE
:108EB00006D152EA03353FF4FDAE1046194622E7CB
:108EC00050EA410618BF52EA43067FF4C5AE50EAA5
:108ED00041047FF40DAF52EA43057FF4EBAE12E795
:108EE0004FF0FF3C06E000BF4FF0010C02E000BF76
:108EF0004FF0010C4DF804CD4FEA410C7FEA6C5C59
:108F00004FEA430C18BF7FEA6C5C1BD001B050EAFB
:108F1000410C0CBF52EA430C91EA030F02BF90EAE6
:108F2000020F0020704710F1000F91EA030F58BFA5
:108F3000994208BF90422CBFD8176FEAE37040F007
:108F4000010070474FEA410C7FEA6C5C02D150EAA5
:108F5000013C07D14FEA430C7FEA6C5CD6D152EA60
:108F6000033CD3D05DF8040B704700BF8446104625
:108F700062468C461946634600E000BF01B5FFF724
:108F8000B7FF002848BF10F1000F01BD4DF808EDF4
:108F9000FFF7F4FF0CBF012000205DF808FB00BFC5
:108FA0004DF808EDFFF7EAFF34BF012000205DF81F
:108FB00008FB00BF4DF808EDFFF7E0FF94BF01206C
:108FC00000205DF808FB00BF4DF808EDFFF7CEFF6D
:108FD00094BF012000205DF808FB00BF4DF808EDAC
:108FE000FFF7C4FF34BF012000205DF808FB00BF7D
:108FF0004FEA4102B2F1E04324BFB3F5001CDCF1BB
:10900000FE5C0DD901F0004C4FEAC0024CEA5070F2
:10901000B2F1004F40EB830008BF20F00100704721
:1090200011F0804F21D113F13872BCBF01F0004024
:10903000704741F480114FEA5252C2F11802C2F156
:10904000200C10FA0CF320FA02F018BF40F00100D7
:109050004FEAC1234FEAD32303FA0CFC40EA0C0089
:1090600023FA02F34FEA4303CCE77FEA625307D1C6
:1090700050EA01331EBF4FF0FE4040F440007047FD
:1090800001F0004040F0FE4040F40000704700BF97
:1090900080F0004002E000BF81F0004142001FBFAD
:1090A0005FEA410392EA030F7FEA226C7FEA236CB6
:1090B0006AD04FEA1262D2EB1363C1BFD2184140AB
:1090C00048404140B8BF5B42192B88BF704710F041
:1090D000004F40F4000020F07F4018BF404211F0E4
:1090E000004F41F4000121F07F4118BF494292EA4C
:1090F000030F3FD0A2F1010241FA03FC10EB0C0078
:10910000C3F1200301FA03F100F0004302D5494204
:1091100060EB4000B0F5000F13D3B0F1807F06D3B1
:1091200040084FEA310102F10102FE2A51D2B1F1A9
:10913000004F40EBC25008BF20F0010040EA03009E
:109140007047490040EB000010F4000FA2F101024B
:10915000EDD1B0FA80FCACF1080CB2EB0C0200FAD5
:109160000CF0AABF00EBC25052421843BCBFD04023
:109170001843704792F0000F81F4000106BF80F49D
:1091800000000132013BB5E74FEA41037FEA226C60
:1091900018BF7FEA236C21D092EA030F04D092F02B
:1091A000000F08BF0846704790EA010F1CBF00205F
:1091B000704712F07F4F04D1400028BF40F00040BC
:1091C000704712F100723CBF00F50000704700F0DC
:1091D000004343F0FE4040F4000070477FEA226203
:1091E00016BF08467FEA23630146420206BF5FEAD4
:1091F000412390EA010F40F4800070474FF00003D4
:1092000004E000BF10F0004348BF40425FEA000C9A
:1092100008BF704743F0964301464FF000001CE042
:1092200050EA010208BF70474FF000030AE000BF98
:1092300050EA010208BF704711F0004302D54042D6
:1092400061EB41015FEA010C02BF84460146002048
:1092500043F0B64308BFA3F18053A3F50003BCFA63
:109260008CF2083AA3EBC25310DB01FA02FC634410
:1092700000FA02FCC2F12002BCF1004F20FA02F217
:1092800043EB020008BF20F00100704702F120020A
:1092900001FA02FCC2F1200250EA4C0021FA02F26B
:1092A00043EB020008BF20EADC7070477BB972B95B
:1092B0000029BEBF00204FF0004106E008BF002893
:1092C0001CBF6FF000414FF0FF3000F0B1B9ADF1BD
:1092D000080C6DE904CE002909DB002B1ADB00F035
:1092E00035F8DDF804E0DDE9022304B070474042C0
:1092F00061EB4101002B1BDB00F028F8DDF804E0F6
:10930000DDE9022304B0404261EB4101524263EBCC
:1093100043037047524263EB430300F017F8DDF854
:1093200004E0DDE9022304B0404261EB41017047F3
:10933000524263EB430300F009F8DDF804E0DDE995
:10934000022304B0524263EB430370472DE9F04718
:109350008C460E460446089D002B50D18A42174683
:109360006CD9B2FA82FEBEF1000F0BD0CEF1200410
:1093700020FA04F401FA0EF644EA060C02FA0EF79B
:1093800000FA0EF44FEA1749220CBCFBF9F01FFA61
:1093900087F809FB10C642EA064600FB08F3B34211
:1093A00009D9F61900F1FF3280F02281B34240F270
:1093B0001F8102383E44F61AA2B2B6FBF9F309FB4C
:1093C000136642EA064403FB08F8A04509D9E419EC
:1093D00003F1FF3280F00A81A04540F20781023B91
:1093E0003C44C8EB040443EA00400021002D62D055
:1093F00024FA0EF400232C606B60BDE8F0878B42EA
:1094000007D9002D55D0002185E841000846BDE868
:10941000F087B3FA83F1002940F09080B34202D381
:10942000824200F2F880841A66EB03060120B446FB
:10943000002D40D085E81010BDE8F08712B9012753
:10944000B7FBF2F7B7FA87FEBEF1000F35D1F31B79
:109450004FEA17481FFA87FC0121B3FBF8F0220CF2
:1094600008FB103642EA06460CFB00F3B34207D96C
:10947000F61900F1FF3202D2B34200F2CE8010465C
:10948000F61AA2B2B6FBF8F308FB136642EA0644EA
:109490000CFB03FCA44507D9E41903F1FF3202D207
:1094A000A44500F2B5801346CCEB040443EA004027
:1094B0009CE729462846BDE8F087CEF1200106FA50
:1094C0000EF307FA0EF720FA01F94FEA1748CE40DB
:1094D00049EA0309B6FBF8FA4FEA194408FB1A6691
:1094E0001FFA87FC44EA06430AFB0CF29A4200FA90
:1094F0000EF40AD9DB190AF1FF3180F087809A4215
:1095000040F28480AAF1020A3B449B1A1FFA89F9AF
:10951000B3FBF8F108FB113349EA034301FB0CF6F6
:109520009E4207D9DB1901F1FF326BD29E4269D905
:1095300002393B449B1B41EA0A418EE7C1F1200EF0
:1095400022FA0EF48B40234320FA0EF706FA01F4B8
:109550004FEA134C26FA0EF63C43B6FBFCF9270CF7
:109560000CFB19661FFA83F847EA064609FB08F761
:10957000B74202FA01F200FA01FA08D9F61809F125
:10958000FF3041D2B7423FD9A9F102091E44F61B70
:10959000A0B2B6FBFCF40CFB146640EA064704FBE1
:1095A00008F8B84507D9FF1804F1FF3028D2B845AC
:1095B00026D9023C1F4444EA0940C8EB0707A0FB38
:1095C00002894F4544464E4614D329D065B3BAEBC1
:1095D000040367EB060707FA0EFECB40CF404EEAC6
:1095E000030385E888000021BDE8F0871346F8E60C
:1095F0001046E0E6B8EB020469EB03060138E5E744
:109600000446D8E7114695E78146C0E78A467CE7DD
:10961000023B3C4448E708460AE702383E442FE74D
:10962000C245E7D33E46D1E72946BDE8F08700BFF3
:10963000704700BF10B5054C13462CB10A460146D1
:109640000220AFF3008010BD204610BD00000000D6
:1096500010B501390244904207D010F8013B11F8CF
:10966000014FA342F7D0181B10BD002010BD10B54C
:10967000431E0A44914204D011F8014B03F8014FF4
:10968000F8E710BD884210B501EB020301D8421E75
:109690000BE09842FBD28118D21AD34204D013F8BF
:1096A000014D01F8014DF8E710BD994204D011F8C1
:1096B000014B02F8014FF8E710BD02440346934204
:1096C00002D003F8011BFAE77047000038B5124BCF
:1096D0001C68A36B0546D3B91820FCF7F7FC43F2CE
:1096E0000E33A06303804AF6CD33438041F2342326
:1096F00083804EF26D63C3804DF6EC6303810523D6
:1097000043810B23838101220023C0E90423A36B3F
:1097100000221D615A6138BD48E20320034611F85A
:10972000012B03F8012B002AF9D17047034613F8E7
:10973000012B002AFBD1181A0138704710B50346D7
:1097400001448B4204D01A785C1C0AB12346F8E726
:10975000181A10BD21400D005D400D0089400D001C
:109760008D400D0000000000000102010301010115
:109770000401010101010101054A6F686E205A656B
:109780006865746E6572202020202046616B65201C
:109790004B65737472656C004B65737472656C20F5
:1097A0006279204E4B0046495245202D20323333FA
:1097B00034333539003535303046574C00526576F4
:1097C0002031314200312E3231004649524500539A
:1097D0007461747573203D202530580025342E3176
:1097E00066204D5048202025332E306625632020EA
:1097F00025332E3066256346202025322E306625FF
:10980000250025342E3166204D5048202025332E4A
:1098100030662563202025352E31666D422020429A
:10982000617425332E306625250057726F6E6720D0
:1098300073637265656E206E756D6265720030339C
:109840003239303030302D454142342D444541319C
:109850002D423234452D3434454330323338373499
:1098600044420030303030313830612D30303030CB
:109870002D313030302D383030302D3030383035DB
:1098800066396233346662003030303031383066E9
:109890002D303030302D313030302D383030302DCB
:1098A00030303830356639623334666200303030FB
:1098B00030326132392D303030302D313030302D72
:1098C000383030302D3030383035663962333466D8
:1098D000620030303030326130302D303030302D59
:1098E000313030302D383030302D30303830356632
:1098F0003962333466620030303030326130312DBD
:10990000303030302D313030302D383030302D3057
:10991000303830356639623334666200303030308A
:10992000326132352D303030302D313030302D38FD
:109930003030302D3030383035663962333466623D
:109940000030303030326132372D303030302D3110
:109950003030302D383030302D30303830356639B9
:1099600062333466620030303030326132362D304E
:109970003030302D313030302D383030302D3030E7
:109980003830356639623334666200303030303218
:109990006132382D303030302D313030302D38308C
:1099A00030302D30303830356639623334666200FD
:1099B00030303030326132342D303030302D313073
:1099C00030302D383030302D303038303566396217
:1099D000333466620030333239303331302D454113
:1099E00042342D444541312D423234452D343445E5
:1099F0004330323338373444420030333239303335
:109A000032302D454142342D444541312D423234CE
:109A1000452D3434454330323338373444420030F6
:109A2000303030326131392D303030302D313030FE
:109A3000302D383030302D303038303566396233A3
:109A400034666200646576696365206E616D6500E9
:109A5000417070656172616E6365006D6667206E4E
:109A6000616D65006D6F64656C206E756D62657209
:109A70000073657269616C206E756D626572006855
:109A8000617264776172652076657273696F6E00CA
:109A90006669726D776172652076657273696F6E43
:109AA00000736F6674776172652076657273696F93
:109AB0006E0043686172616374657269737469638F
:109AC0002031362D62697400436861726163746588
:109AD0007269737469632033322D62697400426164
